{"abi":[{"type":"constructor","inputs":[{"name":"_finder","type":"address","internalType":"address"},{"name":"_currency","type":"address","internalType":"address"},{"name":"_oo","type":"address","internalType":"address"}],"stateMutability":"nonpayable"},{"type":"function","name":"assertMarket","inputs":[{"name":"id","type":"bytes32","internalType":"bytes32"},{"name":"out","type":"string","internalType":"string"}],"outputs":[{"name":"aid","type":"bytes32","internalType":"bytes32"}],"stateMutability":"nonpayable"},{"type":"function","name":"assertedMarkets","inputs":[{"name":"","type":"bytes32","internalType":"bytes32"}],"outputs":[{"name":"asserter","type":"address","internalType":"address"},{"name":"marketId","type":"bytes32","internalType":"bytes32"}],"stateMutability":"view"},{"type":"function","name":"assertionDisputedCallback","inputs":[{"name":"","type":"bytes32","internalType":"bytes32"}],"outputs":[],"stateMutability":"nonpayable"},{"type":"function","name":"assertionLiveness","inputs":[],"outputs":[{"name":"","type":"uint64","internalType":"uint64"}],"stateMutability":"view"},{"type":"function","name":"assertionResolvedCallback","inputs":[{"name":"aid","type":"bytes32","internalType":"bytes32"},{"name":"ok","type":"bool","internalType":"bool"}],"outputs":[],"stateMutability":"nonpayable"},{"type":"function","name":"createOutcomeTokens","inputs":[{"name":"id","type":"bytes32","internalType":"bytes32"},{"name":"amt","type":"uint256","internalType":"uint256"}],"outputs":[],"stateMutability":"nonpayable"},{"type":"function","name":"currency","inputs":[],"outputs":[{"name":"","type":"address","internalType":"contract IERC20"}],"stateMutability":"view"},{"type":"function","name":"defaultIdentifier","inputs":[],"outputs":[{"name":"","type":"bytes32","internalType":"bytes32"}],"stateMutability":"view"},{"type":"function","name":"factory","inputs":[],"outputs":[{"name":"","type":"address","internalType":"contract TokenFactory"}],"stateMutability":"view"},{"type":"function","name":"finder","inputs":[],"outputs":[{"name":"","type":"address","internalType":"address"}],"stateMutability":"view"},{"type":"function","name":"getMarket","inputs":[{"name":"id","type":"bytes32","internalType":"bytes32"}],"outputs":[{"name":"","type":"tuple","internalType":"struct MyPredictionMarket.Market","components":[{"name":"resolved","type":"bool","internalType":"bool"},{"name":"assertedOutcomeId","type":"bytes32","internalType":"bytes32"},{"name":"finalOutcomeId","type":"bytes32","internalType":"bytes32"},{"name":"outcome1Token","type":"address","internalType":"contract ExpandedERC20"},{"name":"outcome2Token","type":"address","internalType":"contract ExpandedERC20"},{"name":"reward","type":"uint256","internalType":"uint256"},{"name":"requiredBond","type":"uint256","internalType":"uint256"},{"name":"outcome1","type":"bytes","internalType":"bytes"},{"name":"outcome2","type":"bytes","internalType":"bytes"},{"name":"description","type":"bytes","internalType":"bytes"}]}],"stateMutability":"view"},{"type":"function","name":"initializeMarket","inputs":[{"name":"o1","type":"string","internalType":"string"},{"name":"o2","type":"string","internalType":"string"},{"name":"d","type":"string","internalType":"string"},{"name":"reward","type":"uint256","internalType":"uint256"},{"name":"bond","type":"uint256","internalType":"uint256"}],"outputs":[{"name":"id","type":"bytes32","internalType":"bytes32"}],"stateMutability":"nonpayable"},{"type":"function","name":"marketCount","inputs":[],"outputs":[{"name":"","type":"uint256","internalType":"uint256"}],"stateMutability":"view"},{"type":"function","name":"markets","inputs":[{"name":"","type":"bytes32","internalType":"bytes32"}],"outputs":[{"name":"resolved","type":"bool","internalType":"bool"},{"name":"assertedOutcomeId","type":"bytes32","internalType":"bytes32"},{"name":"finalOutcomeId","type":"bytes32","internalType":"bytes32"},{"name":"outcome1Token","type":"address","internalType":"contract ExpandedERC20"},{"name":"outcome2Token","type":"address","internalType":"contract ExpandedERC20"},{"name":"reward","type":"uint256","internalType":"uint256"},{"name":"requiredBond","type":"uint256","internalType":"uint256"},{"name":"outcome1","type":"bytes","internalType":"bytes"},{"name":"outcome2","type":"bytes","internalType":"bytes"},{"name":"description","type":"bytes","internalType":"bytes"}],"stateMutability":"view"},{"type":"function","name":"oo","inputs":[],"outputs":[{"name":"","type":"address","internalType":"contract OptimisticOracleV3Interface"}],"stateMutability":"view"},{"type":"function","name":"pause","inputs":[],"outputs":[],"stateMutability":"nonpayable"},{"type":"function","name":"paused","inputs":[],"outputs":[{"name":"","type":"bool","internalType":"bool"}],"stateMutability":"view"},{"type":"function","name":"redeemOutcomeTokens","inputs":[{"name":"id","type":"bytes32","internalType":"bytes32"},{"name":"amt","type":"uint256","internalType":"uint256"}],"outputs":[],"stateMutability":"nonpayable"},{"type":"function","name":"settleOutcomeTokens","inputs":[{"name":"id","type":"bytes32","internalType":"bytes32"}],"outputs":[{"name":"out","type":"uint256","internalType":"uint256"}],"stateMutability":"nonpayable"},{"type":"function","name":"treasury","inputs":[],"outputs":[{"name":"","type":"address","internalType":"address"}],"stateMutability":"view"},{"type":"function","name":"unpause","inputs":[],"outputs":[],"stateMutability":"nonpayable"},{"type":"function","name":"unresolvable","inputs":[],"outputs":[{"name":"","type":"bytes","internalType":"bytes"}],"stateMutability":"view"},{"type":"event","name":"AssertionRejected","inputs":[{"name":"marketId","type":"bytes32","indexed":true,"internalType":"bytes32"},{"name":"assertionId","type":"bytes32","indexed":true,"internalType":"bytes32"}],"anonymous":false},{"type":"event","name":"AssertionSubmitted","inputs":[{"name":"marketId","type":"bytes32","indexed":true,"internalType":"bytes32"},{"name":"assertionId","type":"bytes32","indexed":true,"internalType":"bytes32"},{"name":"asserter","type":"address","indexed":true,"internalType":"address"},{"name":"outcome","type":"string","indexed":false,"internalType":"string"}],"anonymous":false},{"type":"event","name":"MarketInitialized","inputs":[{"name":"id","type":"bytes32","indexed":false,"internalType":"bytes32"}],"anonymous":false},{"type":"event","name":"MarketResolved","inputs":[{"name":"id","type":"bytes32","indexed":false,"internalType":"bytes32"}],"anonymous":false},{"type":"event","name":"OutcomeTokensCreated","inputs":[{"name":"marketId","type":"bytes32","indexed":true,"internalType":"bytes32"},{"name":"user","type":"address","indexed":true,"internalType":"address"},{"name":"amount","type":"uint256","indexed":false,"internalType":"uint256"}],"anonymous":false},{"type":"event","name":"OutcomeTokensRedeemed","inputs":[{"name":"marketId","type":"bytes32","indexed":true,"internalType":"bytes32"},{"name":"user","type":"address","indexed":true,"internalType":"address"},{"name":"amount","type":"uint256","indexed":false,"internalType":"uint256"}],"anonymous":false}],"bytecode":{"object":"0x61012034620001c9576001600160401b0390601f62004c0f38819003918201601f191683019184831184841017620001b357808492606094604052833981010312620001c9576200005081620001ce565b6200006c60406200006460208501620001ce565b9301620001ce565b60016000556080919091526001600160a01b0391821660a0521660c0526b082a6a68aa4a8bea8a4aaa8960a31b610100908152604051909161224d9081830190811183821017620001b3578291620029c2833903906000f08015620001a75760e052600180546001600160a01b031916331790556040516127de9182620001e48339608051826105d3015260a05182818161021801528181610302015281816107b9015281816109d401528181610c3f015281816113a2015281816118f101528181611a5101528181611afb01528181611b8901528181611c110152611e5a015260c05182818161013a01528181610ccd0152818161192601528181611aaa01528181611b4301528181611c770152611e25015260e0518281816103d201528181611049015261111801525181818161033e0152611c3d0152f35b6040513d6000823e3d90fd5b634e487b7160e01b600052604160045260246000fd5b600080fd5b51906001600160a01b0382168203620001c95756fe6080604052600436101561001257600080fd5b60003560e01c80630880c65a1461202e5780633f4ba83a14611fdf578063565429a8146117ea5780635c975abb146117c45780635cb1cc0b14610e5757806361d027b314610e305780637564912b14610d575780638456cb5914610cf15780638921a61414610cad5780639d2edf4614610b2f5780639d5bacfd14610974578063acd98e2914610614578063b75d4e24146105f7578063b9a3c84c146105b3578063c3c95c7b146103f6578063c45a0155146103b2578063d410764514610374578063d448a4ec14610361578063d509b01714610326578063e5a6b10f146102e2578063ec979082146102c45763f1b156b21461010e57600080fd5b346102bf5760406003193601126102bf5760043560243580151581036102bf576001600160a01b0390817f000000000000000000000000000000000000000000000000000000000000000016330361027b5782600052600460205260406000209160016040519361017e8561205e565b828154168552015491602084019280845260005260036020528460406000209160001461024457509260209291600585600160ff197fe9146184308c5e4b8f243047cc6f81dce88e004d7980502e123b02f887ab51449854161781556001810154600282015501549081610210575b50505051604051908152a15b600090815260046020526040812081815560010155005b61023c9251167f0000000000000000000000000000000000000000000000000000000000000000612703565b3880806101ed565b93506000915060010155517f936f7fa1b40587cc7ee13c174c2c786a40c76ee4a02d8bb0a61b5f9f0647efda6000604051a36101f9565b606460405162461bcd60e51b815260206004820152600a60248201527f4e6f74206f7261636c65000000000000000000000000000000000000000000006044820152fd5b600080fd5b346102bf5760006003193601126102bf576020600554604051908152f35b346102bf5760006003193601126102bf5760206040516001600160a01b037f0000000000000000000000000000000000000000000000000000000000000000168152f35b346102bf5760006003193601126102bf5760206040517f00000000000000000000000000000000000000000000000000000000000000008152f35b346102bf5760206003193601126102bf57005b346102bf5760206003193601126102bf57600435600052600460205260408060002060016001600160a01b0382541691015482519182526020820152f35b346102bf5760006003193601126102bf5760206040516001600160a01b037f0000000000000000000000000000000000000000000000000000000000000000168152f35b346102bf5760206003193601126102bf5760606101206040516104188161207a565b60008152600060208201526000604082015260008382015260006080820152600060a0820152600060c08201528260e082015282610100820152015260043560005260036020526105af60406000206104f96009604051926104798461207a565b60ff8154161515845260018101546020850152600281015460408501526001600160a01b0360038201541660608501526001600160a01b036004820154166080850152600581015460a0850152600681015460c08501526104dc600782016121d8565b60e08501526104ed600882016121d8565b610100850152016121d8565b6101208201526040519182916020835280511515602084015260208101516040840152604081015160608401526001600160a01b0360608201511660808401526001600160a01b0360808201511660a084015260a081015160c084015260c081015160e084015260e081015161057e6101409182610100870152610160860190612132565b9061012061059e61010085015193601f19948589830301848a0152612132565b930151918584030190850152612132565b0390f35b346102bf5760006003193601126102bf5760206040516001600160a01b037f0000000000000000000000000000000000000000000000000000000000000000168152f35b346102bf5760006003193601126102bf576020604051611c208152f35b346102bf576020806003193601126102bf5761063860ff60015460a01c16156122e0565b61064660016000541461275d565b600260005560043560005260038152604060002060ff81541615610930576001600160a01b039081600382015416906040517f70a0823100000000000000000000000000000000000000000000000000000000908181523360048201528581602481875afa90811561081757600091610903575b50600483019286868554169360246040518096819382523360048301525afa928315610817576000936108d4575b5081158015906108cb575b156108875760028101549061070a600782016121d8565b805190890120820361084057505080945b6040517f79cc6790000000000000000000000000000000000000000000000000000000008082523360048301526024820193909352948790869060449082906000905af1938415610817576107a2958895610823575b50541690600060405180968195829483523360048401602090939291936001600160a01b0360408201951681520152565b03925af18015610817576107ea575b506107dd81337f0000000000000000000000000000000000000000000000000000000000000000612703565b6001600055604051908152f35b61080990833d8511610810575b6108018183612097565b8101906123c8565b50826107b1565b503d6107f7565b6040513d6000823e3d90fd5b61083990863d8811610810576108018183612097565b5088610771565b600861084c91016121d8565b8051908801200361085e57819461071b565b8181018082116108715760011c9461071b565b634e487b7160e01b600052601160045260246000fd5b6064876040519062461bcd60e51b82526004820152600960248201527f4e6f20746f6b656e7300000000000000000000000000000000000000000000006044820152fd5b508215156106f3565b9092508681813d83116108fc575b6108ec8183612097565b810103126102bf575191876106e8565b503d6108e2565b90508581813d8311610929575b61091a8183612097565b810103126102bf5751866106ba565b503d610910565b6064826040519062461bcd60e51b82526004820152601360248201527f4d61726b6574206e6f74207265736f6c766564000000000000000000000000006044820152fd5b346102bf576109823661227f565b9061099560ff60015460a01c16156122e0565b8060005260206003815260406000209060038201916001600160a01b03926109c184825416151561258c565b60ff825416610aeb5783906109f88730337f0000000000000000000000000000000000000000000000000000000000000000612359565b546040517f40c10f19000000000000000000000000000000000000000000000000000000008082523360048301526024820189905295909390929091859185916044918391600091165af1908115610817578493600492610ace575b5001546040519485523360048601526024850187905284916044918391600091165af1918215610817577f73944cdc199be3cfe9345b1156df88f1faef28fd3d7be956cf72213ce7d106e892610ab1575b506040519384523393a3005b610ac790823d8411610810576108018183612097565b5084610aa5565b610ae490853d8711610810576108018183612097565b5088610a54565b6064836040519062461bcd60e51b82526004820152601760248201527f4d61726b657420616c7265616479207265736f6c7665640000000000000000006044820152fd5b346102bf57610b3d3661227f565b90610b5060ff60015460a01c16156122e0565b610b5e60016000541461275d565b6002600055806000526020600381526040600020906001600160a01b03918260038201541692610b8f84151561258c565b6040517f79cc67900000000000000000000000000000000000000000000000000000000080825233600483015260248201889052949092908490849060449082906000905af1908115610817578493600492610c90575b5001546040519485523360048601526024850187905284916044918391600091165af1918215610817577f7e1b7457326b2c44aea851868b9a49ffe4ae9527ae543136dea731204b99a84d92610c73575b50610c6384337f0000000000000000000000000000000000000000000000000000000000000000612703565b6040519384523393a36001600055005b610c8990823d8411610810576108018183612097565b5084610c37565b610ca690853d8711610810576108018183612097565b5088610be6565b346102bf5760006003193601126102bf5760206040516001600160a01b037f0000000000000000000000000000000000000000000000000000000000000000168152f35b346102bf5760006003193601126102bf57740100000000000000000000000000000000000000007fffffffffffffffffffffff00ffffffffffffffffffffffffffffffffffffffff600154610d506001600160a01b0382163314612295565b1617600155005b346102bf5760206003193601126102bf576004356000526003602052604060002060ff8154166105af600183015492610e21600282015491610e126001600160a01b0380600384015416906004840154166005840154600685015491610dbf600787016121d8565b93610dd86009610dd160088a016121d8565b98016121d8565b986040519c8d9c15158d5260208d015260408c015260608b015260808a015260a089015260c08801526101408060e0890152870190612132565b90858203610100870152612132565b90838203610120850152612132565b346102bf5760006003193601126102bf5760206001600160a01b0360015416604051908152f35b346102bf5760a06003193601126102bf5760043567ffffffffffffffff81116102bf57610e88903690600401612157565b60243567ffffffffffffffff81116102bf57610ea8903690600401612157565b9060443567ffffffffffffffff81116102bf57610ec9903690600401612157565b610edb60ff60015460a01c16156122e0565b8151156117805782511561173c578051156116f8578151602083012083516020850120146116b45760025492610f5460405133602082015260806040820152610f4781610f2b60a0820187612132565b426060830152886080830152601f198282030182520382612097565b602081519101209461232b565b6002558360005260036020526001600160a01b036003604060002001541661167057611005926020604051610fcb6026828551610f9681878401888a0161210f565b81017f20546f6b656e000000000000000000000000000000000000000000000000000086820152036006810184520182612097565b604080519687927f198e2b8a0000000000000000000000000000000000000000000000000000000084528260048501526044840190612132565b7f4f31000000000000000000000000000000000000000000000000000000000000848483039260031984016024870152600281520152018160006001600160a01b037f0000000000000000000000000000000000000000000000000000000000000000165af19384156108175760009461164f575b506110d4602060405161109a6026828751610f9681878401888c0161210f565b604080519384927f198e2b8a0000000000000000000000000000000000000000000000000000000084528260048501526044840190612132565b7f4f32000000000000000000000000000000000000000000000000000000000000848483039260031984016024870152600281520152018160006001600160a01b037f0000000000000000000000000000000000000000000000000000000000000000165af18015610817576001600160a01b0391600091611620575b5081604051966111608861207a565b60008852600060208901526000604089015216606087015216608085015260643560a085015260843560c085015260e08401526101008301526101208201528160005260036020526040600020918151151560ff60ff1985541691161783556020820151600184015560408201516002840155600383016001600160a01b03606084015116907fffffffffffffffffffffffff0000000000000000000000000000000000000000918282541617905560048401906001600160a01b036080850151169082541617905560a0820151600584015560c0820151600684015560e082015192835167ffffffffffffffff811161148157611261600783015461219e565b601f81116115d9575b506020601f821160011461156a57819293949560009261155f575b50506000198260011b9260031b1c19161760078201555b61010083015180519067ffffffffffffffff8211611481576112c1600884015461219e565b601f8111611518575b50602090601f83116001146114a25791806101209492600994600092611497575b50506000198260011b9260031b1c19161760088201555b019201519081519267ffffffffffffffff841161148157611323815461219e565b93601f8511611439575b602094508493601f82116001146113d65793819293946000926113cb575b50506000198260011b9260031b1c19161790555b606435611398575b7fc369e3f4eecc036653b32f05ee73787d1736a262de799f2ef755eeff29cbadaa82604051838152a1604051908152f35b6113c660643530337f0000000000000000000000000000000000000000000000000000000000000000612359565b611367565b01519050858061134b565b601f1982169483600052866000209160005b878110611422575083600195969710611409575b505050811b01905561135f565b015160001960f88460031b161c191690558580806113fc565b9192886001819286850151815501940192016113e8565b816000526020600020601f820160051c81019560208310611477575b601f0160051c01945b85811061146b575061132d565b6000815560010161145e565b9095508590611455565b634e487b7160e01b600052604160045260246000fd5b0151905087806112eb565b906008840160005260206000209160005b601f1985168110611500575092610120949260019260099583601f198116106114e7575b505050811b016008820155611302565b015160001960f88460031b161c191690558780806114d7565b919260206001819286850151815501940192016114b3565b600884016000526020600020601f840160051c810160208510611558575b601f830160051c8201811061154c5750506112ca565b60008155600101611536565b5080611536565b015190508580611285565b6007830160005260206000209060005b601f19841681106115c1575060019394959683601f198116106115a8575b505050811b01600782015561129c565b015160001960f88460031b161c19169055858080611598565b9091602060018192858b01518155019301910161157a565b600783016000526020600020601f830160051c810160208410611619575b601f830160051c8201811061160d57505061126a565b600081556001016115f7565b50806115f7565b611642915060203d602011611648575b61163a8183612097565b81019061233a565b87611151565b503d611630565b61166991945060203d6020116116485761163a8183612097565b928561107a565b606460405162461bcd60e51b815260206004820152601560248201527f4d61726b657420616c72656164792065786973747300000000000000000000006044820152fd5b606460405162461bcd60e51b815260206004820152601560248201527f4f7574636f6d657320617265207468652073616d6500000000000000000000006044820152fd5b606460405162461bcd60e51b815260206004820152601160248201527f456d707479206465736372697074696f6e0000000000000000000000000000006044820152fd5b606460405162461bcd60e51b815260206004820152601460248201527f456d707479207365636f6e64206f7574636f6d650000000000000000000000006044820152fd5b606460405162461bcd60e51b815260206004820152601360248201527f456d707479206669727374206f7574636f6d65000000000000000000000000006044820152fd5b346102bf5760006003193601126102bf57602060ff60015460a01c166040519015158152f35b346102bf5760406003193601126102bf5760243567ffffffffffffffff81116102bf5761181b903690600401612157565b61182d60ff60015460a01c16156122e0565b60043560005260036020526040600020906118566001600160a01b03600384015416151561258c565b60ff825416611f9b57600182018054611f5757815160208301209061187d600785016121d8565b60208151910120611890600886016121d8565b60208151910120906118a06120d6565b60208151910120908414918215611f4d575b508115611f43575b5015611eff57556040517f4360af3d0000000000000000000000000000000000000000000000000000000081526001600160a01b037f00000000000000000000000000000000000000000000000000000000000000001660048201526020816024816001600160a01b037f0000000000000000000000000000000000000000000000000000000000000000165afa90811561081757600091611ecc575b50600961197791600685015490808211600014611ec45750935b016121d8565b611a496040611985426125d7565b81519384917f4173206f6620000000000000000000000000000000000000000000000000000060208401526119c481518092602060268701910161210f565b82017f2c206f7574636f6d653a200000000000000000000000000000000000000000006026820152865190611a00826031830160208b0161210f565b017f2e204465736372697074696f6e3a2000000000000000000000000000000000006031820152611a3a825180936020878501910161210f565b01036020810184520182612097565b611a758330337f0000000000000000000000000000000000000000000000000000000000000000612359565b6040517f095ea7b300000000000000000000000000000000000000000000000000000000908160208201526001600160a01b037f00000000000000000000000000000000000000000000000000000000000000001660248201526000604482015260448152608081019080821067ffffffffffffffff83111761148157611b1f916040527f00000000000000000000000000000000000000000000000000000000000000006123e0565b83158015611dee575b15611d84576040516020808201929092526001600160a01b037f0000000000000000000000000000000000000000000000000000000000000000166024820152604480820186905281529091611beb91611bad90611b87606482612097565b7f00000000000000000000000000000000000000000000000000000000000000006123e0565b60405194859283927f6457c9790000000000000000000000000000000000000000000000000000000084526101206004850152610124840190612132565b9033602484015230604484015260006064840152611c2060848401526001600160a01b037f00000000000000000000000000000000000000000000000000000000000000001660a484015260c48301527f000000000000000000000000000000000000000000000000000000000000000060e48301526000610104830152038160006001600160a01b037f0000000000000000000000000000000000000000000000000000000000000000165af190811561081757600091611d4f575b60209250604051611cb88161205e565b3381526001848201600435815284600052600486526001600160a01b0360406000209351167fffffffffffffffffffffffff00000000000000000000000000000000000000008454161783555191015581604051918483527fe6042ad6af7c8b385a8ebb34de859ffaac8545064d60dc9ba2d44d120d654dc8339380611d446004359489830190612132565b0390a4604051908152f35b90506020823d602011611d7c575b81611d6a60209383612097565b810103126102bf576020915190611ca8565b3d9150611d5d565b608460405162461bcd60e51b815260206004820152603660248201527f5361666545524332303a20617070726f76652066726f6d206e6f6e2d7a65726f60448201527f20746f206e6f6e2d7a65726f20616c6c6f77616e6365000000000000000000006064820152fd5b506040517fdd62ed3e0000000000000000000000000000000000000000000000000000000081523060048201526001600160a01b037f00000000000000000000000000000000000000000000000000000000000000001660248201526020816044816001600160a01b037f0000000000000000000000000000000000000000000000000000000000000000165afa90811561081757600091611e92575b5015611b28565b90506020813d602011611ebc575b81611ead60209383612097565b810103126102bf575185611e8b565b3d9150611ea0565b905093611971565b90506020813d602011611ef7575b81611ee760209383612097565b810103126102bf57516009611957565b3d9150611eda565b606460405162461bcd60e51b815260206004820152600f60248201527f496e76616c6964206f7574636f6d6500000000000000000000000000000000006044820152fd5b90508214856118ba565b84149150866118b2565b606460405162461bcd60e51b815260206004820152601c60248201527f417373657274696f6e20616374697665206f72207265736f6c766564000000006044820152fd5b606460405162461bcd60e51b815260206004820152601060248201527f417373657274696f6e20616374697665000000000000000000000000000000006044820152fd5b346102bf5760006003193601126102bf577fffffffffffffffffffffff00ffffffffffffffffffffffffffffffffffffffff6001546120286001600160a01b0382163314612295565b16600155005b346102bf5760006003193601126102bf576105af61204a6120d6565b604051918291602083526020830190612132565b6040810190811067ffffffffffffffff82111761148157604052565b610140810190811067ffffffffffffffff82111761148157604052565b90601f601f19910116810190811067ffffffffffffffff82111761148157604052565b67ffffffffffffffff811161148157601f01601f191660200190565b604051906120e38261205e565b600c82527f556e7265736f6c7661626c6500000000000000000000000000000000000000006020830152565b60005b8381106121225750506000910152565b8181015183820152602001612112565b90601f19601f6020936121508151809281875287808801910161210f565b0116010190565b81601f820112156102bf5780359061216e826120ba565b9261217c6040519485612097565b828452602083830101116102bf57816000926020809301838601378301015290565b90600182811c921680156121ce575b60208310146121b857565b634e487b7160e01b600052602260045260246000fd5b91607f16916121ad565b90604051918260008254926121ec8461219e565b90818452600194858116908160001461225b5750600114612218575b505061221692500383612097565b565b9093915060005260209081600020936000915b81831061224357505061221693508201013880612208565b8554888401850152948501948794509183019161222b565b905061221695506020935060ff1991501682840152151560051b8201013880612208565b60031960409101126102bf576004359060243590565b1561229c57565b606460405162461bcd60e51b815260206004820152600c60248201527f4e6f7420747265617375727900000000000000000000000000000000000000006044820152fd5b156122e757565b606460405162461bcd60e51b815260206004820152600660248201527f50617573656400000000000000000000000000000000000000000000000000006044820152fd5b60001981146108715760010190565b908160209103126102bf57516001600160a01b03811681036102bf5790565b9290604051927f23b872dd0000000000000000000000000000000000000000000000000000000060208501526001600160a01b03809216602485015216604483015260648201526064815260a081019181831067ffffffffffffffff84111761148157612216926040526123e0565b908160209103126102bf575180151581036102bf5790565b60405161245d916001600160a01b03166123f98261205e565b6000806020958685527f5361666545524332303a206c6f772d6c6576656c2063616c6c206661696c656487860152868151910182855af13d156124ec573d91612441836120ba565b9261244f6040519485612097565b83523d60008785013e6124f0565b8051908161246a57505050565b828061247a9383010191016123c8565b156124825750565b6084906040519062461bcd60e51b82526004820152602a60248201527f5361666545524332303a204552433230206f7065726174696f6e20646964206e60448201527f6f742073756363656564000000000000000000000000000000000000000000006064820152fd5b6060915b919290156125515750815115612504575090565b3b1561250d5790565b606460405162461bcd60e51b815260206004820152601d60248201527f416464726573733a2063616c6c20746f206e6f6e2d636f6e74726163740000006044820152fd5b8251909150156125645750805190602001fd5b6125889060405191829162461bcd60e51b8352602060048401526024830190612132565b0390fd5b1561259357565b606460405162461bcd60e51b815260206004820152601560248201527f4d61726b657420646f6573206e6f7420657869737400000000000000000000006044820152fd5b80156126c95780816000925b6126b557506125f1826120ba565b916125ff6040519384612097565b80835281601f1961260f836120ba565b01916020923684870137905b6126255750505090565b60001990818101908111610871578093600a80820480940481118415151661087157830281039081116108715760ff80911660300190811161087157855182101561269f5760f81b7fff000000000000000000000000000000000000000000000000000000000000001660001a908501830153918261261b565b634e487b7160e01b600052603260045260246000fd5b916126c1600a9161232b565b9204806125e3565b506040516126d68161205e565b600181527f3000000000000000000000000000000000000000000000000000000000000000602082015290565b6040517fa9059cbb0000000000000000000000000000000000000000000000000000000060208201526001600160a01b0392909216602483015260448083019390935291815261221691612758606483612097565b6123e0565b1561276457565b606460405162461bcd60e51b815260206004820152600a60248201527f5265656e7472616e6379000000000000000000000000000000000000000000006044820152fdfea264697066735822122083d8afd6a62d8bc8f2f0f1283410494bfa663b947b487adee589ace722197d4764736f6c634300081000336080806040523461001657612231908161001c8239f35b600080fdfe6040608081526004803610156200001557600080fd5b600091823560e01c63198e2b8a146200002d57600080fd5b34620001bc57807ffffffffffffffffffffffffffffffffffffffffffffffffffffffffffffffffc360112620001bc5767ffffffffffffffff823581811162000228576200007f903690850162000270565b9060243581811162000224576200009a903690860162000270565b835192611edd80850193841185851017620001f857620000e3859493620000d460129489946200031f8939606087526060870190620002dc565b908582036020870152620002dc565b920152039084f08015620001ee5773ffffffffffffffffffffffffffffffffffffffff1691823b15620001ca5781517f983b2d560000000000000000000000000000000000000000000000000000000081523382820152848160248183885af18015620001e457620001ce575b50823b15620001ca578151907ff44637ba0000000000000000000000000000000000000000000000000000000082523390820152838160248183875af18015620001c057620001a4575b6020838351908152f35b620001b084916200022c565b620001bc57826200019a565b8280fd5b82513d86823e3d90fd5b8380fd5b620001dc909491946200022c565b923862000150565b83513d87823e3d90fd5b81513d85823e3d90fd5b6024886041897f4e487b7100000000000000000000000000000000000000000000000000000000835252fd5b8580fd5b8480fd5b67ffffffffffffffff81116200024157604052565b7f4e487b7100000000000000000000000000000000000000000000000000000000600052604160045260246000fd5b81601f82011215620002d75780359067ffffffffffffffff92838311620002415760405193601f19603f81601f870116011685019085821090821117620002415760405282845260208383010111620002d757816000926020809301838601378301015290565b600080fd5b919082519283825260005b84811062000309575050601f19601f8460006020809697860101520116010190565b602081830181015184830182015201620002e756fe604060808152346200074f5762001edd803803806200001e8162000774565b92833981016060828203126200074f5781516001600160401b03908181116200074f57826200004f9185016200079a565b602092838501518381116200074f5786916200006d9187016200079a565b9401519160ff928381168091036200074f578251918083116200064f576003908154936001958686811c9616801562000744575b898710146200072e578190601f96878111620006d8575b508990878311600114620006715760009262000665575b505060001982851b1c191690861b1782555b87519081116200064f5760049788548681811c9116801562000644575b898210146200062f57908186849311620005d9575b508890868311600114620005725760009262000566575b505060001982841b1c191690851b1787555b60ff1991826006541617600655600080526005928387526200017286868b6000200154166200016b816200080c565b156200082d565b60008052838752600289600020868101878682541617905560008155013315620005175780546001600160a01b0319163317905560008080528488528990208501548616620001c1816200080c565b15620004bf57620001d162000754565b6000815285600052848852620001f487878c6000200154166200016b816200080c565b85600052848852828a600020878101600287825416179055600081550190866000905b6200041b575b5050506000805283875285858a6000200154166200023b816200080c565b15620003c3576200024b62000754565b916000835260026000528488526200027087878c6000200154166200016b816200080c565b600260005284885289600020868101600286825416179055600081550191856000905b62000320575b505050505060008052835284600020015416620002b6816200080c565b15620002cb57825161164290816200087b8239f35b608492519162461bcd60e51b83528201526038602482015260008051602062001ebd83398151915260448201527f20746f206d616e61676520612073686172656420726f6c6500000000000000006064820152fd5b8151811015620003bd5780861b82018901516001600160a01b031680156200037c576000528389528a60002087868254161790556000198114620003675786018662000293565b60118a634e487b7160e01b6000525260246000fd5b60648b858c8f519262461bcd60e51b845283015260248201527f43616e6e6f74206164642030783020746f20612073686172656420726f6c65006044820152fd5b62000299565b885162461bcd60e51b81528089018890526038602482015260008051602062001ebd83398151915260448201527f20746f206d616e61676520612073686172656420726f6c6500000000000000006064820152608490fd5b8151811015620004b95780871b82018a01516001600160a01b031680156200047757600052828a528b60002088878254161790556000198114620004625787018762000217565b60118b634e487b7160e01b6000525260246000fd5b5060648b858c8f519262461bcd60e51b845283015260248201527f43616e6e6f74206164642030783020746f20612073686172656420726f6c65006044820152fd5b6200021d565b885162461bcd60e51b8152808901889052603c602482015260008051602062001ebd83398151915260448201527f20746f206d616e61676520616e206578636c757369766520726f6c65000000006064820152608490fd5b895162461bcd60e51b8152808a01899052602360248201527f43616e6e6f742073657420616e206578636c757369766520726f6c6520746f2060448201526203078360ec1b6064820152608490fd5b0151905038806200012a565b90879350601f198316918b6000528a6000209260005b8c828210620005c25750508411620005a9575b505050811b0187556200013c565b015160001983861b60f8161c191690553880806200059b565b8385015186558b9790950194938401930162000588565b90915089600052886000208680850160051c8201928b861062000625575b918991869594930160051c01915b8281106200061557505062000113565b6000815585945089910162000605565b92508192620005f7565b60228a634e487b7160e01b6000525260246000fd5b90607f1690620000fe565b634e487b7160e01b600052604160045260246000fd5b015190503880620000cf565b90889350601f19831691866000528b6000209260005b8d828210620006c15750508411620006a8575b505050811b018255620000e1565b015160001983871b60f8161c191690553880806200069a565b8385015186558c9790950194938401930162000687565b90915084600052896000208780850160051c8201928c861062000724575b918a91869594930160051c01915b82811062000714575050620000b8565b600081558594508a910162000704565b92508192620006f6565b634e487b7160e01b600052602260045260246000fd5b95607f1695620000a1565b600080fd5b60405190602082016001600160401b038111838210176200064f57604052565b6040519190601f01601f191682016001600160401b038111838210176200064f57604052565b919080601f840112156200074f5782516001600160401b0381116200064f57602090620007d0601f8201601f1916830162000774565b928184528282870101116200074f5760005b818110620007f857508260009394955001015290565b8581018301518482018401528201620007e2565b600311156200081757565b634e487b7160e01b600052602160045260246000fd5b156200083557565b60405162461bcd60e51b815260206004820152601e60248201527f43616e6e6f74207573652061207072652d6578697374696e6720726f6c6500006044820152606490fdfe608060408181526004908136101561001657600080fd5b600092833560e01c90816306fdde0314610d2057508063095ea7b314610cf657806318160ddd14610cd757806323b872dd14610bee578063313ce56714610bcc5780633950935114610b7d57806340c10f1914610aad57806342966c6814610a805780636be7658b146109c557806370a082311461098f57806373cc802a146108ca57806374d0a676146107d457806379cc67901461079f5780637cdc1cb91461076e57806395d89b411461063f578063983b2d5614610590578063a457c2d7146104d0578063a9059cbb1461049f578063aaa14ca3146103fb578063ab3545e5146103a9578063d97c05be14610274578063dd62ed3e146102275763f44637ba1461012157600080fd5b346102235760208060031936011261021f5761013b610e4d565b906002855260058152610162600260ff600186892001541661015c81611189565b1461159b565b600285526005815261018061017b84872054339061149c565b61152b565b60028552600581526001600160a01b0360038487200192169384156101de575083855252808320600160ff198254161790555190339060027f63502af7324ff6db91ab38f8236a648727d9385ea6c782073dd4882d8a61a48f8585a4f35b60649184519162461bcd60e51b8352820152601f60248201527f43616e6e6f74206164642030783020746f20612073686172656420726f6c65006044820152fd5b8380fd5b8280fd5b83823461027057806003193601126102705780602092610245610e4d565b61024d610e68565b6001600160a01b0391821683526001865283832091168252845220549051908152f35b5080fd5b5034610223578060031936011261022357813590610290610e68565b82855260056020526102b5600160ff818589200154166102af81611189565b146114ba565b82855260056020526102ce61017b83872054339061149c565b82855260056020526001600160a01b0360028387200191169384156103405750837fffffffffffffffffffffffff0000000000000000000000000000000000000000825416179055519133917f3b855c56b409b671c7112789d022675eb639d0bcb8896f1b6197c132f799e7468585a4f35b608490602084519162461bcd60e51b8352820152602360248201527f43616e6e6f742073657420616e206578636c757369766520726f6c6520746f2060448201527f30783000000000000000000000000000000000000000000000000000000000006064820152fd5b509034610223576020600319360112610223576002826020946001600160a01b039335808252600587526103ea600160ff818686200154166102af81611189565b815260058652200154169051908152f35b5090346102235760206003193601126102235735908183526005602052610430600260ff600184872001541661015c81611189565b61044261043d338461149c565b6111a9565b818352600560205261047333600383862001906001600160a01b0316600052602052604060002060ff198154169055565b5190339033907feb3e33034c392e69263b04ec0fa376dc12784a41b6676c7f31b936cbc0fbb5af8585a4f35b8382346102705780600319360112610270576020906104c96104bf610e4d565b6024359033610ea1565b5160018152f35b50913461058d578260031936011261058d576104ea610e4d565b91836024359233815260016020528181206001600160a01b0386168252602052205490828210610524576020856104c98585038733611055565b608490602086519162461bcd60e51b8352820152602560248201527f45524332303a2064656372656173656420616c6c6f77616e63652062656c6f7760448201527f207a65726f0000000000000000000000000000000000000000000000000000006064820152fd5b80fd5b5034610223576020908160031936011261021f576105ac610e4d565b600192838652600581526105cd600260ff86868a2001541661015c81611189565b838652600581526105e561017b84882054339061149c565b838652600581526001600160a01b0360038488200192169485156101de5750848652528084208260ff19825416179055519133917f63502af7324ff6db91ab38f8236a648727d9385ea6c782073dd4882d8a61a48f8585a4f35b50829034610270578160031936011261027057805190828454600181811c90808316928315610764575b602093848410811461075157838852879594939291811561073257506001146106d4575b50505003601f01601f191682019267ffffffffffffffff8411838510176106c157508291826106bd925282610e05565b0390f35b80604186634e487b7160e01b6024945252fd5b8888529193925086917f8a35acfbc15ff81a39ae7d344fd709f28e8600b4aa8c65c6b64bfe7fe36bd19b5b82841061071c5750505090601f1992601f9282010191819361068d565b80548885018701528794509285019281016106ff565b60ff1916848701525050151560051b830101905081601f601f1961068d565b60248960228c634e487b7160e01b835252fd5b91607f1691610669565b50823461058d578160031936011261058d575061079660209261078f610e68565b903561149c565b90519015158152f35b8382346102705780600319360112610270576020906104c96107bf610e4d565b6107cb61043d33611442565b6024359061121a565b50346102235780600319360112610223578135906107f0610e68565b8285526005602052610810600260ff600185892001541661015c81611189565b828552600560205261082961017b83872054339061149c565b82855260056020526001600160a01b0360038387200191169384156108875750838552602052808420600160ff19825416179055519133917f63502af7324ff6db91ab38f8236a648727d9385ea6c782073dd4882d8a61a48f8585a4f35b606490602084519162461bcd60e51b8352820152601f60248201527f43616e6e6f74206164642030783020746f20612073686172656420726f6c65006044820152fd5b5034610223576020600319360112610223576108e4610e4d565b8380526005602052610903600160ff818588200154166102af81611189565b838052600560205261091c61017b83862054339061149c565b83805260056020526001600160a01b0360028386200191169283156103405750827fffffffffffffffffffffffff000000000000000000000000000000000000000082541617905551903390837f3b855c56b409b671c7112789d022675eb639d0bcb8896f1b6197c132f799e7468185a4f35b83823461027057602060031936011261027057806020926001600160a01b036109b6610e4d565b16815280845220549051908152f35b50903461022357816003193601126102235735906109e1610e68565b908284526005602052610a02600260ff600184882001541661015c81611189565b8284526005602052610a1b61017b82862054339061149c565b8284526005602052610a4c82600383872001906001600160a01b0316600052602052604060002060ff198154169055565b51916001600160a01b03339216907feb3e33034c392e69263b04ec0fa376dc12784a41b6676c7f31b936cbc0fbb5af8585a4f35b50903461022357602060031936011261022357610aaa90610aa361043d33611442565b353361121a565b51f35b50823461058d578160031936011261058d57610ac7610e4d565b906001600160a01b0360243592610ae061043d33611356565b16918215610b3a57602080955081610b1b7fddf252ad1be2c89b69c2b068fc378daa952ba7f163c4a11628f55a4df523b3ef93600254610e7e565b6002558484528382528584208181540190558551908152a35160018152f35b606485602086519162461bcd60e51b8352820152601f60248201527f45524332303a206d696e7420746f20746865207a65726f2061646472657373006044820152fd5b8382346102705780600319360112610270576104c9602092610bc5610ba0610e4d565b91338152600186528481206001600160a01b0384168252865284602435912054610e7e565b9033611055565b83823461027057816003193601126102705760209060ff600654169051908152f35b5091903461027057606060031936011261027057610c0a610e4d565b610c12610e68565b9184604435946001600160a01b038416815260016020528181203382526020522054907fffffffffffffffffffffffffffffffffffffffffffffffffffffffffffffffff8203610c6b575b6020866104c9878787610ea1565b848210610c945750918391610c89602096956104c995033383611055565b919394819350610c5d565b606490602087519162461bcd60e51b8352820152601d60248201527f45524332303a20696e73756666696369656e7420616c6c6f77616e63650000006044820152fd5b8382346102705781600319360112610270576020906002549051908152f35b8382346102705780600319360112610270576020906104c9610d16610e4d565b6024359033611055565b905083913461022357826003193601126102235782600354600181811c90808316928315610dfb575b60209384841081146107515783885287959493929181156107325750600114610d9c5750505003601f01601f191682019267ffffffffffffffff8411838510176106c157508291826106bd925282610e05565b600388529193925086917fc2575a0e9e593c00f959f8c92f12db2869c3395a3b0502d05e2516446f71f85b5b828410610de55750505090601f1992601f9282010191819361068d565b8054888501870152879450928501928101610dc8565b91607f1691610d49565b60208082528251818301819052939260005b858110610e3957505050601f19601f8460006040809697860101520116010190565b818101830151848201604001528201610e17565b600435906001600160a01b0382168203610e6357565b600080fd5b602435906001600160a01b0382168203610e6357565b91908201809211610e8b57565b634e487b7160e01b600052601160045260246000fd5b6001600160a01b03809116918215610feb5716918215610f8157600082815280602052604081205491808310610f1757604082827fddf252ad1be2c89b69c2b068fc378daa952ba7f163c4a11628f55a4df523b3ef958760209652828652038282205586815220818154019055604051908152a3565b608460405162461bcd60e51b815260206004820152602660248201527f45524332303a207472616e7366657220616d6f756e742065786365656473206260448201527f616c616e636500000000000000000000000000000000000000000000000000006064820152fd5b608460405162461bcd60e51b815260206004820152602360248201527f45524332303a207472616e7366657220746f20746865207a65726f206164647260448201527f65737300000000000000000000000000000000000000000000000000000000006064820152fd5b608460405162461bcd60e51b815260206004820152602560248201527f45524332303a207472616e736665722066726f6d20746865207a65726f20616460448201527f64726573730000000000000000000000000000000000000000000000000000006064820152fd5b6001600160a01b0380911691821561112057169182156110b65760207f8c5be1e5ebec7d5bd14f71427d1e84f3dd0314c0f7b2291e5b200ac8c7c3b925918360005260018252604060002085600052825280604060002055604051908152a3565b608460405162461bcd60e51b815260206004820152602260248201527f45524332303a20617070726f766520746f20746865207a65726f20616464726560448201527f73730000000000000000000000000000000000000000000000000000000000006064820152fd5b608460405162461bcd60e51b8152602060048201526024808201527f45524332303a20617070726f76652066726f6d20746865207a65726f2061646460448201527f72657373000000000000000000000000000000000000000000000000000000006064820152fd5b6003111561119357565b634e487b7160e01b600052602160045260246000fd5b156111b057565b608460405162461bcd60e51b815260206004820152602260248201527f53656e64657220646f6573206e6f7420686f6c6420726571756972656420726f60448201527f6c650000000000000000000000000000000000000000000000000000000000006064820152fd5b6001600160a01b031680156112ec5760009181835282602052604083205481811061128257817fddf252ad1be2c89b69c2b068fc378daa952ba7f163c4a11628f55a4df523b3ef926020928587528684520360408620558060025403600255604051908152a3565b608460405162461bcd60e51b815260206004820152602260248201527f45524332303a206275726e20616d6f756e7420657863656564732062616c616e60448201527f63650000000000000000000000000000000000000000000000000000000000006064820152fd5b608460405162461bcd60e51b815260206004820152602160248201527f45524332303a206275726e2066726f6d20746865207a65726f2061646472657360448201527f73000000000000000000000000000000000000000000000000000000000000006064820152fd5b600160005260056020527f1471eb6eb2c5e789fc3de43f8ce62938c7d1836ec861730447e2ada8fd81017c547f1471eb6eb2c5e789fc3de43f8ce62938c7d1836ec861730447e2ada8fd81017b9060ff166113b081611189565b600181036113ce5750600201546001600160a01b0391821691161490565b806113da600292611189565b1461142357606460405162461bcd60e51b815260206004820152600e60248201527f496e76616c696420726f6c6549640000000000000000000000000000000000006044820152fd5b6001600160a01b03600392166000520160205260ff6040600020541690565b600260005260056020527f89832631fb3c3307a103ba2c84ab569c64d6182a18893dcd163f0f1c2090733b547f89832631fb3c3307a103ba2c84ab569c64d6182a18893dcd163f0f1c2090733a9060ff166113b081611189565b6000526005602052604060002060ff6001820154166113b081611189565b156114c157565b608460405162461bcd60e51b815260206004820152602f60248201527f4d7573742062652063616c6c6564206f6e20616e20696e697469616c697a656460448201527f204578636c757369766520726f6c6500000000000000000000000000000000006064820152fd5b1561153257565b608460405162461bcd60e51b8152602060048201526024808201527f43616e206f6e6c792062652063616c6c6564206279206120726f6c65206d616e60448201527f61676572000000000000000000000000000000000000000000000000000000006064820152fd5b156115a257565b608460405162461bcd60e51b815260206004820152602c60248201527f4d7573742062652063616c6c6564206f6e20616e20696e697469616c697a656460448201527f2053686172656420726f6c6500000000000000000000000000000000000000006064820152fdfea264697066735822122027091828c144b78df01495e5235e90996073b63efe248c63f7d976b80738777e64736f6c63430008100033417474656d7074656420746f2075736520616e20696e76616c696420726f6c65a26469706673582212205df0328883a04621b63c870a531ecf62d7caa821955ca6d712e1d10ea40ad3ed64736f6c63430008100033","linkReferences":{}},"methodIdentifiers":{"assertMarket(bytes32,string)":"565429a8","assertedMarkets(bytes32)":"d4107645","assertionDisputedCallback(bytes32)":"d448a4ec","assertionLiveness()":"b75d4e24","assertionResolvedCallback(bytes32,bool)":"f1b156b2","createOutcomeTokens(bytes32,uint256)":"9d5bacfd","currency()":"e5a6b10f","defaultIdentifier()":"d509b017","factory()":"c45a0155","finder()":"b9a3c84c","getMarket(bytes32)":"c3c95c7b","initializeMarket(string,string,string,uint256,uint256)":"5cb1cc0b","marketCount()":"ec979082","markets(bytes32)":"7564912b","oo()":"8921a614","pause()":"8456cb59","paused()":"5c975abb","redeemOutcomeTokens(bytes32,uint256)":"9d2edf46","settleOutcomeTokens(bytes32)":"acd98e29","treasury()":"61d027b3","unpause()":"3f4ba83a","unresolvable()":"0880c65a"},"id":63}