{"abi":[{"type":"constructor","inputs":[{"name":"_finder","type":"address","internalType":"address"},{"name":"_currency","type":"address","internalType":"address"},{"name":"_oo","type":"address","internalType":"address"}],"stateMutability":"nonpayable"},{"type":"function","name":"DEFAULT_ADMIN_ROLE","inputs":[],"outputs":[{"name":"","type":"bytes32","internalType":"bytes32"}],"stateMutability":"view"},{"type":"function","name":"DISPUTE_EXTENSION","inputs":[],"outputs":[{"name":"","type":"uint256","internalType":"uint256"}],"stateMutability":"view"},{"type":"function","name":"MAX_MARKETS_PER_USER","inputs":[],"outputs":[{"name":"","type":"uint256","internalType":"uint256"}],"stateMutability":"view"},{"type":"function","name":"MIN_DURATION","inputs":[],"outputs":[{"name":"","type":"uint256","internalType":"uint256"}],"stateMutability":"view"},{"type":"function","name":"MIN_REWARD","inputs":[],"outputs":[{"name":"","type":"uint256","internalType":"uint256"}],"stateMutability":"view"},{"type":"function","name":"PAUSER_ROLE","inputs":[],"outputs":[{"name":"","type":"bytes32","internalType":"bytes32"}],"stateMutability":"view"},{"type":"function","name":"RESOLVER_ROLE","inputs":[],"outputs":[{"name":"","type":"bytes32","internalType":"bytes32"}],"stateMutability":"view"},{"type":"function","name":"TREASURY_ROLE","inputs":[],"outputs":[{"name":"","type":"bytes32","internalType":"bytes32"}],"stateMutability":"view"},{"type":"function","name":"UNRESOLVABLE","inputs":[],"outputs":[{"name":"","type":"string","internalType":"string"}],"stateMutability":"view"},{"type":"function","name":"UNRESOLVABLE_HASH","inputs":[],"outputs":[{"name":"","type":"bytes32","internalType":"bytes32"}],"stateMutability":"view"},{"type":"function","name":"assertMarket","inputs":[{"name":"id","type":"bytes32","internalType":"bytes32"},{"name":"out","type":"string","internalType":"string"}],"outputs":[{"name":"aid","type":"bytes32","internalType":"bytes32"}],"stateMutability":"nonpayable"},{"type":"function","name":"assertedMarkets","inputs":[{"name":"","type":"bytes32","internalType":"bytes32"}],"outputs":[{"name":"asserter","type":"address","internalType":"address"},{"name":"marketId","type":"bytes32","internalType":"bytes32"}],"stateMutability":"view"},{"type":"function","name":"assertionBond","inputs":[{"name":"","type":"bytes32","internalType":"bytes32"}],"outputs":[{"name":"","type":"uint256","internalType":"uint256"}],"stateMutability":"view"},{"type":"function","name":"assertionDisputedCallback","inputs":[{"name":"aid","type":"bytes32","internalType":"bytes32"}],"outputs":[],"stateMutability":"nonpayable"},{"type":"function","name":"assertionLiveness","inputs":[],"outputs":[{"name":"","type":"uint64","internalType":"uint64"}],"stateMutability":"view"},{"type":"function","name":"assertionOutcomes","inputs":[{"name":"","type":"bytes32","internalType":"bytes32"}],"outputs":[{"name":"","type":"bytes32","internalType":"bytes32"}],"stateMutability":"view"},{"type":"function","name":"assertionResolvedCallback","inputs":[{"name":"aid","type":"bytes32","internalType":"bytes32"},{"name":"ok","type":"bool","internalType":"bool"}],"outputs":[],"stateMutability":"nonpayable"},{"type":"function","name":"createOutcomeTokens","inputs":[{"name":"id","type":"bytes32","internalType":"bytes32"},{"name":"amt","type":"uint256","internalType":"uint256"}],"outputs":[],"stateMutability":"nonpayable"},{"type":"function","name":"currency","inputs":[],"outputs":[{"name":"","type":"address","internalType":"contract IERC20"}],"stateMutability":"view"},{"type":"function","name":"defaultIdentifier","inputs":[],"outputs":[{"name":"","type":"bytes32","internalType":"bytes32"}],"stateMutability":"view"},{"type":"function","name":"disputeAssertion","inputs":[{"name":"marketId","type":"bytes32","internalType":"bytes32"}],"outputs":[],"stateMutability":"nonpayable"},{"type":"function","name":"disputedAssertions","inputs":[{"name":"","type":"bytes32","internalType":"bytes32"}],"outputs":[{"name":"","type":"bool","internalType":"bool"}],"stateMutability":"view"},{"type":"function","name":"disputerOf","inputs":[{"name":"","type":"bytes32","internalType":"bytes32"}],"outputs":[{"name":"","type":"address","internalType":"address"}],"stateMutability":"view"},{"type":"function","name":"factory","inputs":[],"outputs":[{"name":"","type":"address","internalType":"contract TokenFactory"}],"stateMutability":"view"},{"type":"function","name":"finder","inputs":[],"outputs":[{"name":"","type":"address","internalType":"address"}],"stateMutability":"view"},{"type":"function","name":"getAllMarkets","inputs":[{"name":"start","type":"uint256","internalType":"uint256"},{"name":"end","type":"uint256","internalType":"uint256"}],"outputs":[{"name":"","type":"bytes32[]","internalType":"bytes32[]"}],"stateMutability":"view"},{"type":"function","name":"getAssertionData","inputs":[{"name":"marketId","type":"bytes32","internalType":"bytes32"}],"outputs":[{"name":"assertionId","type":"bytes32","internalType":"bytes32"},{"name":"settled","type":"bool","internalType":"bool"},{"name":"disputed","type":"bool","internalType":"bool"},{"name":"expirationTime","type":"uint256","internalType":"uint256"}],"stateMutability":"view"},{"type":"function","name":"getAssertionForMarket","inputs":[{"name":"marketId","type":"bytes32","internalType":"bytes32"}],"outputs":[{"name":"","type":"bytes32","internalType":"bytes32"}],"stateMutability":"view"},{"type":"function","name":"getMarket","inputs":[{"name":"id","type":"bytes32","internalType":"bytes32"}],"outputs":[{"name":"","type":"tuple","internalType":"struct MyPredictionMarket.Market","components":[{"name":"assertedOutcomeId","type":"bytes32","internalType":"bytes32"},{"name":"finalOutcomeId","type":"bytes32","internalType":"bytes32"},{"name":"outcome1Hash","type":"bytes32","internalType":"bytes32"},{"name":"outcome2Hash","type":"bytes32","internalType":"bytes32"},{"name":"descriptionHash","type":"bytes32","internalType":"bytes32"},{"name":"reward","type":"uint256","internalType":"uint256"},{"name":"requiredBond","type":"uint256","internalType":"uint256"},{"name":"expirationTime","type":"uint256","internalType":"uint256"},{"name":"outcome1Token","type":"address","internalType":"address"},{"name":"outcome2Token","type":"address","internalType":"address"},{"name":"resolved","type":"bool","internalType":"bool"},{"name":"outcome1","type":"bytes","internalType":"bytes"},{"name":"outcome2","type":"bytes","internalType":"bytes"},{"name":"description","type":"bytes","internalType":"bytes"},{"name":"winningOutcome","type":"string","internalType":"string"}]}],"stateMutability":"view"},{"type":"function","name":"getMarketAssertions","inputs":[{"name":"id","type":"bytes32","internalType":"bytes32"}],"outputs":[{"name":"","type":"bytes32[]","internalType":"bytes32[]"}],"stateMutability":"view"},{"type":"function","name":"getMarketDetails","inputs":[{"name":"id","type":"bytes32","internalType":"bytes32"}],"outputs":[{"name":"outcome1","type":"string","internalType":"string"},{"name":"outcome2","type":"string","internalType":"string"},{"name":"description","type":"string","internalType":"string"},{"name":"reward","type":"uint256","internalType":"uint256"},{"name":"requiredBond","type":"uint256","internalType":"uint256"},{"name":"outcome1Token","type":"address","internalType":"address"},{"name":"outcome2Token","type":"address","internalType":"address"},{"name":"resolved","type":"bool","internalType":"bool"}],"stateMutability":"view"},{"type":"function","name":"getRoleAdmin","inputs":[{"name":"role","type":"bytes32","internalType":"bytes32"}],"outputs":[{"name":"","type":"bytes32","internalType":"bytes32"}],"stateMutability":"view"},{"type":"function","name":"getWinningOutcome","inputs":[{"name":"id","type":"bytes32","internalType":"bytes32"}],"outputs":[{"name":"","type":"string","internalType":"string"}],"stateMutability":"view"},{"type":"function","name":"grantRole","inputs":[{"name":"role","type":"bytes32","internalType":"bytes32"},{"name":"account","type":"address","internalType":"address"}],"outputs":[],"stateMutability":"nonpayable"},{"type":"function","name":"hasRole","inputs":[{"name":"role","type":"bytes32","internalType":"bytes32"},{"name":"account","type":"address","internalType":"address"}],"outputs":[{"name":"","type":"bool","internalType":"bool"}],"stateMutability":"view"},{"type":"function","name":"initializeMarket","inputs":[{"name":"o1","type":"string","internalType":"string"},{"name":"o2","type":"string","internalType":"string"},{"name":"d","type":"string","internalType":"string"},{"name":"reward","type":"uint256","internalType":"uint256"},{"name":"bond","type":"uint256","internalType":"uint256"},{"name":"duration","type":"uint256","internalType":"uint256"}],"outputs":[{"name":"id","type":"bytes32","internalType":"bytes32"}],"stateMutability":"nonpayable"},{"type":"function","name":"isResolved","inputs":[{"name":"id","type":"bytes32","internalType":"bytes32"}],"outputs":[{"name":"","type":"bool","internalType":"bool"}],"stateMutability":"view"},{"type":"function","name":"marketAssertions","inputs":[{"name":"","type":"bytes32","internalType":"bytes32"},{"name":"","type":"uint256","internalType":"uint256"}],"outputs":[{"name":"","type":"bytes32","internalType":"bytes32"}],"stateMutability":"view"},{"type":"function","name":"marketCount","inputs":[],"outputs":[{"name":"","type":"uint256","internalType":"uint256"}],"stateMutability":"view"},{"type":"function","name":"marketList","inputs":[{"name":"","type":"uint256","internalType":"uint256"}],"outputs":[{"name":"","type":"bytes32","internalType":"bytes32"}],"stateMutability":"view"},{"type":"function","name":"marketToAssertion","inputs":[{"name":"","type":"bytes32","internalType":"bytes32"}],"outputs":[{"name":"","type":"bytes32","internalType":"bytes32"}],"stateMutability":"view"},{"type":"function","name":"markets","inputs":[{"name":"","type":"bytes32","internalType":"bytes32"}],"outputs":[{"name":"assertedOutcomeId","type":"bytes32","internalType":"bytes32"},{"name":"finalOutcomeId","type":"bytes32","internalType":"bytes32"},{"name":"outcome1Hash","type":"bytes32","internalType":"bytes32"},{"name":"outcome2Hash","type":"bytes32","internalType":"bytes32"},{"name":"descriptionHash","type":"bytes32","internalType":"bytes32"},{"name":"reward","type":"uint256","internalType":"uint256"},{"name":"requiredBond","type":"uint256","internalType":"uint256"},{"name":"expirationTime","type":"uint256","internalType":"uint256"},{"name":"outcome1Token","type":"address","internalType":"address"},{"name":"outcome2Token","type":"address","internalType":"address"},{"name":"resolved","type":"bool","internalType":"bool"},{"name":"outcome1","type":"bytes","internalType":"bytes"},{"name":"outcome2","type":"bytes","internalType":"bytes"},{"name":"description","type":"bytes","internalType":"bytes"},{"name":"winningOutcome","type":"string","internalType":"string"}],"stateMutability":"view"},{"type":"function","name":"marketsCreated","inputs":[{"name":"","type":"address","internalType":"address"}],"outputs":[{"name":"","type":"uint256","internalType":"uint256"}],"stateMutability":"view"},{"type":"function","name":"oo","inputs":[],"outputs":[{"name":"","type":"address","internalType":"contract IOOV3Extended"}],"stateMutability":"view"},{"type":"function","name":"pause","inputs":[],"outputs":[],"stateMutability":"nonpayable"},{"type":"function","name":"paused","inputs":[],"outputs":[{"name":"","type":"bool","internalType":"bool"}],"stateMutability":"view"},{"type":"function","name":"redeemOutcomeTokens","inputs":[{"name":"id","type":"bytes32","internalType":"bytes32"},{"name":"amt","type":"uint256","internalType":"uint256"}],"outputs":[],"stateMutability":"nonpayable"},{"type":"function","name":"renounceRole","inputs":[{"name":"role","type":"bytes32","internalType":"bytes32"},{"name":"account","type":"address","internalType":"address"}],"outputs":[],"stateMutability":"nonpayable"},{"type":"function","name":"revokeRole","inputs":[{"name":"role","type":"bytes32","internalType":"bytes32"},{"name":"account","type":"address","internalType":"address"}],"outputs":[],"stateMutability":"nonpayable"},{"type":"function","name":"settleMarket","inputs":[{"name":"marketId","type":"bytes32","internalType":"bytes32"}],"outputs":[],"stateMutability":"nonpayable"},{"type":"function","name":"settleOutcomeTokens","inputs":[{"name":"id","type":"bytes32","internalType":"bytes32"}],"outputs":[{"name":"out","type":"uint256","internalType":"uint256"}],"stateMutability":"nonpayable"},{"type":"function","name":"supportsInterface","inputs":[{"name":"interfaceId","type":"bytes4","internalType":"bytes4"}],"outputs":[{"name":"","type":"bool","internalType":"bool"}],"stateMutability":"view"},{"type":"function","name":"treasury","inputs":[],"outputs":[{"name":"","type":"address","internalType":"address"}],"stateMutability":"view"},{"type":"function","name":"unpause","inputs":[],"outputs":[],"stateMutability":"nonpayable"},{"type":"event","name":"AssertionDisputed","inputs":[{"name":"marketId","type":"bytes32","indexed":true,"internalType":"bytes32"},{"name":"assertionId","type":"bytes32","indexed":true,"internalType":"bytes32"},{"name":"disputer","type":"address","indexed":true,"internalType":"address"}],"anonymous":false},{"type":"event","name":"AssertionRejected","inputs":[{"name":"marketId","type":"bytes32","indexed":true,"internalType":"bytes32"},{"name":"assertionId","type":"bytes32","indexed":true,"internalType":"bytes32"}],"anonymous":false},{"type":"event","name":"AssertionResolved","inputs":[{"name":"marketId","type":"bytes32","indexed":true,"internalType":"bytes32"},{"name":"assertionId","type":"bytes32","indexed":true,"internalType":"bytes32"},{"name":"result","type":"bool","indexed":false,"internalType":"bool"}],"anonymous":false},{"type":"event","name":"AssertionSubmitted","inputs":[{"name":"marketId","type":"bytes32","indexed":true,"internalType":"bytes32"},{"name":"assertionId","type":"bytes32","indexed":true,"internalType":"bytes32"},{"name":"asserter","type":"address","indexed":true,"internalType":"address"},{"name":"outcome","type":"string","indexed":false,"internalType":"string"}],"anonymous":false},{"type":"event","name":"MarketAsserted","inputs":[{"name":"marketId","type":"bytes32","indexed":true,"internalType":"bytes32"},{"name":"assertionId","type":"bytes32","indexed":true,"internalType":"bytes32"},{"name":"asserter","type":"address","indexed":true,"internalType":"address"},{"name":"bond","type":"uint256","indexed":false,"internalType":"uint256"}],"anonymous":false},{"type":"event","name":"MarketInitialized","inputs":[{"name":"id","type":"bytes32","indexed":false,"internalType":"bytes32"}],"anonymous":false},{"type":"event","name":"MarketResolved","inputs":[{"name":"id","type":"bytes32","indexed":false,"internalType":"bytes32"}],"anonymous":false},{"type":"event","name":"MarketSettled","inputs":[{"name":"marketId","type":"bytes32","indexed":true,"internalType":"bytes32"},{"name":"user","type":"address","indexed":true,"internalType":"address"},{"name":"payout","type":"uint256","indexed":false,"internalType":"uint256"}],"anonymous":false},{"type":"event","name":"OutcomeTokensCreated","inputs":[{"name":"marketId","type":"bytes32","indexed":true,"internalType":"bytes32"},{"name":"user","type":"address","indexed":true,"internalType":"address"},{"name":"amount","type":"uint256","indexed":false,"internalType":"uint256"}],"anonymous":false},{"type":"event","name":"OutcomeTokensRedeemed","inputs":[{"name":"marketId","type":"bytes32","indexed":true,"internalType":"bytes32"},{"name":"user","type":"address","indexed":true,"internalType":"address"},{"name":"amount","type":"uint256","indexed":false,"internalType":"uint256"}],"anonymous":false},{"type":"event","name":"RoleAdminChanged","inputs":[{"name":"role","type":"bytes32","indexed":true,"internalType":"bytes32"},{"name":"previousAdminRole","type":"bytes32","indexed":true,"internalType":"bytes32"},{"name":"newAdminRole","type":"bytes32","indexed":true,"internalType":"bytes32"}],"anonymous":false},{"type":"event","name":"RoleGranted","inputs":[{"name":"role","type":"bytes32","indexed":true,"internalType":"bytes32"},{"name":"account","type":"address","indexed":true,"internalType":"address"},{"name":"sender","type":"address","indexed":true,"internalType":"address"}],"anonymous":false},{"type":"event","name":"RoleRevoked","inputs":[{"name":"role","type":"bytes32","indexed":true,"internalType":"bytes32"},{"name":"account","type":"address","indexed":true,"internalType":"address"},{"name":"sender","type":"address","indexed":true,"internalType":"address"}],"anonymous":false}],"bytecode":{"object":"0x6101206040818152346200050857606082620073b380380380916200002582856200050d565b83398101031262000508576200003b8262000547565b9160209162000059816200005185850162000547565b930162000547565b9260019360009385855560018060a01b039081881615620004d35781169182156200049c5716958615620004675760805260a05260c0859052815163d509b01760e01b8152948190869060049082905afa9485156200040e5783956200042e575b50610100948552815161224d808201906001600160401b038211838310176200041a57908291620051468339039084f080156200040e5760e052600280546001600160a01b0319163390811790915583805284825282842090845281528183205460ff1615620003d6575b7f65d7a28e3265b37a6474929f336521b332c1681b933f6cb9f3376673440d862a808452848252828420338552825260ff8385205416156200039e575b837fe1dcbdb91df27212a29bc27177c840cf2f819ecf2187432e1fac86c2dd5dfca995868252808452848220338352845260ff85832054161562000366575b807f92a19c77d2ea87c7f81d50c74403cb2f401780f3ad919571121efe2bdb427eb194858452818152868420338552815260ff8785205416156200032e575b8484525284822081018054908390558551977fbd79b86ffe0ab8e8776151514217cd7cacd52c909f66475c3af44e129f0b00ff948492839187838da480825286822083018054908390559085838ba483825280858320015494822001558385a4614be991826200055d8339608051826113af015260a0518281816104740152818161088e015281816115ff0152818161189e01528181611b7e015281816125fc01528181612e970152818161300401528181613057015281816131060152818161318a0152818161325101526134cb015260c0518281816102a40152818161095d01528181610e1001528181610fc901528181611ca501528181612ecc01528181613035015281816130c0015281816131ef0152818161322f015281816134960152614b2e015260e0518281816110ea01528181612191015261225f015251818181610dc801526131b70152f35b85845281815286842033855281528684208260ff1982541617905533338760008051602062007393833981519152878b51a4620001e0565b86825280845284822033835284528482208160ff1982541617905533338860008051602062007393833981519152858951a4620001a1565b80845284825282842033855282528284208560ff1982541617905533338260008051602062007393833981519152878751a462000162565b82805283815281832033845281528183208460ff1982541617905533338460008051602062007393833981519152818651a462000125565b505051903d90823e3d90fd5b634e487b7160e01b86526041600452602486fd5b9080955081813d83116200045f575b6200044981836200050d565b810103126200045b57519338620000ba565b8280fd5b503d6200043d565b835162461bcd60e51b815260048101849052600e60248201526d496e76616c6964206f7261636c6560901b6044820152606490fd5b845162461bcd60e51b815260048101859052601060248201526f496e76616c69642063757272656e637960801b6044820152606490fd5b845162461bcd60e51b815260048101859052600e60248201526d24b73b30b634b2103334b73232b960911b6044820152606490fd5b600080fd5b601f909101601f19168101906001600160401b038211908210176200053157604052565b634e487b7160e01b600052604160045260246000fd5b51906001600160a01b0382168203620005085756fe608080604052600436101561001357600080fd5b600090813560e01c90816301ffc9a7146139d3575080630dfe8e5914613998578063232b956c1461396e578063248a9ca31461394257806327656890146139185780632cc52445146136325780632f2ff15d1461386257806336568abe146137c25780633f4ba83a1461377c57806347f234f61461367a57806348ea0c031461365c57806356038b0514613632578063565429a814612da4578063599807e714612d695780635c975abb14612d4357806361d027b314612d1c57806368585b4b14612cc75780636cb932a414612c8b5780637564912b14612b1c578063782b8b4614611f3f57806378fab26014611f045780638456cb5914611ea757806387573d4c14611e7d578063881268cb14611cc95780638921a61414611c8557806391d1485414611c3d5780639d2edf4614611a665780639d5bacfd14611816578063a217fddf146117fa578063aad232f4146117ba578063acd98e2914611479578063b40b78411461145b578063b4280e7514611428578063b6a6d1771461140b578063b6c835bc146113ef578063b75d4e24146113d3578063b9a3c84c1461138f578063c3c95c7b1461110e578063c45a0155146110ca578063cb91dd7214610f22578063d11a57ec14610ee7578063d410764514610eaa578063d448a4ec14610deb578063d509b01714610db0578063d547741f14610d6d578063ddfc322814610d3e578063de61ece114610d09578063e039c00e146108b2578063e5a6b10f1461086e578063e63ab1e914610833578063ec97908214610815578063ee394f3a146107a0578063f190638f1461076c5763f1b156b21461027357600080fd5b346107695760406003193601126107695760243590811515600435818403610765576001600160a01b03906102cb827f0000000000000000000000000000000000000000000000000000000000000000163314614776565b808452602092600884526040852092604051966102e788613ac9565b81855416885260018095015491868901928084521561072157825188526007875260408820911561068357848852600c87526040882054801561063f578087840155600283015481146000146104a3575086859492938985817f837ef11d47636a4f811e2327fdf2ba11faffd22847a8af0e4be0d98c3b51452d95600e9d9e61037a600a60009e9d9b01600d86016147c1565b60058401918254908161046c575b505050505060098101740100000000000000000000000000000000000000007fffffffffffffffffffffff00ffffffffffffffffffffffffffffffffffffffff825416179055557fe9146184308c5e4b8f243047cc6f81dce88e004d7980502e123b02f887ab5144828251604051908152a15b80518b52600982528a60408120555192604051908152a3855260088352604085208581550155600c815260006040842055600b81526040832060ff198154169055600d81526040832073ffffffffffffffffffffffffffffffffffffffff1981541690555260006040822055604051f35b6104989251167f0000000000000000000000000000000000000000000000000000000000000000614899565b558138808080610388565b6003830154036104f45786859492938985817f837ef11d47636a4f811e2327fdf2ba11faffd22847a8af0e4be0d98c3b51452d95600e9d9e6104ef600b60009e9d9b01600d86016147c1565b61037a565b6104fc613cf9565b8051600d84019167ffffffffffffffff821161062b57610526826105208554613bfa565b85614242565b8990601f831160011461059857948b7f837ef11d47636a4f811e2327fdf2ba11faffd22847a8af0e4be0d98c3b51452d95819e8d96600e9f95968e60009f9e9d9b828f9e9a8192899361058b575b505060001991921b9260031b1c191617905561037a565b0151915060001938610574565b838c528a8c209190601f1984168d5b8181106106165750958d9e8d96600e9f959d8760009f829f9e9c978f9e9a978a987f837ef11d47636a4f811e2327fdf2ba11faffd22847a8af0e4be0d98c3b51452d9e106105fd575b505050811b01905561037a565b015160001960f88460031b161c191690553880806105f0565b828401518555938c0193928d01928d016105a7565b60248b634e487b7160e01b81526041600452fd5b6064886040519062461bcd60e51b82526004820152600f60248201527f4d697373696e67206f7574636f6d6500000000000000000000000000000000006044820152fd5b50869750917f837ef11d47636a4f811e2327fdf2ba11faffd22847a8af0e4be0d98c3b51452d868594936000600d86600e9c839b9a98558d8a820155016106ca8154613bfa565b601f8111610703575b50558481517f936f7fa1b40587cc7ee13c174c2c786a40c76ee4a02d8bb0a61b5f9f0647efda8d604051a36103fb565b81835284832061071b91601f0160051c81019061422b565b386106d3565b6064876040519062461bcd60e51b82526004820152601160248201527f496e76616c696420617373657274696f6e0000000000000000000000000000006044820152fd5b8280fd5b80fd5b503461076957806003193601126107695761079c610788613cf9565b604051918291602083526020830190613bd5565b0390f35b503461076957602080600319360112610811576004358252600a815260408220916040518092808554928381520194835280832092905b8282106107fa5761079c856107ee81890382613b2c565b60405191829182613a8e565b8354865294850194600193840193909101906107d7565b5080fd5b50346107695780600319360112610769576020600554604051908152f35b503461076957806003193601126107695760206040517f65d7a28e3265b37a6474929f336521b332c1681b933f6cb9f3376673440d862a8152f35b503461076957806003193601126107695760206040516001600160a01b037f0000000000000000000000000000000000000000000000000000000000000000168152f35b50346107695760208060031936011261081157600435906108db60ff60025460a01c16156141b2565b6108e3614551565b7f92a19c77d2ea87c7f81d50c74403cb2f401780f3ad919571121efe2bdb427eb19182600052600192838352604060002033600052835260ff6040600020541615610b5257508084526007825260ff600960408620015460a01c16610b0e5783526009815260408320548015610aca576001600160a01b037f000000000000000000000000000000000000000000000000000000000000000016916040517f883028840000000000000000000000000000000000000000000000000000000081528260048201526102008082602481885afa8015610abf5767ffffffffffffffff9260a0928992610a92575b50500151164210610a4e5750908391813b156107655782916024839260405194859384927f4124beef00000000000000000000000000000000000000000000000000000000845260048401525af18015610a4357610a2f575b5055604051f35b610a3890613b18565b610811578138610a28565b6040513d84823e3d90fd5b6064906040519062461bcd60e51b82526004820152601160248201527f5374696c6c20696e206c6976656e6573730000000000000000000000000000006044820152fd5b610ab19250803d10610ab8575b610aa98183613b2c565b81019061497f565b38806109cf565b503d610a9f565b6040513d89823e3d90fd5b6064826040519062461bcd60e51b82526004820152600c60248201527f4e6f20617373657274696f6e00000000000000000000000000000000000000006044820152fd5b6064826040519062461bcd60e51b82526004820152601760248201527f4d61726b657420616c7265616479207265736f6c7665640000000000000000006044820152fd5b8284610b5d33614096565b92610b66614059565b90815115610cf35783820192603084538251811015610cf357607860218401536041905b808211610c8c575050610c4957610c1593610c24926048926040519687937f416363657373436f6e74726f6c3a206163636f756e742000000000000000000088860152610be0815180928a603789019101613bb2565b8401917f206973206d697373696e6720726f6c6520000000000000000000000000000000603784015251809386840190613bb2565b01036028810185520183613b2c565b610c4560405192839262461bcd60e51b845260048401526024830190613bd5565b0390fd5b6064836040519062461bcd60e51b825280600483015260248201527f537472696e67733a20686578206c656e67746820696e73756666696369656e746044820152fd5b9091600f81166010811015610cf3577f3031323334353637383961626364656600000000000000000000000000000000901a610cc88486614085565b5360041c918015610cdd576000190190610b8a565b634e487b7160e01b600052601160045260246000fd5b634e487b7160e01b600052603260045260246000fd5b50346107695760206003193601126107695760ff6009604060209360043581526007855220015460a01c166040519015158152f35b50346107695760206003193601126107695760ff60406020926004358152600b84522054166040519015158152f35b503461076957604060031936011261076957610dab600435610d8d613a73565b908084526001602052610da66001604086200154613ec8565b613fd3565b604051f35b503461076957806003193601126107695760206040517f00000000000000000000000000000000000000000000000000000000000000008152f35b50346107695760206003193601126107695760206004356001600160a01b03610e37817f0000000000000000000000000000000000000000000000000000000000000000163314614776565b818452600b835260408420600160ff198254161790556008835260408420600160405191610e6483613ac9565b83815416835201549384910152818452600d60205260408420541690604051927f143f5cb57d63f0e413d8dd9573adfd93e04dbe4f343edae5fbc97912688102368585a4f35b50346107695760206003193601126107695760408091600435815260086020522060016001600160a01b0382541691015482519182526020820152f35b503461076957806003193601126107695760206040517fe1dcbdb91df27212a29bc27177c840cf2f819ecf2187432e1fac86c2dd5dfca98152f35b50346107695760208060031936011261081157600435610f4a60ff60025460a01c16156141b2565b610f52614551565b80835260078252610f7060ff600960408620015460a01c161561472b565b80835260098252604083205491821561108657600b90838552600d8152604085203373ffffffffffffffffffffffffffffffffffffffff198254161790555260408320600160ff19825416179055826001600160a01b037f000000000000000000000000000000000000000000000000000000000000000016803b156108115781906044604051809481937fa6a22b430000000000000000000000000000000000000000000000000000000083528860048401523360248401525af1801561107b57611068575b506040519133917f143f5cb57d63f0e413d8dd9573adfd93e04dbe4f343edae5fbc97912688102368585a460018255f35b61107490939193613b18565b9138611037565b6040513d86823e3d90fd5b6064906040519062461bcd60e51b82526004820152601360248201527f4e6f2061637469766520617373657274696f6e000000000000000000000000006044820152fd5b503461076957806003193601126107695760206040516001600160a01b037f0000000000000000000000000000000000000000000000000000000000000000168152f35b503461076957602060031936011261076957604061079c9160606101c0835161113681613afb565b838152836020820152838582015283838201528360808201528360a08201528360c08201528360e08201528361010082015283610120820152836101408201528261016082015282610180820152826101a082015201526004358152600760205220600d611290604051926111aa84613afb565b8054845260018101546020850152600281015460408501526003810154606085015260048101546080850152600581015460a0850152600681015460c0850152600781015460e08501526001600160a01b0360088201541661010085015260ff60098201546001600160a01b03811661012087015260a01c1615156101408501526040516112468161123f81600a8601613c34565b0382613b2c565b6101608501526040516112608161123f81600b8601613c34565b61018085015260405161127a8161123f81600c8601613c34565b6101a085015261123f6040518094819301613c34565b6101c08201526040519182916020835280516020840152602081015160408401526040810151606084015260608101516080840152608081015160a084015260a081015160c084015260c081015160e084015260e08101516101008401526001600160a01b03610100820151166101208401526001600160a01b036101208201511661014084015261014081015115156101608401526101608101516113456101e09182610180870152610200860190613bd5565b906101c061137e61136a61018086015194601f1995868a8303016101a08b0152613bd5565b6101a08601518589830301848a0152613bd5565b930151918584030190850152613bd5565b503461076957806003193601126107695760206040516001600160a01b037f0000000000000000000000000000000000000000000000000000000000000000168152f35b5034610769578060031936011261076957602060405160788152f35b5034610769578060031936011261076957602060405160328152f35b50346107695780600319360112610769576020604051610e108152f35b5034610769576020600319360112610769576001600160a01b0360406020926004358152600d8452205416604051908152f35b503461076957806003193601126107695760206040516202a3008152f35b503461076957602080600319360112610811576004356114a160ff60025460a01c16156141b2565b6114a9614551565b808352600782526040832092600984019384546114cb60ff8260a01c166148f3565b6001600160a01b03918260088201541696604051927f70a082310000000000000000000000000000000000000000000000000000000080855233600486015288856024818d5afa948515610abf579189918794938997611781575b5060249060405198899384928352336004840152165afa948515611776578695611743575b50831580159061173a575b156116f6576040517f79cc67900000000000000000000000000000000000000000000000000000000080825233600483015260248201869052998990829060449082908b905af18015610abf5790899392916116b9575b5054604051998a523360048b015260248a01869052899160449183918991165af1801561107b5761167a575b6001809596975081015490600281015482146000146116585750509050925b61162384337f0000000000000000000000000000000000000000000000000000000000000000614899565b604051908482527fb2364c816101cd214f3d27586926c38d89d5c66bfeb373aa080a11a7317ac272863393a355604051908152f35b60030154036116685750926115f8565b906116729161404c565b821c926115f8565b8587813d83116116b2575b61168f8183613b2c565b810103126116ae576116a460019596976142f8565b50869594506115d9565b8380fd5b503d611685565b90919281813d83116116ef575b6116d08183613b2c565b810103126116eb57906116e48993926142f8565b50386115ad565b8680fd5b503d6116c6565b6064886040519062461bcd60e51b82526004820152600960248201527f4e6f20746f6b656e7300000000000000000000000000000000000000000000006044820152fd5b50841515611556565b9094508781813d831161176f575b61175b8183613b2c565b8101031261176b5751933861154b565b8580fd5b503d611751565b6040513d88823e3d90fd5b928391975080929495503d83116117b3575b61179d8183613b2c565b810103126116eb57519385929189916024611526565b503d611793565b5034610769576117c936613ccb565b91908152600a602052604081209081548310156107695760206117ec8484613ce1565b90546040519160031b1c8152f35b5034610769578060031936011261076957602090604051908152f35b50346107695761182536613ccb565b9061183860ff60025460a01c16156141b2565b611840614551565b808352602060078152604084209060088201916001600160a01b039261186a8482541615156144bb565b61188e6007600984019361188560ff865460a01c161561472b565b01544210614506565b8515611a225783906118c28730337f0000000000000000000000000000000000000000000000000000000000000000614289565b546040517f40c10f190000000000000000000000000000000000000000000000000000000080825233600483015260248201899052959093909290918591859160449183918d91165af1928315611a175784936119de575b505460405194855233600486015260248501879052849160449183918a91165af180156119d35761197b575b7f73944cdc199be3cfe9345b1156df88f1faef28fd3d7be956cf72213ce7d106e891506040519384523393a360018155604051f35b8082813d83116119cc575b6119908183613b2c565b810103126119c8576119c27f73944cdc199be3cfe9345b1156df88f1faef28fd3d7be956cf72213ce7d106e8926142f8565b50611946565b8480fd5b503d611986565b6040513d87823e3d90fd5b9283813d8311611a10575b6119f38183613b2c565b81010312611a0c57611a0584936142f8565b503861191a565b8780fd5b503d6119e9565b6040513d8a823e3d90fd5b6064836040519062461bcd60e51b82526004820152600b60248201527f5a65726f20616d6f756e740000000000000000000000000000000000000000006044820152fd5b503461076957611a7536613ccb565b90611a8860ff60025460a01c16156141b2565b611a90614551565b80835260206007815260408420906001600160a01b03918260088201541692611aba8415156144bb565b611ad56007600984019361188560ff865460a01c161561472b565b6040517f79cc67900000000000000000000000000000000000000000000000000000000080825233600483015260248201889052949092908490849060449082908c905af1928315611a17578493611c08575b505460405194855233600486015260248501879052849160449183918a91165af180156119d357611bb4575b7f7e1b7457326b2c44aea851868b9a49ffe4ae9527ae543136dea731204b99a84d9150611ba284337f0000000000000000000000000000000000000000000000000000000000000000614899565b6040519384523393a360018155604051f35b8082813d8311611c01575b611bc98183613b2c565b810103126119c857611bfb7f7e1b7457326b2c44aea851868b9a49ffe4ae9527ae543136dea731204b99a84d926142f8565b50611b54565b503d611bbf565b9283813d8311611c36575b611c1d8183613b2c565b81010312611a0c57611c2f84936142f8565b5038611b28565b503d611c13565b50346107695760406003193601126107695760ff6040602092611c5e613a73565b6004358252600185526001600160a01b038383209116825284522054166040519015158152f35b503461076957806003193601126107695760206040516001600160a01b037f0000000000000000000000000000000000000000000000000000000000000000168152f35b5034610769576020600319360112610769576004358152600760205260409020604051611cf581613afb565b815481526001820154602082015260028201546040820152600382015460608201526004820154608082015260058201549060a0810191825260068301549060c08101918252600784015460e08201526001600160a01b0392836008860154169361010094858401908152600987015492610120850192808516845261014086019460a01c60ff1615158552806040518080600a8d0190611d9591613c34565b03611da09082613b2c565b61016088019081526040519a8b611dba81600b8401613c34565b03611dc5908d613b2c565b61018089019b8c526040519889611ddf81600c8501613c34565b03611dea908b613b2c565b6101a08101998a5260405180600d81940190611e0591613c34565b03611e109083613b2c565b6101c00152519951965192519751935116935116935115159460405198888a998a528901611e3d91613bd5565b88810360208a0152611e4e91613bd5565b8781036040890152611e5f91613bd5565b946060870152608086015260a085015260c084015260e08301520390f35b50346107695760206003193601126107695760406020916004358152600c83522054604051908152f35b5034610769578060031936011261076957611ec0613d32565b740100000000000000000000000000000000000000007fffffffffffffffffffffff00ffffffffffffffffffffffffffffffffffffffff6002541617600255604051f35b503461076957806003193601126107695760206040517f92a19c77d2ea87c7f81d50c74403cb2f401780f3ad919571121efe2bdb427eb18152f35b50346107695760c06003193601126107695760043567ffffffffffffffff811161081157611f71903690600401613b6b565b60243567ffffffffffffffff811161076557611f91903690600401613b6b565b60443567ffffffffffffffff81116116ae57611fb1903690600401613b6b565b611fc360ff60025460a01c16156141b2565b3384526006602052603260408520541015612ad857825115612a9457815115612a5057805115612a0c57825160208401209180516020820120938251602084012094610e1060a435106129c857620f42406064351061298457606435600019046002116064351515166129705760643560011b6084351061292c578085146128e857600354956040513060208201523360408201528160608201524260808201528760a082015260a081528060c081011067ffffffffffffffff60c0830111176128d4578060c061209f920160405260208151910120976141fd565b60035586885260076020526001600160a01b03600860408a200154166128905761214e91602060405161211460268288516120df81878401888d01613bb2565b81017f20546f6b656e000000000000000000000000000000000000000000000000000086820152036006810184520182613b2c565b604080519586927f198e2b8a0000000000000000000000000000000000000000000000000000000084528260048501526044840190613bd5565b7f4f3100000000000000000000000000000000000000000000000000000000000084848303926003198401602487015260028152015201818c6001600160a01b037f0000000000000000000000000000000000000000000000000000000000000000165af180156128855761221c938a91612866575b5060206040516121e26026828a516120df818d888086019101613bb2565b604080519687927f198e2b8a0000000000000000000000000000000000000000000000000000000084528260048501526044840190613bd5565b7f4f3200000000000000000000000000000000000000000000000000000000000084848303926003198401602487015260028152015201818d6001600160a01b037f0000000000000000000000000000000000000000000000000000000000000000165af191821561285b576001600160a01b03948b9361282a575b508492936122a860a4354261404c565b916040519a6122b68c613afb565b8d8c528d60208d015260408c015260608b015260808a015260643560a08a015260843560c08a015260e08901521661010087015216610120850152856101408501526101608401526101808301526101a082015260405180602081011067ffffffffffffffff60208301111761281657602081016040528381526101c082015281835260076020526040832090805182556020810151600183015560408101516002830155606081015160038301556080810151600483015560a0810151600583015560c0810151600683015560e08101516007830155600882016001600160a01b036101008301511673ffffffffffffffffffffffffffffffffffffffff19825416179055600982016001600160a01b03610120830151168154907fffffffffffffffffffffff00000000000000000000000000000000000000000074ff0000000000000000000000000000000000000000610140860151151560a01b16921617179055610160810151805167ffffffffffffffff81116127285780600a85019261244c826124468654613bfa565b86614242565b602090601f83116001146127b45788926127a9575b50506000198260011b9260031b1c19161790555b610180810151805167ffffffffffffffff81116127285780600b8501926124a0826124468654613bfa565b602090601f831160011461274757889261273c575b50506000198260011b9260031b1c19161790555b6101a0810151805167ffffffffffffffff811161272857600c8401916124f3826105208554613bfa565b602090601f83116001146126bf576101c0949392918891836126b4575b50506000198260011b9260031b1c19161790555b015190815167ffffffffffffffff81116126a05793818561255860209761254f600d89970154613bfa565b600d8501614242565b8694601f821160011461263057908060409596600d938692612625575b50506000198260011b9260031b1c1916179101555b6064356125f2575b338152600685528181206125a681546141fd565b905560055481526004855220556125be6005546141fd565b6005557fc369e3f4eecc036653b32f05ee73787d1736a262de799f2ef755eeff29cbadaa82604051838152a1604051908152f35b61262060643530337f0000000000000000000000000000000000000000000000000000000000000000614289565b612592565b015190503880612575565b600d8301845287842090845b601f198416811061268657509160019160409697600d9483601f1981161061266d575b505050811b0191015561258a565b015160001960f88460031b161c1916905538808061265f565b81880151835596890196889650600190920191890161263c565b602485634e487b7160e01b81526041600452fd5b015190503880612510565b838852602088209190601f198416895b81811061271057509160019391856101c098979694106126f7575b505050811b019055612524565b015160001960f88460031b161c191690553880806126ea565b929360206001819287860151815501950193016126cf565b602486634e487b7160e01b81526041600452fd5b0151905038806124b5565b8489526020892092601f1916895b8181106127915750908460019594939210612778575b505050811b0190556124c9565b015160001960f88460031b161c1916905538808061276b565b92936020600181928786015181550195019301612755565b015190503880612461565b8489526020892092601f1916895b8181106127fe57509084600195949392106127e5575b505050811b019055612475565b015160001960f88460031b161c191690553880806127d8565b929360206001819287860151815501950193016127c2565b602484634e487b7160e01b81526041600452fd5b85935061284e9060203d602011612854575b6128468183613b2c565b81019061420c565b92612298565b503d61283c565b6040513d8c823e3d90fd5b61287f915060203d602011612854576128468183613b2c565b386121c4565b6040513d8b823e3d90fd5b606460405162461bcd60e51b815260206004820152601560248201527f4d61726b657420616c72656164792065786973747300000000000000000000006044820152fd5b602489634e487b7160e01b81526041600452fd5b606460405162461bcd60e51b815260206004820152601560248201527f4f7574636f6d657320617265207468652073616d6500000000000000000000006044820152fd5b606460405162461bcd60e51b815260206004820152601960248201527f426f6e64206d757374206265203e3d20327820726577617264000000000000006044820152fd5b602487634e487b7160e01b81526011600452fd5b606460405162461bcd60e51b815260206004820152601060248201527f52657761726420746f6f20736d616c6c000000000000000000000000000000006044820152fd5b606460405162461bcd60e51b815260206004820152600960248201527f546f6f2073686f727400000000000000000000000000000000000000000000006044820152fd5b606460405162461bcd60e51b815260206004820152601160248201527f456d707479206465736372697074696f6e0000000000000000000000000000006044820152fd5b606460405162461bcd60e51b815260206004820152601460248201527f456d707479207365636f6e64206f7574636f6d650000000000000000000000006044820152fd5b606460405162461bcd60e51b815260206004820152601360248201527f456d707479206669727374206f7574636f6d65000000000000000000000000006044820152fd5b606460405162461bcd60e51b815260206004820152601460248201527f4d61726b6574206c696d697420726561636865640000000000000000000000006044820152fd5b50346107695760206003193601126107695760043581526007602052604090208054600182015491806002810154600382015460048301546005840154600685015460078601549060088701546001600160a01b031692600988015494604051968780600a8c0190612b8d91613c34565b03612b989089613b2c565b6040519889612baa81600b8e01613c34565b03612bb5908b613b2c565b60405180600c819d0190612bc891613c34565b03612bd3908c613b2c565b60405180600d819e0190612be691613c34565b03612bf1908d613b2c565b6040519d8e809e81526020015260408d015260608c015260808b015260a08a015260c089015260e08801526101008701526001600160a01b03811661012087015260a01c60ff1615156101408601526101e0806101608701528501612c5591613bd5565b848103610180860152612c6791613bd5565b8381036101a0850152612c7991613bd5565b8281036101c084015261079c91613bd5565b5034610769576020600319360112610769576004356001600160a01b038116809103610811578160409160209352600683522054604051908152f35b50346107695760206003193601126107695761123f610788600d604061079c946004358082526007602052612d0760ff6009858520015460a01c166148f3565b81526007602052200160405192838092613c34565b503461076957806003193601126107695760206001600160a01b0360025416604051908152f35b5034610769578060031936011261076957602060ff60025460a01c166040519015158152f35b5034610769576020600319360112610769576080612d88600435614ad8565b9160405193845215156020840152151560408301526060820152f35b50346107695760406003193601126107695760243567ffffffffffffffff811161081157612dd6903690600401613b6b565b612de860ff60025460a01c16156141b2565b612df0614551565b600435825260076020526040822090612e176001600160a01b0360088401541615156144bb565b612e2660078301544210614506565b60ff600983015460a01c161580613629575b156135e5578051602082012090600283015460038401549083149081156135db575b5080156135b2575b1561356e576040517f4360af3d0000000000000000000000000000000000000000000000000000000081526001600160a01b037f00000000000000000000000000000000000000000000000000000000000000001660048201526020816024816001600160a01b037f0000000000000000000000000000000000000000000000000000000000000000165afa9081156119d357859161353c575b50600684015490808211156135345750915b60405193612f2a85612f2381600c8501613c34565b0386613b2c565b612ffc6040612f384261461b565b81519788917f4173206f662000000000000000000000000000000000000000000000000000006020840152612f77815180926020602687019101613bb2565b82017f2c206f7574636f6d653a200000000000000000000000000000000000000000006026820152875190612fb3826031830160208c01613bb2565b017f2e204465736372697074696f6e3a2000000000000000000000000000000000006031820152612fed8251809360208785019101613bb2565b01036020810188520186613b2c565b6130288430337f0000000000000000000000000000000000000000000000000000000000000000614289565b61307b6001600160a01b037f0000000000000000000000000000000000000000000000000000000000000000167f00000000000000000000000000000000000000000000000000000000000000006145a6565b8315801561345f575b156133f5576040517f095ea7b3000000000000000000000000000000000000000000000000000000006020808301919091526001600160a01b037f00000000000000000000000000000000000000000000000000000000000000001660248301526044808301879052825261316796909161312a90613104606482613b2c565b7f0000000000000000000000000000000000000000000000000000000000000000614305565b604051809781927f6457c9790000000000000000000000000000000000000000000000000000000083526101206004840152610124830190613bd5565b336024830152306044830152896064830152607860848301526001600160a01b037f00000000000000000000000000000000000000000000000000000000000000001660a48301528760c48301527f000000000000000000000000000000000000000000000000000000000000000060e4830152896101048301520381896001600160a01b037f0000000000000000000000000000000000000000000000000000000000000000165af19485156117765786956133c1575b5081906132756001600160a01b037f0000000000000000000000000000000000000000000000000000000000000000167f00000000000000000000000000000000000000000000000000000000000000006145a6565b55838552600e602052826040862055600c6020526040852055600b6020526040842060ff19815416905560043584526009602052826040852055600a60205260408420805490680100000000000000008210156127285791846132e383602098956001809896018155613ce1565b819291549060031b600019811b9283911b1691191617905560405161330781613ac9565b338152848782016004358152878652600889526001600160a01b036040872093511673ffffffffffffffffffffffffffffffffffffffff198454161783555191015584604051918783527fe6042ad6af7c8b385a8ebb34de859ffaac8545064d60dc9ba2d44d120d654dc8339380613385600435948c830190613bd5565b0390a46040519081528333917fb7e891fe21d0f5bb2e576f36618c4c1364646c921e58d6eafc2ef030fcea607f8760043592a455604051908152f35b9094506020813d6020116133ed575b816133dd60209383613b2c565b8101031261176b5751938161321f565b3d91506133d0565b608460405162461bcd60e51b815260206004820152603660248201527f5361666545524332303a20617070726f76652066726f6d206e6f6e2d7a65726f60448201527f20746f206e6f6e2d7a65726f20616c6c6f77616e6365000000000000000000006064820152fd5b506040517fdd62ed3e0000000000000000000000000000000000000000000000000000000081523060048201526001600160a01b037f00000000000000000000000000000000000000000000000000000000000000001660248201526020816044816001600160a01b037f0000000000000000000000000000000000000000000000000000000000000000165afa908115610abf578791613502575b5015613084565b90506020813d60201161352c575b8161351d60209383613b2c565b810103126116eb5751386134fb565b3d9150613510565b905091612f0e565b90506020813d602011613566575b8161355760209383613b2c565b810103126119c8575138612efc565b3d915061354a565b606460405162461bcd60e51b815260206004820152600f60248201527f496e76616c6964206f7574636f6d6500000000000000000000000000000000006044820152fd5b507fffa5c42fda42ac0bea9ca62d68dcc08a4b371f06b6e71afb99dee2ce276cbe4e8214612e62565b9050821438612e5a565b606460405162461bcd60e51b815260206004820152601c60248201527f417373657274696f6e20616374697665206f72207265736f6c766564000000006044820152fd5b50815415612e38565b50346107695760206003193601126107695760406020916004358152600983522054604051908152f35b50346107695780600319360112610769576020604051620f42408152f35b50346107695760406003193601126107695760043590602491823590600580548311613738576136aa828461460e565b93601f196136d06136ba8761493e565b966136c86040519889613b2c565b80885261493e565b01916020923684880137835b8581106136f1576040518061079c8982613a8e565b808352600484526040832054613707868361460e565b885181101561372557831b8801850152613720906141fd565b6136dc565b8985634e487b7160e01b81526032600452fd5b606485600d6040519162461bcd60e51b8352602060048401528201527f4f7574206f6620626f756e6473000000000000000000000000000000000000006044820152fd5b5034610769578060031936011261076957613795613d32565b7fffffffffffffffffffffff00ffffffffffffffffffffffffffffffffffffffff60025416600255604051f35b5034610769576040600319360112610769576137dc613a73565b336001600160a01b038216036137f857610dab90600435613fd3565b608460405162461bcd60e51b815260206004820152602f60248201527f416363657373436f6e74726f6c3a2063616e206f6e6c792072656e6f756e636560448201527f20726f6c657320666f722073656c6600000000000000000000000000000000006064820152fd5b50346107695760406003193601126107695760043561387f613a73565b81835260016020526138976001604085200154613ec8565b81835260016020526001600160a01b036040842091169081845260205260ff604084205416156138c8575b82604051f35b81835260016020526040832081845260205260408320600160ff1982541617905533917f2f8788117e7eff1d82e926ec794901d17c78024a50270940304540a733656f0d84604051a438806138c2565b50346107695760206003193601126107695760406020916004358152600e83522054604051908152f35b503461076957602060031936011261076957600160406020926004358152828452200154604051908152f35b50346107695760206003193601126107695760406020916004358152600483522054604051908152f35b503461076957806003193601126107695760206040517fffa5c42fda42ac0bea9ca62d68dcc08a4b371f06b6e71afb99dee2ce276cbe4e8152f35b905034610811576020600319360112610811576004357fffffffff00000000000000000000000000000000000000000000000000000000811680910361076557602092507f7965db0b000000000000000000000000000000000000000000000000000000008114908115613a49575b5015158152f35b7f01ffc9a70000000000000000000000000000000000000000000000000000000091501438613a42565b602435906001600160a01b0382168203613a8957565b600080fd5b6020908160408183019282815285518094520193019160005b828110613ab5575050505090565b835185529381019392810192600101613aa7565b6040810190811067ffffffffffffffff821117613ae557604052565b634e487b7160e01b600052604160045260246000fd5b6101e0810190811067ffffffffffffffff821117613ae557604052565b67ffffffffffffffff8111613ae557604052565b90601f601f19910116810190811067ffffffffffffffff821117613ae557604052565b67ffffffffffffffff8111613ae557601f01601f191660200190565b81601f82011215613a8957803590613b8282613b4f565b92613b906040519485613b2c565b82845260208383010111613a8957816000926020809301838601378301015290565b60005b838110613bc55750506000910152565b8181015183820152602001613bb5565b90601f19601f602093613bf381518092818752878088019101613bb2565b0116010190565b90600182811c92168015613c2a575b6020831014613c1457565b634e487b7160e01b600052602260045260246000fd5b91607f1691613c09565b9060009291805491613c4583613bfa565b918282526001938481169081600014613ca75750600114613c67575b50505050565b90919394506000526020928360002092846000945b838610613c93575050505001019038808080613c61565b805485870183015294019385908201613c7c565b915050602094955060ff199193501683830152151560051b01019038808080613c61565b6003196040910112613a89576004359060243590565b8054821015610cf35760005260206000200190600090565b60405190613d0682613ac9565b600c82527f556e7265736f6c7661626c6500000000000000000000000000000000000000006020830152565b3360009081527fb9cbbae02fe941283ec0eefd7b121e3bc7f89fae077b27bdd75a7fd4cf1543a8602090815260408220547f65d7a28e3265b37a6474929f336521b332c1681b933f6cb9f3376673440d862a929060019060ff1615613d975750505050565b613da033614096565b93613da9614059565b91825115613eb45784830193603085538351821015613ea05790607860218501536041915b818311613e2557505050610c4957610c1593610c24926048926040519687937f416363657373436f6e74726f6c3a206163636f756e742000000000000000000088860152610be0815180928a603789019101613bb2565b909192600f81166010811015613e8c577f3031323334353637383961626364656600000000000000000000000000000000901a613e628587614085565b5360041c928015613e7857600019019190613dce565b602482634e487b7160e01b81526011600452fd5b602483634e487b7160e01b81526032600452fd5b80634e487b7160e01b602492526032600452fd5b602484634e487b7160e01b81526032600452fd5b600081815260019060209180835260408220338352835260ff60408320541615613ef25750505050565b613efb33614096565b93613f04614059565b91825115613eb45784830193603085538351821015613ea05790607860218501536041915b818311613f8057505050610c4957610c1593610c24926048926040519687937f416363657373436f6e74726f6c3a206163636f756e742000000000000000000088860152610be0815180928a603789019101613bb2565b909192600f81166010811015613e8c577f3031323334353637383961626364656600000000000000000000000000000000901a613fbd8587614085565b5360041c928015613e7857600019019190613f29565b9060009180835260016020526001600160a01b036040842092169182845260205260ff60408420541661400557505050565b8083526001602052604083208284526020526040832060ff1981541690557ff6391f5c32d9c69d2a47ea670b442974b53935d1edc7fd64eb21e047a839171b3393604051a4565b91908201809211610cdd57565b604051906080820182811067ffffffffffffffff821117613ae557604052604282526060366020840137565b908151811015610cf3570160200190565b604051906060820182811067ffffffffffffffff821117613ae557604052602a8252602082016040368237825115610cf357603090538151600190811015610cf357607860218401536029905b8082116141375750506140f35790565b606460405162461bcd60e51b815260206004820152602060248201527f537472696e67733a20686578206c656e67746820696e73756666696369656e746044820152fd5b9091600f8116601081101561419d577f3031323334353637383961626364656600000000000000000000000000000000901a6141738486614085565b5360041c9180156141885760001901906140e3565b60246000634e487b7160e01b81526011600452fd5b60246000634e487b7160e01b81526032600452fd5b156141b957565b606460405162461bcd60e51b815260206004820152600660248201527f50617573656400000000000000000000000000000000000000000000000000006044820152fd5b6000198114610cdd5760010190565b90816020910312613a8957516001600160a01b0381168103613a895790565b818110614236575050565b6000815560010161422b565b9190601f811161425157505050565b61427d926000526020600020906020601f840160051c8301931061427f575b601f0160051c019061422b565b565b9091508190614270565b9290604051927f23b872dd0000000000000000000000000000000000000000000000000000000060208501526001600160a01b03809216602485015216604483015260648201526064815260a081019181831067ffffffffffffffff841117613ae55761427d92604052614305565b51908115158203613a8957565b6001600160a01b03169061438360405161431e81613ac9565b6020938482527f5361666545524332303a206c6f772d6c6576656c2063616c6c206661696c6564858301526000808587829751910182855af13d1561441f573d9161436883613b4f565b926143766040519485613b2c565b83523d868885013e614423565b908151806143915750505050565b828491810103126107695750816143a891016142f8565b156143b557808080613c61565b6084906040519062461bcd60e51b82526004820152602a60248201527f5361666545524332303a204552433230206f7065726174696f6e20646964206e60448201527f6f742073756363656564000000000000000000000000000000000000000000006064820152fd5b6060915b919290156144845750815115614437575090565b3b156144405790565b606460405162461bcd60e51b815260206004820152601d60248201527f416464726573733a2063616c6c20746f206e6f6e2d636f6e74726163740000006044820152fd5b8251909150156144975750805190602001fd5b610c459060405191829162461bcd60e51b8352602060048401526024830190613bd5565b156144c257565b606460405162461bcd60e51b815260206004820152601560248201527f4d61726b657420646f6573206e6f7420657869737400000000000000000000006044820152fd5b1561450d57565b606460405162461bcd60e51b815260206004820152600e60248201527f4d61726b657420657870697265640000000000000000000000000000000000006044820152fd5b600260005414614562576002600055565b606460405162461bcd60e51b815260206004820152601f60248201527f5265656e7472616e637947756172643a207265656e7472616e742063616c6c006044820152fd5b906001600160a01b03604051917f095ea7b30000000000000000000000000000000000000000000000000000000060208401521660248201526000604482015260448152608081019181831067ffffffffffffffff841117613ae55761427d92604052614305565b91908203918211610cdd57565b80156146f15780816000925b6146dd57508061463683613b4f565b926146446040519485613b2c565b808452601f1961465382613b4f565b01366020860137905b61466557505090565b60001990818101908111610cdd578092600a808204809404811184151516610cdd5761469760ff92839286029061460e565b16603001908111610cdd577fff000000000000000000000000000000000000000000000000000000000000006146d59160f81b1660001a9185614085565b53908161465c565b916146e9600a916141fd565b920480614627565b506040516146fe81613ac9565b600181527f3000000000000000000000000000000000000000000000000000000000000000602082015290565b1561473257565b606460405162461bcd60e51b815260206004820152600f60248201527f4d61726b6574207265736f6c76656400000000000000000000000000000000006044820152fd5b1561477d57565b606460405162461bcd60e51b815260206004820152600a60248201527f4e6f74206f7261636c65000000000000000000000000000000000000000000006044820152fd5b90808214614895576147d38154613bfa565b9067ffffffffffffffff8211613ae55781906147f3826124468654613bfa565b600090601f83116001146148295760009261481e575b50506000198260011b9260031b1c1916179055565b015490503880614809565b91601f1916918152602091828220908583528383209383905b82821061487c575050908460019594939210614863575b505050811b019055565b015460001960f88460031b161c19169055388080614859565b8495819295850154815560018091019601940190614842565b5050565b6040517fa9059cbb0000000000000000000000000000000000000000000000000000000060208201526001600160a01b0392909216602483015260448083019390935291815261427d916148ee606483613b2c565b614305565b156148fa57565b606460405162461bcd60e51b815260206004820152601360248201527f4d61726b6574206e6f74207265736f6c766564000000000000000000000000006044820152fd5b67ffffffffffffffff8111613ae55760051b60200190565b51906001600160a01b0382168203613a8957565b519067ffffffffffffffff82168203613a8957565b61020091819003828112613a895760405192610180928385019267ffffffffffffffff9086851082861117613ae55760a013613a8957610220860190811184821017613ae5576040526149d1816142f8565b83526149df602082016142f8565b926101a093848701526149f4604083016142f8565b906101c09182880152614a0960608401614956565b936101e09485890152614a1e60808501614956565b908801528652614a3060a08301614956565b6020870152614a4160c0830161496a565b6040870152614a5260e083016142f8565b60608701526101009081830151906001600160a01b0382168203613a8957614ad195614ac79260808a015261012090614a8c82870161496a565b60a08b015261014094614aa08688016142f8565b60c08c0152610160998a88015160e08d0152870151908b0152850151908901528301614956565b9086015201614956565b9082015290565b600090815260096020526040812054918215614ba857604051917f883028840000000000000000000000000000000000000000000000000000000083528360048401526102009283816024816001600160a01b037f0000000000000000000000000000000000000000000000000000000000000000165afa938415610a43578294614b89575b505060ff604067ffffffffffffffff60a0606087015115159601511692868152600b60205220541691565b614ba0929450803d10610ab857610aa98183613b2c565b913880614b5e565b90809250918091819056fea2646970667358221220829d46c4ea78c1185e5ee4ecdb9b00e43b648fe26be7eef91e3318a29a86995964736f6c634300081000336080806040523461001657612231908161001c8239f35b600080fdfe6040608081526004803610156200001557600080fd5b600091823560e01c63198e2b8a146200002d57600080fd5b34620001bc57807ffffffffffffffffffffffffffffffffffffffffffffffffffffffffffffffffc360112620001bc5767ffffffffffffffff823581811162000228576200007f903690850162000270565b9060243581811162000224576200009a903690860162000270565b835192611edd80850193841185851017620001f857620000e3859493620000d460129489946200031f8939606087526060870190620002dc565b908582036020870152620002dc565b920152039084f08015620001ee5773ffffffffffffffffffffffffffffffffffffffff1691823b15620001ca5781517f983b2d560000000000000000000000000000000000000000000000000000000081523382820152848160248183885af18015620001e457620001ce575b50823b15620001ca578151907ff44637ba0000000000000000000000000000000000000000000000000000000082523390820152838160248183875af18015620001c057620001a4575b6020838351908152f35b620001b084916200022c565b620001bc57826200019a565b8280fd5b82513d86823e3d90fd5b8380fd5b620001dc909491946200022c565b923862000150565b83513d87823e3d90fd5b81513d85823e3d90fd5b6024886041897f4e487b7100000000000000000000000000000000000000000000000000000000835252fd5b8580fd5b8480fd5b67ffffffffffffffff81116200024157604052565b7f4e487b7100000000000000000000000000000000000000000000000000000000600052604160045260246000fd5b81601f82011215620002d75780359067ffffffffffffffff92838311620002415760405193601f19603f81601f870116011685019085821090821117620002415760405282845260208383010111620002d757816000926020809301838601378301015290565b600080fd5b919082519283825260005b84811062000309575050601f19601f8460006020809697860101520116010190565b602081830181015184830182015201620002e756fe604060808152346200074f5762001edd803803806200001e8162000774565b92833981016060828203126200074f5781516001600160401b03908181116200074f57826200004f9185016200079a565b602092838501518381116200074f5786916200006d9187016200079a565b9401519160ff928381168091036200074f578251918083116200064f576003908154936001958686811c9616801562000744575b898710146200072e578190601f96878111620006d8575b508990878311600114620006715760009262000665575b505060001982851b1c191690861b1782555b87519081116200064f5760049788548681811c9116801562000644575b898210146200062f57908186849311620005d9575b508890868311600114620005725760009262000566575b505060001982841b1c191690851b1787555b60ff1991826006541617600655600080526005928387526200017286868b6000200154166200016b816200080c565b156200082d565b60008052838752600289600020868101878682541617905560008155013315620005175780546001600160a01b0319163317905560008080528488528990208501548616620001c1816200080c565b15620004bf57620001d162000754565b6000815285600052848852620001f487878c6000200154166200016b816200080c565b85600052848852828a600020878101600287825416179055600081550190866000905b6200041b575b5050506000805283875285858a6000200154166200023b816200080c565b15620003c3576200024b62000754565b916000835260026000528488526200027087878c6000200154166200016b816200080c565b600260005284885289600020868101600286825416179055600081550191856000905b62000320575b505050505060008052835284600020015416620002b6816200080c565b15620002cb57825161164290816200087b8239f35b608492519162461bcd60e51b83528201526038602482015260008051602062001ebd83398151915260448201527f20746f206d616e61676520612073686172656420726f6c6500000000000000006064820152fd5b8151811015620003bd5780861b82018901516001600160a01b031680156200037c576000528389528a60002087868254161790556000198114620003675786018662000293565b60118a634e487b7160e01b6000525260246000fd5b60648b858c8f519262461bcd60e51b845283015260248201527f43616e6e6f74206164642030783020746f20612073686172656420726f6c65006044820152fd5b62000299565b885162461bcd60e51b81528089018890526038602482015260008051602062001ebd83398151915260448201527f20746f206d616e61676520612073686172656420726f6c6500000000000000006064820152608490fd5b8151811015620004b95780871b82018a01516001600160a01b031680156200047757600052828a528b60002088878254161790556000198114620004625787018762000217565b60118b634e487b7160e01b6000525260246000fd5b5060648b858c8f519262461bcd60e51b845283015260248201527f43616e6e6f74206164642030783020746f20612073686172656420726f6c65006044820152fd5b6200021d565b885162461bcd60e51b8152808901889052603c602482015260008051602062001ebd83398151915260448201527f20746f206d616e61676520616e206578636c757369766520726f6c65000000006064820152608490fd5b895162461bcd60e51b8152808a01899052602360248201527f43616e6e6f742073657420616e206578636c757369766520726f6c6520746f2060448201526203078360ec1b6064820152608490fd5b0151905038806200012a565b90879350601f198316918b6000528a6000209260005b8c828210620005c25750508411620005a9575b505050811b0187556200013c565b015160001983861b60f8161c191690553880806200059b565b8385015186558b9790950194938401930162000588565b90915089600052886000208680850160051c8201928b861062000625575b918991869594930160051c01915b8281106200061557505062000113565b6000815585945089910162000605565b92508192620005f7565b60228a634e487b7160e01b6000525260246000fd5b90607f1690620000fe565b634e487b7160e01b600052604160045260246000fd5b015190503880620000cf565b90889350601f19831691866000528b6000209260005b8d828210620006c15750508411620006a8575b505050811b018255620000e1565b015160001983871b60f8161c191690553880806200069a565b8385015186558c9790950194938401930162000687565b90915084600052896000208780850160051c8201928c861062000724575b918a91869594930160051c01915b82811062000714575050620000b8565b600081558594508a910162000704565b92508192620006f6565b634e487b7160e01b600052602260045260246000fd5b95607f1695620000a1565b600080fd5b60405190602082016001600160401b038111838210176200064f57604052565b6040519190601f01601f191682016001600160401b038111838210176200064f57604052565b919080601f840112156200074f5782516001600160401b0381116200064f57602090620007d0601f8201601f1916830162000774565b928184528282870101116200074f5760005b818110620007f857508260009394955001015290565b8581018301518482018401528201620007e2565b600311156200081757565b634e487b7160e01b600052602160045260246000fd5b156200083557565b60405162461bcd60e51b815260206004820152601e60248201527f43616e6e6f74207573652061207072652d6578697374696e6720726f6c6500006044820152606490fdfe608060408181526004908136101561001657600080fd5b600092833560e01c90816306fdde0314610d2057508063095ea7b314610cf657806318160ddd14610cd757806323b872dd14610bee578063313ce56714610bcc5780633950935114610b7d57806340c10f1914610aad57806342966c6814610a805780636be7658b146109c557806370a082311461098f57806373cc802a146108ca57806374d0a676146107d457806379cc67901461079f5780637cdc1cb91461076e57806395d89b411461063f578063983b2d5614610590578063a457c2d7146104d0578063a9059cbb1461049f578063aaa14ca3146103fb578063ab3545e5146103a9578063d97c05be14610274578063dd62ed3e146102275763f44637ba1461012157600080fd5b346102235760208060031936011261021f5761013b610e4d565b906002855260058152610162600260ff600186892001541661015c81611189565b1461159b565b600285526005815261018061017b84872054339061149c565b61152b565b60028552600581526001600160a01b0360038487200192169384156101de575083855252808320600160ff198254161790555190339060027f63502af7324ff6db91ab38f8236a648727d9385ea6c782073dd4882d8a61a48f8585a4f35b60649184519162461bcd60e51b8352820152601f60248201527f43616e6e6f74206164642030783020746f20612073686172656420726f6c65006044820152fd5b8380fd5b8280fd5b83823461027057806003193601126102705780602092610245610e4d565b61024d610e68565b6001600160a01b0391821683526001865283832091168252845220549051908152f35b5080fd5b5034610223578060031936011261022357813590610290610e68565b82855260056020526102b5600160ff818589200154166102af81611189565b146114ba565b82855260056020526102ce61017b83872054339061149c565b82855260056020526001600160a01b0360028387200191169384156103405750837fffffffffffffffffffffffff0000000000000000000000000000000000000000825416179055519133917f3b855c56b409b671c7112789d022675eb639d0bcb8896f1b6197c132f799e7468585a4f35b608490602084519162461bcd60e51b8352820152602360248201527f43616e6e6f742073657420616e206578636c757369766520726f6c6520746f2060448201527f30783000000000000000000000000000000000000000000000000000000000006064820152fd5b509034610223576020600319360112610223576002826020946001600160a01b039335808252600587526103ea600160ff818686200154166102af81611189565b815260058652200154169051908152f35b5090346102235760206003193601126102235735908183526005602052610430600260ff600184872001541661015c81611189565b61044261043d338461149c565b6111a9565b818352600560205261047333600383862001906001600160a01b0316600052602052604060002060ff198154169055565b5190339033907feb3e33034c392e69263b04ec0fa376dc12784a41b6676c7f31b936cbc0fbb5af8585a4f35b8382346102705780600319360112610270576020906104c96104bf610e4d565b6024359033610ea1565b5160018152f35b50913461058d578260031936011261058d576104ea610e4d565b91836024359233815260016020528181206001600160a01b0386168252602052205490828210610524576020856104c98585038733611055565b608490602086519162461bcd60e51b8352820152602560248201527f45524332303a2064656372656173656420616c6c6f77616e63652062656c6f7760448201527f207a65726f0000000000000000000000000000000000000000000000000000006064820152fd5b80fd5b5034610223576020908160031936011261021f576105ac610e4d565b600192838652600581526105cd600260ff86868a2001541661015c81611189565b838652600581526105e561017b84882054339061149c565b838652600581526001600160a01b0360038488200192169485156101de5750848652528084208260ff19825416179055519133917f63502af7324ff6db91ab38f8236a648727d9385ea6c782073dd4882d8a61a48f8585a4f35b50829034610270578160031936011261027057805190828454600181811c90808316928315610764575b602093848410811461075157838852879594939291811561073257506001146106d4575b50505003601f01601f191682019267ffffffffffffffff8411838510176106c157508291826106bd925282610e05565b0390f35b80604186634e487b7160e01b6024945252fd5b8888529193925086917f8a35acfbc15ff81a39ae7d344fd709f28e8600b4aa8c65c6b64bfe7fe36bd19b5b82841061071c5750505090601f1992601f9282010191819361068d565b80548885018701528794509285019281016106ff565b60ff1916848701525050151560051b830101905081601f601f1961068d565b60248960228c634e487b7160e01b835252fd5b91607f1691610669565b50823461058d578160031936011261058d575061079660209261078f610e68565b903561149c565b90519015158152f35b8382346102705780600319360112610270576020906104c96107bf610e4d565b6107cb61043d33611442565b6024359061121a565b50346102235780600319360112610223578135906107f0610e68565b8285526005602052610810600260ff600185892001541661015c81611189565b828552600560205261082961017b83872054339061149c565b82855260056020526001600160a01b0360038387200191169384156108875750838552602052808420600160ff19825416179055519133917f63502af7324ff6db91ab38f8236a648727d9385ea6c782073dd4882d8a61a48f8585a4f35b606490602084519162461bcd60e51b8352820152601f60248201527f43616e6e6f74206164642030783020746f20612073686172656420726f6c65006044820152fd5b5034610223576020600319360112610223576108e4610e4d565b8380526005602052610903600160ff818588200154166102af81611189565b838052600560205261091c61017b83862054339061149c565b83805260056020526001600160a01b0360028386200191169283156103405750827fffffffffffffffffffffffff000000000000000000000000000000000000000082541617905551903390837f3b855c56b409b671c7112789d022675eb639d0bcb8896f1b6197c132f799e7468185a4f35b83823461027057602060031936011261027057806020926001600160a01b036109b6610e4d565b16815280845220549051908152f35b50903461022357816003193601126102235735906109e1610e68565b908284526005602052610a02600260ff600184882001541661015c81611189565b8284526005602052610a1b61017b82862054339061149c565b8284526005602052610a4c82600383872001906001600160a01b0316600052602052604060002060ff198154169055565b51916001600160a01b03339216907feb3e33034c392e69263b04ec0fa376dc12784a41b6676c7f31b936cbc0fbb5af8585a4f35b50903461022357602060031936011261022357610aaa90610aa361043d33611442565b353361121a565b51f35b50823461058d578160031936011261058d57610ac7610e4d565b906001600160a01b0360243592610ae061043d33611356565b16918215610b3a57602080955081610b1b7fddf252ad1be2c89b69c2b068fc378daa952ba7f163c4a11628f55a4df523b3ef93600254610e7e565b6002558484528382528584208181540190558551908152a35160018152f35b606485602086519162461bcd60e51b8352820152601f60248201527f45524332303a206d696e7420746f20746865207a65726f2061646472657373006044820152fd5b8382346102705780600319360112610270576104c9602092610bc5610ba0610e4d565b91338152600186528481206001600160a01b0384168252865284602435912054610e7e565b9033611055565b83823461027057816003193601126102705760209060ff600654169051908152f35b5091903461027057606060031936011261027057610c0a610e4d565b610c12610e68565b9184604435946001600160a01b038416815260016020528181203382526020522054907fffffffffffffffffffffffffffffffffffffffffffffffffffffffffffffffff8203610c6b575b6020866104c9878787610ea1565b848210610c945750918391610c89602096956104c995033383611055565b919394819350610c5d565b606490602087519162461bcd60e51b8352820152601d60248201527f45524332303a20696e73756666696369656e7420616c6c6f77616e63650000006044820152fd5b8382346102705781600319360112610270576020906002549051908152f35b8382346102705780600319360112610270576020906104c9610d16610e4d565b6024359033611055565b905083913461022357826003193601126102235782600354600181811c90808316928315610dfb575b60209384841081146107515783885287959493929181156107325750600114610d9c5750505003601f01601f191682019267ffffffffffffffff8411838510176106c157508291826106bd925282610e05565b600388529193925086917fc2575a0e9e593c00f959f8c92f12db2869c3395a3b0502d05e2516446f71f85b5b828410610de55750505090601f1992601f9282010191819361068d565b8054888501870152879450928501928101610dc8565b91607f1691610d49565b60208082528251818301819052939260005b858110610e3957505050601f19601f8460006040809697860101520116010190565b818101830151848201604001528201610e17565b600435906001600160a01b0382168203610e6357565b600080fd5b602435906001600160a01b0382168203610e6357565b91908201809211610e8b57565b634e487b7160e01b600052601160045260246000fd5b6001600160a01b03809116918215610feb5716918215610f8157600082815280602052604081205491808310610f1757604082827fddf252ad1be2c89b69c2b068fc378daa952ba7f163c4a11628f55a4df523b3ef958760209652828652038282205586815220818154019055604051908152a3565b608460405162461bcd60e51b815260206004820152602660248201527f45524332303a207472616e7366657220616d6f756e742065786365656473206260448201527f616c616e636500000000000000000000000000000000000000000000000000006064820152fd5b608460405162461bcd60e51b815260206004820152602360248201527f45524332303a207472616e7366657220746f20746865207a65726f206164647260448201527f65737300000000000000000000000000000000000000000000000000000000006064820152fd5b608460405162461bcd60e51b815260206004820152602560248201527f45524332303a207472616e736665722066726f6d20746865207a65726f20616460448201527f64726573730000000000000000000000000000000000000000000000000000006064820152fd5b6001600160a01b0380911691821561112057169182156110b65760207f8c5be1e5ebec7d5bd14f71427d1e84f3dd0314c0f7b2291e5b200ac8c7c3b925918360005260018252604060002085600052825280604060002055604051908152a3565b608460405162461bcd60e51b815260206004820152602260248201527f45524332303a20617070726f766520746f20746865207a65726f20616464726560448201527f73730000000000000000000000000000000000000000000000000000000000006064820152fd5b608460405162461bcd60e51b8152602060048201526024808201527f45524332303a20617070726f76652066726f6d20746865207a65726f2061646460448201527f72657373000000000000000000000000000000000000000000000000000000006064820152fd5b6003111561119357565b634e487b7160e01b600052602160045260246000fd5b156111b057565b608460405162461bcd60e51b815260206004820152602260248201527f53656e64657220646f6573206e6f7420686f6c6420726571756972656420726f60448201527f6c650000000000000000000000000000000000000000000000000000000000006064820152fd5b6001600160a01b031680156112ec5760009181835282602052604083205481811061128257817fddf252ad1be2c89b69c2b068fc378daa952ba7f163c4a11628f55a4df523b3ef926020928587528684520360408620558060025403600255604051908152a3565b608460405162461bcd60e51b815260206004820152602260248201527f45524332303a206275726e20616d6f756e7420657863656564732062616c616e60448201527f63650000000000000000000000000000000000000000000000000000000000006064820152fd5b608460405162461bcd60e51b815260206004820152602160248201527f45524332303a206275726e2066726f6d20746865207a65726f2061646472657360448201527f73000000000000000000000000000000000000000000000000000000000000006064820152fd5b600160005260056020527f1471eb6eb2c5e789fc3de43f8ce62938c7d1836ec861730447e2ada8fd81017c547f1471eb6eb2c5e789fc3de43f8ce62938c7d1836ec861730447e2ada8fd81017b9060ff166113b081611189565b600181036113ce5750600201546001600160a01b0391821691161490565b806113da600292611189565b1461142357606460405162461bcd60e51b815260206004820152600e60248201527f496e76616c696420726f6c6549640000000000000000000000000000000000006044820152fd5b6001600160a01b03600392166000520160205260ff6040600020541690565b600260005260056020527f89832631fb3c3307a103ba2c84ab569c64d6182a18893dcd163f0f1c2090733b547f89832631fb3c3307a103ba2c84ab569c64d6182a18893dcd163f0f1c2090733a9060ff166113b081611189565b6000526005602052604060002060ff6001820154166113b081611189565b156114c157565b608460405162461bcd60e51b815260206004820152602f60248201527f4d7573742062652063616c6c6564206f6e20616e20696e697469616c697a656460448201527f204578636c757369766520726f6c6500000000000000000000000000000000006064820152fd5b1561153257565b608460405162461bcd60e51b8152602060048201526024808201527f43616e206f6e6c792062652063616c6c6564206279206120726f6c65206d616e60448201527f61676572000000000000000000000000000000000000000000000000000000006064820152fd5b156115a257565b608460405162461bcd60e51b815260206004820152602c60248201527f4d7573742062652063616c6c6564206f6e20616e20696e697469616c697a656460448201527f2053686172656420726f6c6500000000000000000000000000000000000000006064820152fdfea264697066735822122027091828c144b78df01495e5235e90996073b63efe248c63f7d976b80738777e64736f6c63430008100033417474656d7074656420746f2075736520616e20696e76616c696420726f6c65a26469706673582212205df0328883a04621b63c870a531ecf62d7caa821955ca6d712e1d10ea40ad3ed64736f6c634300081000332f8788117e7eff1d82e926ec794901d17c78024a50270940304540a733656f0d","linkReferences":{}},"methodIdentifiers":{"DEFAULT_ADMIN_ROLE()":"a217fddf","DISPUTE_EXTENSION()":"b40b7841","MAX_MARKETS_PER_USER()":"b6c835bc","MIN_DURATION()":"b6a6d177","MIN_REWARD()":"48ea0c03","PAUSER_ROLE()":"e63ab1e9","RESOLVER_ROLE()":"78fab260","TREASURY_ROLE()":"d11a57ec","UNRESOLVABLE()":"f190638f","UNRESOLVABLE_HASH()":"0dfe8e59","assertMarket(bytes32,string)":"565429a8","assertedMarkets(bytes32)":"d4107645","assertionBond(bytes32)":"27656890","assertionDisputedCallback(bytes32)":"d448a4ec","assertionLiveness()":"b75d4e24","assertionOutcomes(bytes32)":"87573d4c","assertionResolvedCallback(bytes32,bool)":"f1b156b2","createOutcomeTokens(bytes32,uint256)":"9d5bacfd","currency()":"e5a6b10f","defaultIdentifier()":"d509b017","disputeAssertion(bytes32)":"cb91dd72","disputedAssertions(bytes32)":"ddfc3228","disputerOf(bytes32)":"b4280e75","factory()":"c45a0155","finder()":"b9a3c84c","getAllMarkets(uint256,uint256)":"47f234f6","getAssertionData(bytes32)":"599807e7","getAssertionForMarket(bytes32)":"56038b05","getMarket(bytes32)":"c3c95c7b","getMarketAssertions(bytes32)":"ee394f3a","getMarketDetails(bytes32)":"881268cb","getRoleAdmin(bytes32)":"248a9ca3","getWinningOutcome(bytes32)":"68585b4b","grantRole(bytes32,address)":"2f2ff15d","hasRole(bytes32,address)":"91d14854","initializeMarket(string,string,string,uint256,uint256,uint256)":"782b8b46","isResolved(bytes32)":"de61ece1","marketAssertions(bytes32,uint256)":"aad232f4","marketCount()":"ec979082","marketList(uint256)":"232b956c","marketToAssertion(bytes32)":"2cc52445","markets(bytes32)":"7564912b","marketsCreated(address)":"6cb932a4","oo()":"8921a614","pause()":"8456cb59","paused()":"5c975abb","redeemOutcomeTokens(bytes32,uint256)":"9d2edf46","renounceRole(bytes32,address)":"36568abe","revokeRole(bytes32,address)":"d547741f","settleMarket(bytes32)":"e039c00e","settleOutcomeTokens(bytes32)":"acd98e29","supportsInterface(bytes4)":"01ffc9a7","treasury()":"61d027b3","unpause()":"3f4ba83a"},"id":72}