{"abi":[{"type":"constructor","inputs":[{"name":"_finder","type":"address","internalType":"address"},{"name":"_currency","type":"address","internalType":"address"},{"name":"_oo","type":"address","internalType":"address"}],"stateMutability":"nonpayable"},{"type":"function","name":"assertMarket","inputs":[{"name":"id","type":"bytes32","internalType":"bytes32"},{"name":"out","type":"string","internalType":"string"}],"outputs":[{"name":"aid","type":"bytes32","internalType":"bytes32"}],"stateMutability":"nonpayable"},{"type":"function","name":"assertedMarkets","inputs":[{"name":"","type":"bytes32","internalType":"bytes32"}],"outputs":[{"name":"asserter","type":"address","internalType":"address"},{"name":"marketId","type":"bytes32","internalType":"bytes32"}],"stateMutability":"view"},{"type":"function","name":"assertionDisputedCallback","inputs":[{"name":"","type":"bytes32","internalType":"bytes32"}],"outputs":[],"stateMutability":"nonpayable"},{"type":"function","name":"assertionLiveness","inputs":[],"outputs":[{"name":"","type":"uint64","internalType":"uint64"}],"stateMutability":"view"},{"type":"function","name":"assertionResolvedCallback","inputs":[{"name":"aid","type":"bytes32","internalType":"bytes32"},{"name":"ok","type":"bool","internalType":"bool"}],"outputs":[],"stateMutability":"nonpayable"},{"type":"function","name":"createOutcomeTokens","inputs":[{"name":"id","type":"bytes32","internalType":"bytes32"},{"name":"amt","type":"uint256","internalType":"uint256"}],"outputs":[],"stateMutability":"nonpayable"},{"type":"function","name":"currency","inputs":[],"outputs":[{"name":"","type":"address","internalType":"contract IERC20"}],"stateMutability":"view"},{"type":"function","name":"defaultIdentifier","inputs":[],"outputs":[{"name":"","type":"bytes32","internalType":"bytes32"}],"stateMutability":"view"},{"type":"function","name":"factory","inputs":[],"outputs":[{"name":"","type":"address","internalType":"contract TokenFactory"}],"stateMutability":"view"},{"type":"function","name":"finder","inputs":[],"outputs":[{"name":"","type":"address","internalType":"address"}],"stateMutability":"view"},{"type":"function","name":"getAllMarkets","inputs":[],"outputs":[{"name":"","type":"bytes32[]","internalType":"bytes32[]"}],"stateMutability":"view"},{"type":"function","name":"getAssertionData","inputs":[{"name":"marketId","type":"bytes32","internalType":"bytes32"}],"outputs":[{"name":"assertionId","type":"bytes32","internalType":"bytes32"},{"name":"settled","type":"bool","internalType":"bool"},{"name":"disputed","type":"bool","internalType":"bool"},{"name":"expirationTime","type":"uint256","internalType":"uint256"}],"stateMutability":"view"},{"type":"function","name":"getAssertionForMarket","inputs":[{"name":"marketId","type":"bytes32","internalType":"bytes32"}],"outputs":[{"name":"","type":"bytes32","internalType":"bytes32"}],"stateMutability":"view"},{"type":"function","name":"getMarket","inputs":[{"name":"id","type":"bytes32","internalType":"bytes32"}],"outputs":[{"name":"","type":"tuple","internalType":"struct MyPredictionMarket.Market","components":[{"name":"resolved","type":"bool","internalType":"bool"},{"name":"assertedOutcomeId","type":"bytes32","internalType":"bytes32"},{"name":"finalOutcomeId","type":"bytes32","internalType":"bytes32"},{"name":"outcome1Token","type":"address","internalType":"contract ExpandedERC20"},{"name":"outcome2Token","type":"address","internalType":"contract ExpandedERC20"},{"name":"reward","type":"uint256","internalType":"uint256"},{"name":"requiredBond","type":"uint256","internalType":"uint256"},{"name":"expirationTime","type":"uint256","internalType":"uint256"},{"name":"outcome1","type":"bytes","internalType":"bytes"},{"name":"outcome2","type":"bytes","internalType":"bytes"},{"name":"description","type":"bytes","internalType":"bytes"}]}],"stateMutability":"view"},{"type":"function","name":"getMarketDetails","inputs":[{"name":"id","type":"bytes32","internalType":"bytes32"}],"outputs":[{"name":"outcome1","type":"string","internalType":"string"},{"name":"outcome2","type":"string","internalType":"string"},{"name":"description","type":"string","internalType":"string"},{"name":"reward","type":"uint256","internalType":"uint256"},{"name":"requiredBond","type":"uint256","internalType":"uint256"},{"name":"outcome1Token","type":"address","internalType":"address"},{"name":"outcome2Token","type":"address","internalType":"address"},{"name":"resolved","type":"bool","internalType":"bool"}],"stateMutability":"view"},{"type":"function","name":"getMarketStatus","inputs":[{"name":"id","type":"bytes32","internalType":"bytes32"}],"outputs":[{"name":"resolved","type":"bool","internalType":"bool"},{"name":"assertedOutcome","type":"bytes32","internalType":"bytes32"},{"name":"finalOutcome","type":"bytes32","internalType":"bytes32"}],"stateMutability":"view"},{"type":"function","name":"initializeMarket","inputs":[{"name":"o1","type":"string","internalType":"string"},{"name":"o2","type":"string","internalType":"string"},{"name":"d","type":"string","internalType":"string"},{"name":"reward","type":"uint256","internalType":"uint256"},{"name":"bond","type":"uint256","internalType":"uint256"},{"name":"duration","type":"uint256","internalType":"uint256"}],"outputs":[{"name":"id","type":"bytes32","internalType":"bytes32"}],"stateMutability":"nonpayable"},{"type":"function","name":"marketIds","inputs":[{"name":"","type":"uint256","internalType":"uint256"}],"outputs":[{"name":"","type":"bytes32","internalType":"bytes32"}],"stateMutability":"view"},{"type":"function","name":"marketToAssertion","inputs":[{"name":"","type":"bytes32","internalType":"bytes32"}],"outputs":[{"name":"","type":"bytes32","internalType":"bytes32"}],"stateMutability":"view"},{"type":"function","name":"markets","inputs":[{"name":"","type":"bytes32","internalType":"bytes32"}],"outputs":[{"name":"resolved","type":"bool","internalType":"bool"},{"name":"assertedOutcomeId","type":"bytes32","internalType":"bytes32"},{"name":"finalOutcomeId","type":"bytes32","internalType":"bytes32"},{"name":"outcome1Token","type":"address","internalType":"contract ExpandedERC20"},{"name":"outcome2Token","type":"address","internalType":"contract ExpandedERC20"},{"name":"reward","type":"uint256","internalType":"uint256"},{"name":"requiredBond","type":"uint256","internalType":"uint256"},{"name":"expirationTime","type":"uint256","internalType":"uint256"},{"name":"outcome1","type":"bytes","internalType":"bytes"},{"name":"outcome2","type":"bytes","internalType":"bytes"},{"name":"description","type":"bytes","internalType":"bytes"}],"stateMutability":"view"},{"type":"function","name":"oo","inputs":[],"outputs":[{"name":"","type":"address","internalType":"contract OptimisticOracleV3Interface"}],"stateMutability":"view"},{"type":"function","name":"pause","inputs":[],"outputs":[],"stateMutability":"nonpayable"},{"type":"function","name":"paused","inputs":[],"outputs":[{"name":"","type":"bool","internalType":"bool"}],"stateMutability":"view"},{"type":"function","name":"redeemOutcomeTokens","inputs":[{"name":"id","type":"bytes32","internalType":"bytes32"},{"name":"amt","type":"uint256","internalType":"uint256"}],"outputs":[],"stateMutability":"nonpayable"},{"type":"function","name":"settleOutcomeTokens","inputs":[{"name":"id","type":"bytes32","internalType":"bytes32"}],"outputs":[{"name":"out","type":"uint256","internalType":"uint256"}],"stateMutability":"nonpayable"},{"type":"function","name":"treasury","inputs":[],"outputs":[{"name":"","type":"address","internalType":"address"}],"stateMutability":"view"},{"type":"function","name":"unpause","inputs":[],"outputs":[],"stateMutability":"nonpayable"},{"type":"function","name":"unresolvable","inputs":[],"outputs":[{"name":"","type":"bytes","internalType":"bytes"}],"stateMutability":"view"},{"type":"event","name":"AssertionRejected","inputs":[{"name":"marketId","type":"bytes32","indexed":true,"internalType":"bytes32"},{"name":"assertionId","type":"bytes32","indexed":true,"internalType":"bytes32"}],"anonymous":false},{"type":"event","name":"AssertionSubmitted","inputs":[{"name":"marketId","type":"bytes32","indexed":true,"internalType":"bytes32"},{"name":"assertionId","type":"bytes32","indexed":true,"internalType":"bytes32"},{"name":"asserter","type":"address","indexed":true,"internalType":"address"},{"name":"outcome","type":"string","indexed":false,"internalType":"string"}],"anonymous":false},{"type":"event","name":"MarketInitialized","inputs":[{"name":"id","type":"bytes32","indexed":false,"internalType":"bytes32"}],"anonymous":false},{"type":"event","name":"MarketResolved","inputs":[{"name":"id","type":"bytes32","indexed":false,"internalType":"bytes32"}],"anonymous":false},{"type":"event","name":"OutcomeTokensCreated","inputs":[{"name":"marketId","type":"bytes32","indexed":true,"internalType":"bytes32"},{"name":"user","type":"address","indexed":true,"internalType":"address"},{"name":"amount","type":"uint256","indexed":false,"internalType":"uint256"}],"anonymous":false},{"type":"event","name":"OutcomeTokensRedeemed","inputs":[{"name":"marketId","type":"bytes32","indexed":true,"internalType":"bytes32"},{"name":"user","type":"address","indexed":true,"internalType":"address"},{"name":"amount","type":"uint256","indexed":false,"internalType":"uint256"}],"anonymous":false}],"bytecode":{"object":"0x610120604081815234620002d857606082620055b68038038091620000258285620002dd565b833981010312620002d8576200003b8262000317565b9160209262000059836200005186850162000317565b930162000317565b60016000908155926001600160a01b039083821615620002a35781169182156200026c5716918215620002375760805260a05260c0819052825163d509b01760e01b8152908490829060049082905afa9384156200022d578294620001f3575b5050610100928352815161224d808201906001600160401b03821183831017620001df57908291620033698339039082f0908115620001d4575060e052600180546001600160a01b031916331790555161303c91826200032d833960805182610626015260a051828181610268015281816103360152818161097001528181610b9801528181610e5a015281816116c101528181611dd501528181611f3501528181611fdf0152818161206d015281816120f5015261234f015260c05182818161017c01528181610f3b01528181611e0a01528181611f8e015281816120270152818161215b0152818161231a0152612de9015260e051828181610406015281816112f901526113c801525181818161037201526121210152f35b8251903d90823e3d90fd5b634e487b7160e01b84526041600452602484fd5b9080929450813d831162000225575b6200020e8183620002dd565b81010312620002215751913880620000b9565b8280fd5b503d62000202565b83513d84823e3d90fd5b845162461bcd60e51b815260048101879052600e60248201526d496e76616c6964206f7261636c6560901b6044820152606490fd5b855162461bcd60e51b815260048101889052601060248201526f496e76616c69642063757272656e637960801b6044820152606490fd5b855162461bcd60e51b815260048101889052600e60248201526d24b73b30b634b2103334b73232b960911b6044820152606490fd5b600080fd5b601f909101601f19168101906001600160401b038211908210176200030157604052565b634e487b7160e01b600052604160045260246000fd5b51906001600160a01b0382168203620002d85756fe6080604052600436101561001257600080fd5b60003560e01c80630880c65a146125935780632cc52445146125185780633f4ba83a1461254457806356038b0514612518578063565429a814611cc2578063599807e714611c885780635c975abb14611c6257806361d027b314611c3b5780637564912b14611b55578063779a968314611b1d578063782b8b46146110ff5780638456cb5914611099578063881268cb14610f5f5780638921a61414610f1b5780639d2edf4614610d485780639d5bacfd14610b38578063acd98e29146107dd578063b0772d0b14610727578063b2b7558a14610667578063b75d4e241461064a578063b9a3c84c14610606578063c3c95c7b1461042a578063c45a0155146103e6578063d4107645146103a8578063d448a4ec14610395578063d509b0171461035a578063e5a6b10f146103165763f1b156b21461015057600080fd5b34610311576040600319360112610311576004356024358015158103610311576001600160a01b0390817f00000000000000000000000000000000000000000000000000000000000000001633036102cd5782600693600052602092600584526040600020906001604051926101c5846125c3565b82815416845201549385830194808652600052600486526040600020906000146102945780600160ff1960059354161781556001810154600282015501549081610260575b5050507fe9146184308c5e4b8f243047cc6f81dce88e004d7980502e123b02f887ab5144838351604051908152a15b60005260058252600060016040822082815501555160005252600060408120556000604051f35b61028c9251167f0000000000000000000000000000000000000000000000000000000000000000612cc4565b38808061020a565b600092506001915001558082517f936f7fa1b40587cc7ee13c174c2c786a40c76ee4a02d8bb0a61b5f9f0647efda6000604051a3610239565b606460405162461bcd60e51b815260206004820152600a60248201527f4e6f74206f7261636c65000000000000000000000000000000000000000000006044820152fd5b600080fd5b346103115760006003193601126103115760206040516001600160a01b037f0000000000000000000000000000000000000000000000000000000000000000168152f35b346103115760006003193601126103115760206040517f00000000000000000000000000000000000000000000000000000000000000008152f35b3461031157602060031936011261031157005b3461031157602060031936011261031157600435600052600560205260408060002060016001600160a01b0382541691015482519182526020820152f35b346103115760006003193601126103115760206040516001600160a01b037f0000000000000000000000000000000000000000000000000000000000000000168152f35b3461031157602060031936011261031157606061014060405161044c816125df565b60008152600060208201526000604082015260008382015260006080820152600060a0820152600060c0820152600060e08201528261010082015282610120820152015260043560005260046020526106026040600020610540600a604051926104b5846125df565b60ff8154161515845260018101546020850152600281015460408501526001600160a01b0360038201541660608501526001600160a01b036004820154166080850152600581015460a0850152600681015460c0850152600781015460e08501526105226008820161273d565b6101008501526105346009820161273d565b6101208501520161273d565b6101408201526040519182916020835280511515602084015260208101516040840152604081015160608401526001600160a01b0360608201511660808401526001600160a01b0360808201511660a084015260a081015160c084015260c081015160e084015260e08101516101008401526101008101516105d16101609182610120870152610180860190612697565b906101406105f161012085015193601f19948589830301848a0152612697565b930151918584030190850152612697565b0390f35b346103115760006003193601126103115760206040516001600160a01b037f0000000000000000000000000000000000000000000000000000000000000000168152f35b34610311576000600319360112610311576020604051611c208152f35b346103115760206003193601126103115760043560005260046020526060604060002060405190610697826125df565b60ff8154161515825260018101549160208101928352610707600a600284015493604084019485526001600160a01b0380600383015416888601526004820154166080850152600581015460a0850152600681015460c0850152600781015460e08501526105226008820161273d565b610140820152511515915190519060405192835260208301526040820152f35b3461031157600060031936011261031157604051806003548083526020809301809160036000527fc2575a0e9e593c00f959f8c92f12db2869c3395a3b0502d05e2516446f71f85b9060005b868282106107c9578686610789828803836125fc565b604051928392818401908285525180915260408401929160005b8281106107b257505050500390f35b8351855286955093810193928101926001016107a3565b835485529093019260019283019201610773565b34610311576020806003193601126103115761080160ff60015460a01c1615612892565b61080f600160005414612d1e565b600260005560043560005260048152604060002060ff81541615610af4576001600160a01b0390816003820154166040517f70a0823100000000000000000000000000000000000000000000000000000000908181523360048201528581602481865afa9081156109d557600091610ac7575b50600484019386868654169360246040518096819382523360048301525afa9283156109d557600093610a98575b508115801590610a8f575b15610a4b576002810154906108d26008820161273d565b8051908901208203610a1a57505080945b6040517f79cc6790000000000000000000000000000000000000000000000000000000008082523360048301526024820193909352938790859060449082906000905af19384156109d55787946109e1575b50935460405191825233600483015260248201929092529283911681600081604481015b03925af180156109d5576109a1575b5061099481337f0000000000000000000000000000000000000000000000000000000000000000612cc4565b6001600055604051908152f35b8281813d83116109ce575b6109b681836125fc565b81010312610311576109c79061299d565b5082610968565b503d6109ac565b6040513d6000823e3d90fd5b9384813d8311610a13575b6109f681836125fc565b810103126103115761095994610a0c889561299d565b5094610935565b503d6109ec565b6009610a26910161273d565b80519088012003610a385781946108e3565b610a428282612921565b60011c946108e3565b6064876040519062461bcd60e51b82526004820152600960248201527f4e6f20746f6b656e7300000000000000000000000000000000000000000000006044820152fd5b508215156108bb565b9092508681813d8311610ac0575b610ab081836125fc565b81010312610311575191876108b0565b503d610aa6565b90508581813d8311610aed575b610ade81836125fc565b81010312610311575186610882565b503d610ad4565b6064826040519062461bcd60e51b82526004820152601360248201527f4d61726b6574206e6f74207265736f6c766564000000000000000000000000006044820152fd5b3461031157610b4636612831565b90610b5960ff60015460a01c1615612892565b8060005260206004815260406000209060038201916001600160a01b0392610b85848254161515612b68565b60ff825416610d04578390610bbc8730337f000000000000000000000000000000000000000000000000000000000000000061292e565b546040517f40c10f19000000000000000000000000000000000000000000000000000000008082523360048301526024820189905295909390929091859185916044918391600091165af19283156109d5578493610ccb575b5060049081015460405195865233918601919091526024850187905284916044918391600091165af180156109d557610c77575b7f73944cdc199be3cfe9345b1156df88f1faef28fd3d7be956cf72213ce7d106e891506040519384523393a3005b8082813d8311610cc4575b610c8c81836125fc565b8101031261031157610cbe7f73944cdc199be3cfe9345b1156df88f1faef28fd3d7be956cf72213ce7d106e89261299d565b50610c49565b503d610c82565b909281813d8311610cfd575b610ce181836125fc565b81010312610311578392610cf660049261299d565b5090610c15565b503d610cd7565b6064836040519062461bcd60e51b82526004820152601760248201527f4d61726b657420616c7265616479207265736f6c7665640000000000000000006044820152fd5b3461031157610d5636612831565b90610d6960ff60015460a01c1615612892565b610d77600160005414612d1e565b6002600055806000526020600481526040600020906001600160a01b03918260038201541692610da8841515612b68565b6040517f79cc67900000000000000000000000000000000000000000000000000000000080825233600483015260248201889052949092908490849060449082906000905af19283156109d5578493610ee2575b5060049081015460405195865233918601919091526024850187905284916044918391600091165af180156109d557610e8e575b7f7e1b7457326b2c44aea851868b9a49ffe4ae9527ae543136dea731204b99a84d9150610e7e84337f0000000000000000000000000000000000000000000000000000000000000000612cc4565b6040519384523393a36001600055005b8082813d8311610edb575b610ea381836125fc565b8101031261031157610ed57f7e1b7457326b2c44aea851868b9a49ffe4ae9527ae543136dea731204b99a84d9261299d565b50610e30565b503d610e99565b909281813d8311610f14575b610ef881836125fc565b81010312610311578392610f0d60049261299d565b5090610dfc565b503d610eee565b346103115760006003193601126103115760206040516001600160a01b037f0000000000000000000000000000000000000000000000000000000000000000168152f35b34610311576020600319360112610311576004356000526004602052604060002080604051610f8d816125df565b60ff8254161515815260018201546020820152600282015460408201526001600160a01b0390816003840154169060608101918252826004850154166080820190815260058501549260a0830193845261107b60068701549560c08501968752600788015460e086015261106d61100660088a0161273d565b9180611031600a61102260096101009e8f8d019889520161273d565b9d6101208b019e8f520161273d565b93846101408a0152519b5198519951955116955116955115159661105f6040519b8b8d9c8d528c0190612697565b908a820360208c0152612697565b9088820360408a0152612697565b946060870152608086015260a085015260c084015260e08301520390f35b3461031157600060031936011261031157740100000000000000000000000000000000000000007fffffffffffffffffffffff00ffffffffffffffffffffffffffffffffffffffff6001546110f86001600160a01b0382163314612847565b1617600155005b346103115760c06003193601126103115760043567ffffffffffffffff8111610311576111309036906004016126bc565b60243567ffffffffffffffff8111610311576111509036906004016126bc565b9060443567ffffffffffffffff8111610311576111719036906004016126bc565b61118360ff60015460a01c1615612892565b815115611ad957825115611a9557805115611a51576201518060a43510611a0d578151602083012083516020850120146119c957600254926112046040516020810190338252608060408201526111fb816111e160a0820188612697565b42606083015289608083015203601f1981018352826125fc565b519020946128dd565b6002558360005260046020526001600160a01b0360036040600020015416611985576112b592602060405161127b602682855161124681878401888a01612674565b81017f20546f6b656e0000000000000000000000000000000000000000000000000000868201520360068101845201826125fc565b604080519687927f198e2b8a0000000000000000000000000000000000000000000000000000000084528260048501526044840190612697565b7f4f31000000000000000000000000000000000000000000000000000000000000848483039260031984016024870152600281520152018160006001600160a01b037f0000000000000000000000000000000000000000000000000000000000000000165af19384156109d557600094611964575b50611384602060405161134a602682875161124681878401888c01612674565b604080519384927f198e2b8a0000000000000000000000000000000000000000000000000000000084528260048501526044840190612697565b7f4f32000000000000000000000000000000000000000000000000000000000000848483039260031984016024870152600281520152018160006001600160a01b037f0000000000000000000000000000000000000000000000000000000000000000165af19081156109d557600091611935575b506001600160a01b0361140e60a43542612921565b91816040519761141d896125df565b60008952600060208a0152600060408a015216606088015216608086015260643560a086015260843560c086015260e08501526101008401526101208301526101408201528160005260046020526040600020918151151560ff60ff1985541691161783556020820151600184015560408201516002840155600383016001600160a01b03606084015116907fffffffffffffffffffffffff0000000000000000000000000000000000000000918282541617905560048401906001600160a01b036080850151169082541617905560a0820151600584015560c0820151600684015560e0820151600784015561010082015192835167ffffffffffffffff81116116a15761152f6008830154612703565b601f81116118ee575b506020601f821160011461187f578192939495600092611874575b50506000198260011b9260031b1c19161760088201555b61012083015192835167ffffffffffffffff81116116a15761158f6009840154612703565b601f811161182d575b506020601f82116001146117b95781906101409495966000926117ae575b50506000198260011b9260031b1c19161760098401555b015180519067ffffffffffffffff82116116a1576115ee600a840154612703565b601f8111611763575b50602090601f83116001146116f557600a9291600091836116ea575b50506000198260011b9260031b1c1916179101555b6064356116b7575b60035490680100000000000000008210156116a15780611658836001602095016003556127e4565b819291549060031b600019811b9283911b169119161790557fc369e3f4eecc036653b32f05ee73787d1736a262de799f2ef755eeff29cbadaa82604051838152a1604051908152f35b634e487b7160e01b600052604160045260246000fd5b6116e560643530337f000000000000000000000000000000000000000000000000000000000000000061292e565b611630565b015190508580611613565b90601f19831691600a850160005260206000209260005b81811061174b5750916001939185600a969410611732575b505050811b01910155611628565b015160001960f88460031b161c19169055858080611724565b9293602060018192878601518155019501930161170c565b600a84016000526020600020601f840160051c810191602085106117a4575b601f0160051c01905b81811061179857506115f7565b6000815560010161178b565b9091508190611782565b0151905086806115b6565b6009840160005260206000209560005b601f1984168110611815575095829161014095969783601f1960019616106117fc575b505050811b0160098401556115cd565b015160001960f88460031b161c191690558680806117ec565b828201518855600190970196602092830192016117c9565b600984016000526020600020601f830160051c81016020841061186d575b601f830160051c82018110611861575050611598565b6000815560010161184b565b508061184b565b015190508580611553565b6008830160005260206000209060005b601f19841681106118d6575060019394959683601f198116106118bd575b505050811b01600882015561156a565b015160001960f88460031b161c191690558580806118ad565b9091602060018192858b01518155019301910161188f565b600883016000526020600020601f830160051c81016020841061192e575b601f830160051c82018110611922575050611538565b6000815560010161190c565b508061190c565b611957915060203d60201161195d575b61194f81836125fc565b810190612902565b866113f9565b503d611945565b61197e91945060203d60201161195d5761194f81836125fc565b928561132a565b606460405162461bcd60e51b815260206004820152601560248201527f4d61726b657420616c72656164792065786973747300000000000000000000006044820152fd5b606460405162461bcd60e51b815260206004820152601560248201527f4f7574636f6d657320617265207468652073616d6500000000000000000000006044820152fd5b606460405162461bcd60e51b815260206004820152600960248201527f546f6f2073686f727400000000000000000000000000000000000000000000006044820152fd5b606460405162461bcd60e51b815260206004820152601160248201527f456d707479206465736372697074696f6e0000000000000000000000000000006044820152fd5b606460405162461bcd60e51b815260206004820152601460248201527f456d707479207365636f6e64206f7574636f6d650000000000000000000000006044820152fd5b606460405162461bcd60e51b815260206004820152601360248201527f456d707479206669727374206f7574636f6d65000000000000000000000000006044820152fd5b346103115760206003193601126103115760043560035481101561031157611b466020916127e4565b90549060031b1c604051908152f35b346103115760206003193601126103115760043560005260046020526020604060002061060260ff82541691611c2c600182015491611c1d60028201546001600160a01b0380600385015416906004850154166005850154600686015491600787015493611bc56008890161273d565b95611bde600a611bd760098c0161273d565b9a0161273d565b9a6040519e8f9e8f9015158152015260408d015260608c015260808b015260a08a015260c089015260e088015261016080610100890152870190612697565b90858203610120870152612697565b90838203610140850152612697565b346103115760006003193601126103115760206001600160a01b0360015416604051908152f35b3461031157600060031936011261031157602060ff60015460a01c166040519015158152f35b34610311576020600319360112610311576080611ca6600435612d92565b9160405193845215156020840152151560408301526060820152f35b346103115760406003193601126103115760243567ffffffffffffffff811161031157611cf39036906004016126bc565b611d0560ff60015460a01c1615612892565b6004356000526004602052604060002090611d2e6001600160a01b036003840154161515612b68565b60ff8254166124d45760078201544210156124905760018201805461244c578151602083012090611d616008850161273d565b60208151910120611d746009860161273d565b6020815191012090611d8461263b565b60208151910120908414918215612442575b508115612438575b50156123f457556040517f4360af3d0000000000000000000000000000000000000000000000000000000081526001600160a01b037f00000000000000000000000000000000000000000000000000000000000000001660048201526020816024816001600160a01b037f0000000000000000000000000000000000000000000000000000000000000000165afa9081156109d5576000916123c1575b50600a611e5b916006850154908082116000146123b95750935b0161273d565b611f2d6040611e6942612bb3565b81519384917f4173206f662000000000000000000000000000000000000000000000000000006020840152611ea8815180926020602687019101612674565b82017f2c206f7574636f6d653a200000000000000000000000000000000000000000006026820152865190611ee4826031830160208b01612674565b017f2e204465736372697074696f6e3a2000000000000000000000000000000000006031820152611f1e8251809360208785019101612674565b010360208101845201826125fc565b611f598330337f000000000000000000000000000000000000000000000000000000000000000061292e565b6040517f095ea7b300000000000000000000000000000000000000000000000000000000908160208201526001600160a01b037f00000000000000000000000000000000000000000000000000000000000000001660248201526000604482015260448152608081019080821067ffffffffffffffff8311176116a157612003916040527f00000000000000000000000000000000000000000000000000000000000000006129aa565b831580156122e3575b15612279576040516020808201929092526001600160a01b037f00000000000000000000000000000000000000000000000000000000000000001660248201526044808201869052815290916120cf916120919061206b6064826125fc565b7f00000000000000000000000000000000000000000000000000000000000000006129aa565b60405194859283927f6457c9790000000000000000000000000000000000000000000000000000000084526101206004850152610124840190612697565b9033602484015230604484015260006064840152611c2060848401526001600160a01b037f00000000000000000000000000000000000000000000000000000000000000001660a484015260c48301527f000000000000000000000000000000000000000000000000000000000000000060e48301526000610104830152038160006001600160a01b037f0000000000000000000000000000000000000000000000000000000000000000165af19081156109d557600091612244575b6020925060043560005260068352816040600020556040516121ad816125c3565b3381526001848201600435815284600052600586526001600160a01b0360406000209351167fffffffffffffffffffffffff00000000000000000000000000000000000000008454161783555191015581604051918483527fe6042ad6af7c8b385a8ebb34de859ffaac8545064d60dc9ba2d44d120d654dc83393806122396004359489830190612697565b0390a4604051908152f35b90506020823d602011612271575b8161225f602093836125fc565b8101031261031157602091519061218c565b3d9150612252565b608460405162461bcd60e51b815260206004820152603660248201527f5361666545524332303a20617070726f76652066726f6d206e6f6e2d7a65726f60448201527f20746f206e6f6e2d7a65726f20616c6c6f77616e6365000000000000000000006064820152fd5b506040517fdd62ed3e0000000000000000000000000000000000000000000000000000000081523060048201526001600160a01b037f00000000000000000000000000000000000000000000000000000000000000001660248201526020816044816001600160a01b037f0000000000000000000000000000000000000000000000000000000000000000165afa9081156109d557600091612387575b501561200c565b90506020813d6020116123b1575b816123a2602093836125fc565b81010312610311575185612380565b3d9150612395565b905093611e55565b90506020813d6020116123ec575b816123dc602093836125fc565b810103126103115751600a611e3b565b3d91506123cf565b606460405162461bcd60e51b815260206004820152600f60248201527f496e76616c6964206f7574636f6d6500000000000000000000000000000000006044820152fd5b9050821485611d9e565b8414915086611d96565b606460405162461bcd60e51b815260206004820152601c60248201527f417373657274696f6e20616374697665206f72207265736f6c766564000000006044820152fd5b606460405162461bcd60e51b815260206004820152600e60248201527f4d61726b657420657870697265640000000000000000000000000000000000006044820152fd5b606460405162461bcd60e51b815260206004820152601060248201527f417373657274696f6e20616374697665000000000000000000000000000000006044820152fd5b346103115760206003193601126103115760043560005260066020526020604060002054604051908152f35b34610311576000600319360112610311577fffffffffffffffffffffff00ffffffffffffffffffffffffffffffffffffffff60015461258d6001600160a01b0382163314612847565b16600155005b34610311576000600319360112610311576106026125af61263b565b604051918291602083526020830190612697565b6040810190811067ffffffffffffffff8211176116a157604052565b610160810190811067ffffffffffffffff8211176116a157604052565b90601f601f19910116810190811067ffffffffffffffff8211176116a157604052565b67ffffffffffffffff81116116a157601f01601f191660200190565b60405190612648826125c3565b600c82527f556e7265736f6c7661626c6500000000000000000000000000000000000000006020830152565b60005b8381106126875750506000910152565b8181015183820152602001612677565b90601f19601f6020936126b581518092818752878088019101612674565b0116010190565b81601f82011215610311578035906126d38261261f565b926126e160405194856125fc565b8284526020838301011161031157816000926020809301838601378301015290565b90600182811c92168015612733575b602083101461271d57565b634e487b7160e01b600052602260045260246000fd5b91607f1691612712565b906040519182600082549261275184612703565b9081845260019485811690816000146127c0575060011461277d575b505061277b925003836125fc565b565b9093915060005260209081600020936000915b8183106127a857505061277b9350820101388061276d565b85548884018501529485019487945091830191612790565b905061277b95506020935060ff1991501682840152151560051b820101388061276d565b60035481101561281b5760036000527fc2575a0e9e593c00f959f8c92f12db2869c3395a3b0502d05e2516446f71f85b0190600090565b634e487b7160e01b600052603260045260246000fd5b6003196040910112610311576004359060243590565b1561284e57565b606460405162461bcd60e51b815260206004820152600c60248201527f4e6f7420747265617375727900000000000000000000000000000000000000006044820152fd5b1561289957565b606460405162461bcd60e51b815260206004820152600660248201527f50617573656400000000000000000000000000000000000000000000000000006044820152fd5b60001981146128ec5760010190565b634e487b7160e01b600052601160045260246000fd5b9081602091031261031157516001600160a01b03811681036103115790565b919082018092116128ec57565b9290604051927f23b872dd0000000000000000000000000000000000000000000000000000000060208501526001600160a01b03809216602485015216604483015260648201526064815260a081019181831067ffffffffffffffff8411176116a15761277b926040526129aa565b5190811515820361031157565b6001600160a01b031690612a286040516129c3816125c3565b6020938482527f5361666545524332303a206c6f772d6c6576656c2063616c6c206661696c6564858301526000808587829751910182855af13d15612ac8573d91612a0d8361261f565b92612a1b60405194856125fc565b83523d868885013e612acc565b90815180612a37575b50505050565b82849181010312612ac5575081612a4e910161299d565b15612a5b57808080612a31565b6084906040519062461bcd60e51b82526004820152602a60248201527f5361666545524332303a204552433230206f7065726174696f6e20646964206e60448201527f6f742073756363656564000000000000000000000000000000000000000000006064820152fd5b80fd5b6060915b91929015612b2d5750815115612ae0575090565b3b15612ae95790565b606460405162461bcd60e51b815260206004820152601d60248201527f416464726573733a2063616c6c20746f206e6f6e2d636f6e74726163740000006044820152fd5b825190915015612b405750805190602001fd5b612b649060405191829162461bcd60e51b8352602060048401526024830190612697565b0390fd5b15612b6f57565b606460405162461bcd60e51b815260206004820152601560248201527f4d61726b657420646f6573206e6f7420657869737400000000000000000000006044820152fd5b8015612c8a5780816000925b612c76575080612bce8361261f565b92612bdc60405194856125fc565b808452601f19612beb8261261f565b01366020860137915b612bfd57505090565b81600019918284019384116128ec5783600a8083048095048111851515166128ec57840282039182116128ec5760ff8092166030019182116128ec578551111561281b5760f81b7fff000000000000000000000000000000000000000000000000000000000000001660001a908401601f015380612bf4565b91612c82600a916128dd565b920480612bbf565b50604051612c97816125c3565b600181527f3000000000000000000000000000000000000000000000000000000000000000602082015290565b6040517fa9059cbb0000000000000000000000000000000000000000000000000000000060208201526001600160a01b0392909216602483015260448083019390935291815261277b91612d196064836125fc565b6129aa565b15612d2557565b606460405162461bcd60e51b815260206004820152600a60248201527f5265656e7472616e6379000000000000000000000000000000000000000000006044820152fd5b51906001600160a01b038216820361031157565b519067ffffffffffffffff8216820361031157565b6000908152600660205260409182822054928315612ffa5780517f883028840000000000000000000000000000000000000000000000000000000081528460048201526102006001600160a01b03918181602481867f0000000000000000000000000000000000000000000000000000000000000000165afa958615612fef578096612e48575b505050505060608201511567ffffffffffffffff60a0821594015116908142119081612e43575091565b905091565b9082819394959697503d8511612fe8575b612e6381836125fc565b810103838112612fe457855195610180958688019267ffffffffffffffff9089851082861117612fd05760a013612fcc57610220890190811184821017612fb8578252612eaf8561299d565b8352612ebd6020860161299d565b916101a092838a0152612ed181870161299d565b936101c094858b0152612ee660608801612d69565b976101e098898c0152612efb60808901612d69565b908b01528952612f0d60a08701612d69565b60208a0152612f1e60c08701612d7d565b90890152612f2e60e0860161299d565b606089015261010093848601519182168203612ac557506080880152612fa994939291612f9f9161012090612f64828701612d7d565b60a08b015261014094612f7886880161299d565b60c08c0152610160998a88015160e08d0152870151908b0152850151908901528301612d69565b9086015201612d69565b90820152903880808080612e19565b602485634e487b7160e01b81526041600452fd5b8480fd5b602486634e487b7160e01b81526041600452fd5b5080fd5b503d612e59565b8451903d90823e3d90fd5b5090809250918091819056fea26469706673582212201963fb56c50bc20f2d3b69059184a2fd9ee0ef8ae8f6d40a7cf23f4333b4883264736f6c634300081000336080806040523461001657612231908161001c8239f35b600080fdfe6040608081526004803610156200001557600080fd5b600091823560e01c63198e2b8a146200002d57600080fd5b34620001bc57807ffffffffffffffffffffffffffffffffffffffffffffffffffffffffffffffffc360112620001bc5767ffffffffffffffff823581811162000228576200007f903690850162000270565b9060243581811162000224576200009a903690860162000270565b835192611edd80850193841185851017620001f857620000e3859493620000d460129489946200031f8939606087526060870190620002dc565b908582036020870152620002dc565b920152039084f08015620001ee5773ffffffffffffffffffffffffffffffffffffffff1691823b15620001ca5781517f983b2d560000000000000000000000000000000000000000000000000000000081523382820152848160248183885af18015620001e457620001ce575b50823b15620001ca578151907ff44637ba0000000000000000000000000000000000000000000000000000000082523390820152838160248183875af18015620001c057620001a4575b6020838351908152f35b620001b084916200022c565b620001bc57826200019a565b8280fd5b82513d86823e3d90fd5b8380fd5b620001dc909491946200022c565b923862000150565b83513d87823e3d90fd5b81513d85823e3d90fd5b6024886041897f4e487b7100000000000000000000000000000000000000000000000000000000835252fd5b8580fd5b8480fd5b67ffffffffffffffff81116200024157604052565b7f4e487b7100000000000000000000000000000000000000000000000000000000600052604160045260246000fd5b81601f82011215620002d75780359067ffffffffffffffff92838311620002415760405193601f19603f81601f870116011685019085821090821117620002415760405282845260208383010111620002d757816000926020809301838601378301015290565b600080fd5b919082519283825260005b84811062000309575050601f19601f8460006020809697860101520116010190565b602081830181015184830182015201620002e756fe604060808152346200074f5762001edd803803806200001e8162000774565b92833981016060828203126200074f5781516001600160401b03908181116200074f57826200004f9185016200079a565b602092838501518381116200074f5786916200006d9187016200079a565b9401519160ff928381168091036200074f578251918083116200064f576003908154936001958686811c9616801562000744575b898710146200072e578190601f96878111620006d8575b508990878311600114620006715760009262000665575b505060001982851b1c191690861b1782555b87519081116200064f5760049788548681811c9116801562000644575b898210146200062f57908186849311620005d9575b508890868311600114620005725760009262000566575b505060001982841b1c191690851b1787555b60ff1991826006541617600655600080526005928387526200017286868b6000200154166200016b816200080c565b156200082d565b60008052838752600289600020868101878682541617905560008155013315620005175780546001600160a01b0319163317905560008080528488528990208501548616620001c1816200080c565b15620004bf57620001d162000754565b6000815285600052848852620001f487878c6000200154166200016b816200080c565b85600052848852828a600020878101600287825416179055600081550190866000905b6200041b575b5050506000805283875285858a6000200154166200023b816200080c565b15620003c3576200024b62000754565b916000835260026000528488526200027087878c6000200154166200016b816200080c565b600260005284885289600020868101600286825416179055600081550191856000905b62000320575b505050505060008052835284600020015416620002b6816200080c565b15620002cb57825161164290816200087b8239f35b608492519162461bcd60e51b83528201526038602482015260008051602062001ebd83398151915260448201527f20746f206d616e61676520612073686172656420726f6c6500000000000000006064820152fd5b8151811015620003bd5780861b82018901516001600160a01b031680156200037c576000528389528a60002087868254161790556000198114620003675786018662000293565b60118a634e487b7160e01b6000525260246000fd5b60648b858c8f519262461bcd60e51b845283015260248201527f43616e6e6f74206164642030783020746f20612073686172656420726f6c65006044820152fd5b62000299565b885162461bcd60e51b81528089018890526038602482015260008051602062001ebd83398151915260448201527f20746f206d616e61676520612073686172656420726f6c6500000000000000006064820152608490fd5b8151811015620004b95780871b82018a01516001600160a01b031680156200047757600052828a528b60002088878254161790556000198114620004625787018762000217565b60118b634e487b7160e01b6000525260246000fd5b5060648b858c8f519262461bcd60e51b845283015260248201527f43616e6e6f74206164642030783020746f20612073686172656420726f6c65006044820152fd5b6200021d565b885162461bcd60e51b8152808901889052603c602482015260008051602062001ebd83398151915260448201527f20746f206d616e61676520616e206578636c757369766520726f6c65000000006064820152608490fd5b895162461bcd60e51b8152808a01899052602360248201527f43616e6e6f742073657420616e206578636c757369766520726f6c6520746f2060448201526203078360ec1b6064820152608490fd5b0151905038806200012a565b90879350601f198316918b6000528a6000209260005b8c828210620005c25750508411620005a9575b505050811b0187556200013c565b015160001983861b60f8161c191690553880806200059b565b8385015186558b9790950194938401930162000588565b90915089600052886000208680850160051c8201928b861062000625575b918991869594930160051c01915b8281106200061557505062000113565b6000815585945089910162000605565b92508192620005f7565b60228a634e487b7160e01b6000525260246000fd5b90607f1690620000fe565b634e487b7160e01b600052604160045260246000fd5b015190503880620000cf565b90889350601f19831691866000528b6000209260005b8d828210620006c15750508411620006a8575b505050811b018255620000e1565b015160001983871b60f8161c191690553880806200069a565b8385015186558c9790950194938401930162000687565b90915084600052896000208780850160051c8201928c861062000724575b918a91869594930160051c01915b82811062000714575050620000b8565b600081558594508a910162000704565b92508192620006f6565b634e487b7160e01b600052602260045260246000fd5b95607f1695620000a1565b600080fd5b60405190602082016001600160401b038111838210176200064f57604052565b6040519190601f01601f191682016001600160401b038111838210176200064f57604052565b919080601f840112156200074f5782516001600160401b0381116200064f57602090620007d0601f8201601f1916830162000774565b928184528282870101116200074f5760005b818110620007f857508260009394955001015290565b8581018301518482018401528201620007e2565b600311156200081757565b634e487b7160e01b600052602160045260246000fd5b156200083557565b60405162461bcd60e51b815260206004820152601e60248201527f43616e6e6f74207573652061207072652d6578697374696e6720726f6c6500006044820152606490fdfe608060408181526004908136101561001657600080fd5b600092833560e01c90816306fdde0314610d2057508063095ea7b314610cf657806318160ddd14610cd757806323b872dd14610bee578063313ce56714610bcc5780633950935114610b7d57806340c10f1914610aad57806342966c6814610a805780636be7658b146109c557806370a082311461098f57806373cc802a146108ca57806374d0a676146107d457806379cc67901461079f5780637cdc1cb91461076e57806395d89b411461063f578063983b2d5614610590578063a457c2d7146104d0578063a9059cbb1461049f578063aaa14ca3146103fb578063ab3545e5146103a9578063d97c05be14610274578063dd62ed3e146102275763f44637ba1461012157600080fd5b346102235760208060031936011261021f5761013b610e4d565b906002855260058152610162600260ff600186892001541661015c81611189565b1461159b565b600285526005815261018061017b84872054339061149c565b61152b565b60028552600581526001600160a01b0360038487200192169384156101de575083855252808320600160ff198254161790555190339060027f63502af7324ff6db91ab38f8236a648727d9385ea6c782073dd4882d8a61a48f8585a4f35b60649184519162461bcd60e51b8352820152601f60248201527f43616e6e6f74206164642030783020746f20612073686172656420726f6c65006044820152fd5b8380fd5b8280fd5b83823461027057806003193601126102705780602092610245610e4d565b61024d610e68565b6001600160a01b0391821683526001865283832091168252845220549051908152f35b5080fd5b5034610223578060031936011261022357813590610290610e68565b82855260056020526102b5600160ff818589200154166102af81611189565b146114ba565b82855260056020526102ce61017b83872054339061149c565b82855260056020526001600160a01b0360028387200191169384156103405750837fffffffffffffffffffffffff0000000000000000000000000000000000000000825416179055519133917f3b855c56b409b671c7112789d022675eb639d0bcb8896f1b6197c132f799e7468585a4f35b608490602084519162461bcd60e51b8352820152602360248201527f43616e6e6f742073657420616e206578636c757369766520726f6c6520746f2060448201527f30783000000000000000000000000000000000000000000000000000000000006064820152fd5b509034610223576020600319360112610223576002826020946001600160a01b039335808252600587526103ea600160ff818686200154166102af81611189565b815260058652200154169051908152f35b5090346102235760206003193601126102235735908183526005602052610430600260ff600184872001541661015c81611189565b61044261043d338461149c565b6111a9565b818352600560205261047333600383862001906001600160a01b0316600052602052604060002060ff198154169055565b5190339033907feb3e33034c392e69263b04ec0fa376dc12784a41b6676c7f31b936cbc0fbb5af8585a4f35b8382346102705780600319360112610270576020906104c96104bf610e4d565b6024359033610ea1565b5160018152f35b50913461058d578260031936011261058d576104ea610e4d565b91836024359233815260016020528181206001600160a01b0386168252602052205490828210610524576020856104c98585038733611055565b608490602086519162461bcd60e51b8352820152602560248201527f45524332303a2064656372656173656420616c6c6f77616e63652062656c6f7760448201527f207a65726f0000000000000000000000000000000000000000000000000000006064820152fd5b80fd5b5034610223576020908160031936011261021f576105ac610e4d565b600192838652600581526105cd600260ff86868a2001541661015c81611189565b838652600581526105e561017b84882054339061149c565b838652600581526001600160a01b0360038488200192169485156101de5750848652528084208260ff19825416179055519133917f63502af7324ff6db91ab38f8236a648727d9385ea6c782073dd4882d8a61a48f8585a4f35b50829034610270578160031936011261027057805190828454600181811c90808316928315610764575b602093848410811461075157838852879594939291811561073257506001146106d4575b50505003601f01601f191682019267ffffffffffffffff8411838510176106c157508291826106bd925282610e05565b0390f35b80604186634e487b7160e01b6024945252fd5b8888529193925086917f8a35acfbc15ff81a39ae7d344fd709f28e8600b4aa8c65c6b64bfe7fe36bd19b5b82841061071c5750505090601f1992601f9282010191819361068d565b80548885018701528794509285019281016106ff565b60ff1916848701525050151560051b830101905081601f601f1961068d565b60248960228c634e487b7160e01b835252fd5b91607f1691610669565b50823461058d578160031936011261058d575061079660209261078f610e68565b903561149c565b90519015158152f35b8382346102705780600319360112610270576020906104c96107bf610e4d565b6107cb61043d33611442565b6024359061121a565b50346102235780600319360112610223578135906107f0610e68565b8285526005602052610810600260ff600185892001541661015c81611189565b828552600560205261082961017b83872054339061149c565b82855260056020526001600160a01b0360038387200191169384156108875750838552602052808420600160ff19825416179055519133917f63502af7324ff6db91ab38f8236a648727d9385ea6c782073dd4882d8a61a48f8585a4f35b606490602084519162461bcd60e51b8352820152601f60248201527f43616e6e6f74206164642030783020746f20612073686172656420726f6c65006044820152fd5b5034610223576020600319360112610223576108e4610e4d565b8380526005602052610903600160ff818588200154166102af81611189565b838052600560205261091c61017b83862054339061149c565b83805260056020526001600160a01b0360028386200191169283156103405750827fffffffffffffffffffffffff000000000000000000000000000000000000000082541617905551903390837f3b855c56b409b671c7112789d022675eb639d0bcb8896f1b6197c132f799e7468185a4f35b83823461027057602060031936011261027057806020926001600160a01b036109b6610e4d565b16815280845220549051908152f35b50903461022357816003193601126102235735906109e1610e68565b908284526005602052610a02600260ff600184882001541661015c81611189565b8284526005602052610a1b61017b82862054339061149c565b8284526005602052610a4c82600383872001906001600160a01b0316600052602052604060002060ff198154169055565b51916001600160a01b03339216907feb3e33034c392e69263b04ec0fa376dc12784a41b6676c7f31b936cbc0fbb5af8585a4f35b50903461022357602060031936011261022357610aaa90610aa361043d33611442565b353361121a565b51f35b50823461058d578160031936011261058d57610ac7610e4d565b906001600160a01b0360243592610ae061043d33611356565b16918215610b3a57602080955081610b1b7fddf252ad1be2c89b69c2b068fc378daa952ba7f163c4a11628f55a4df523b3ef93600254610e7e565b6002558484528382528584208181540190558551908152a35160018152f35b606485602086519162461bcd60e51b8352820152601f60248201527f45524332303a206d696e7420746f20746865207a65726f2061646472657373006044820152fd5b8382346102705780600319360112610270576104c9602092610bc5610ba0610e4d565b91338152600186528481206001600160a01b0384168252865284602435912054610e7e565b9033611055565b83823461027057816003193601126102705760209060ff600654169051908152f35b5091903461027057606060031936011261027057610c0a610e4d565b610c12610e68565b9184604435946001600160a01b038416815260016020528181203382526020522054907fffffffffffffffffffffffffffffffffffffffffffffffffffffffffffffffff8203610c6b575b6020866104c9878787610ea1565b848210610c945750918391610c89602096956104c995033383611055565b919394819350610c5d565b606490602087519162461bcd60e51b8352820152601d60248201527f45524332303a20696e73756666696369656e7420616c6c6f77616e63650000006044820152fd5b8382346102705781600319360112610270576020906002549051908152f35b8382346102705780600319360112610270576020906104c9610d16610e4d565b6024359033611055565b905083913461022357826003193601126102235782600354600181811c90808316928315610dfb575b60209384841081146107515783885287959493929181156107325750600114610d9c5750505003601f01601f191682019267ffffffffffffffff8411838510176106c157508291826106bd925282610e05565b600388529193925086917fc2575a0e9e593c00f959f8c92f12db2869c3395a3b0502d05e2516446f71f85b5b828410610de55750505090601f1992601f9282010191819361068d565b8054888501870152879450928501928101610dc8565b91607f1691610d49565b60208082528251818301819052939260005b858110610e3957505050601f19601f8460006040809697860101520116010190565b818101830151848201604001528201610e17565b600435906001600160a01b0382168203610e6357565b600080fd5b602435906001600160a01b0382168203610e6357565b91908201809211610e8b57565b634e487b7160e01b600052601160045260246000fd5b6001600160a01b03809116918215610feb5716918215610f8157600082815280602052604081205491808310610f1757604082827fddf252ad1be2c89b69c2b068fc378daa952ba7f163c4a11628f55a4df523b3ef958760209652828652038282205586815220818154019055604051908152a3565b608460405162461bcd60e51b815260206004820152602660248201527f45524332303a207472616e7366657220616d6f756e742065786365656473206260448201527f616c616e636500000000000000000000000000000000000000000000000000006064820152fd5b608460405162461bcd60e51b815260206004820152602360248201527f45524332303a207472616e7366657220746f20746865207a65726f206164647260448201527f65737300000000000000000000000000000000000000000000000000000000006064820152fd5b608460405162461bcd60e51b815260206004820152602560248201527f45524332303a207472616e736665722066726f6d20746865207a65726f20616460448201527f64726573730000000000000000000000000000000000000000000000000000006064820152fd5b6001600160a01b0380911691821561112057169182156110b65760207f8c5be1e5ebec7d5bd14f71427d1e84f3dd0314c0f7b2291e5b200ac8c7c3b925918360005260018252604060002085600052825280604060002055604051908152a3565b608460405162461bcd60e51b815260206004820152602260248201527f45524332303a20617070726f766520746f20746865207a65726f20616464726560448201527f73730000000000000000000000000000000000000000000000000000000000006064820152fd5b608460405162461bcd60e51b8152602060048201526024808201527f45524332303a20617070726f76652066726f6d20746865207a65726f2061646460448201527f72657373000000000000000000000000000000000000000000000000000000006064820152fd5b6003111561119357565b634e487b7160e01b600052602160045260246000fd5b156111b057565b608460405162461bcd60e51b815260206004820152602260248201527f53656e64657220646f6573206e6f7420686f6c6420726571756972656420726f60448201527f6c650000000000000000000000000000000000000000000000000000000000006064820152fd5b6001600160a01b031680156112ec5760009181835282602052604083205481811061128257817fddf252ad1be2c89b69c2b068fc378daa952ba7f163c4a11628f55a4df523b3ef926020928587528684520360408620558060025403600255604051908152a3565b608460405162461bcd60e51b815260206004820152602260248201527f45524332303a206275726e20616d6f756e7420657863656564732062616c616e60448201527f63650000000000000000000000000000000000000000000000000000000000006064820152fd5b608460405162461bcd60e51b815260206004820152602160248201527f45524332303a206275726e2066726f6d20746865207a65726f2061646472657360448201527f73000000000000000000000000000000000000000000000000000000000000006064820152fd5b600160005260056020527f1471eb6eb2c5e789fc3de43f8ce62938c7d1836ec861730447e2ada8fd81017c547f1471eb6eb2c5e789fc3de43f8ce62938c7d1836ec861730447e2ada8fd81017b9060ff166113b081611189565b600181036113ce5750600201546001600160a01b0391821691161490565b806113da600292611189565b1461142357606460405162461bcd60e51b815260206004820152600e60248201527f496e76616c696420726f6c6549640000000000000000000000000000000000006044820152fd5b6001600160a01b03600392166000520160205260ff6040600020541690565b600260005260056020527f89832631fb3c3307a103ba2c84ab569c64d6182a18893dcd163f0f1c2090733b547f89832631fb3c3307a103ba2c84ab569c64d6182a18893dcd163f0f1c2090733a9060ff166113b081611189565b6000526005602052604060002060ff6001820154166113b081611189565b156114c157565b608460405162461bcd60e51b815260206004820152602f60248201527f4d7573742062652063616c6c6564206f6e20616e20696e697469616c697a656460448201527f204578636c757369766520726f6c6500000000000000000000000000000000006064820152fd5b1561153257565b608460405162461bcd60e51b8152602060048201526024808201527f43616e206f6e6c792062652063616c6c6564206279206120726f6c65206d616e60448201527f61676572000000000000000000000000000000000000000000000000000000006064820152fd5b156115a257565b608460405162461bcd60e51b815260206004820152602c60248201527f4d7573742062652063616c6c6564206f6e20616e20696e697469616c697a656460448201527f2053686172656420726f6c6500000000000000000000000000000000000000006064820152fdfea264697066735822122027091828c144b78df01495e5235e90996073b63efe248c63f7d976b80738777e64736f6c63430008100033417474656d7074656420746f2075736520616e20696e76616c696420726f6c65a26469706673582212205df0328883a04621b63c870a531ecf62d7caa821955ca6d712e1d10ea40ad3ed64736f6c63430008100033","linkReferences":{}},"methodIdentifiers":{"assertMarket(bytes32,string)":"565429a8","assertedMarkets(bytes32)":"d4107645","assertionDisputedCallback(bytes32)":"d448a4ec","assertionLiveness()":"b75d4e24","assertionResolvedCallback(bytes32,bool)":"f1b156b2","createOutcomeTokens(bytes32,uint256)":"9d5bacfd","currency()":"e5a6b10f","defaultIdentifier()":"d509b017","factory()":"c45a0155","finder()":"b9a3c84c","getAllMarkets()":"b0772d0b","getAssertionData(bytes32)":"599807e7","getAssertionForMarket(bytes32)":"56038b05","getMarket(bytes32)":"c3c95c7b","getMarketDetails(bytes32)":"881268cb","getMarketStatus(bytes32)":"b2b7558a","initializeMarket(string,string,string,uint256,uint256,uint256)":"782b8b46","marketIds(uint256)":"779a9683","marketToAssertion(bytes32)":"2cc52445","markets(bytes32)":"7564912b","oo()":"8921a614","pause()":"8456cb59","paused()":"5c975abb","redeemOutcomeTokens(bytes32,uint256)":"9d2edf46","settleOutcomeTokens(bytes32)":"acd98e29","treasury()":"61d027b3","unpause()":"3f4ba83a","unresolvable()":"0880c65a"},"id":64}