{"abi":[{"type":"constructor","inputs":[{"name":"_finder","type":"address","internalType":"address"},{"name":"_currency","type":"address","internalType":"address"},{"name":"_oo","type":"address","internalType":"address"}],"stateMutability":"nonpayable"},{"type":"function","name":"DISPUTE_EXTENSION","inputs":[],"outputs":[{"name":"","type":"uint256","internalType":"uint256"}],"stateMutability":"view"},{"type":"function","name":"assertMarket","inputs":[{"name":"id","type":"bytes32","internalType":"bytes32"},{"name":"out","type":"string","internalType":"string"}],"outputs":[{"name":"aid","type":"bytes32","internalType":"bytes32"}],"stateMutability":"nonpayable"},{"type":"function","name":"assertedMarkets","inputs":[{"name":"","type":"bytes32","internalType":"bytes32"}],"outputs":[{"name":"asserter","type":"address","internalType":"address"},{"name":"marketId","type":"bytes32","internalType":"bytes32"}],"stateMutability":"view"},{"type":"function","name":"assertionBond","inputs":[{"name":"","type":"bytes32","internalType":"bytes32"}],"outputs":[{"name":"","type":"uint256","internalType":"uint256"}],"stateMutability":"view"},{"type":"function","name":"assertionDisputedCallback","inputs":[{"name":"aid","type":"bytes32","internalType":"bytes32"}],"outputs":[],"stateMutability":"nonpayable"},{"type":"function","name":"assertionLiveness","inputs":[],"outputs":[{"name":"","type":"uint64","internalType":"uint64"}],"stateMutability":"view"},{"type":"function","name":"assertionOutcomes","inputs":[{"name":"","type":"bytes32","internalType":"bytes32"}],"outputs":[{"name":"","type":"bytes32","internalType":"bytes32"}],"stateMutability":"view"},{"type":"function","name":"assertionResolvedCallback","inputs":[{"name":"aid","type":"bytes32","internalType":"bytes32"},{"name":"ok","type":"bool","internalType":"bool"}],"outputs":[],"stateMutability":"nonpayable"},{"type":"function","name":"createOutcomeTokens","inputs":[{"name":"id","type":"bytes32","internalType":"bytes32"},{"name":"amt","type":"uint256","internalType":"uint256"}],"outputs":[],"stateMutability":"nonpayable"},{"type":"function","name":"currency","inputs":[],"outputs":[{"name":"","type":"address","internalType":"contract IERC20"}],"stateMutability":"view"},{"type":"function","name":"defaultIdentifier","inputs":[],"outputs":[{"name":"","type":"bytes32","internalType":"bytes32"}],"stateMutability":"view"},{"type":"function","name":"disputeAssertion","inputs":[{"name":"marketId","type":"bytes32","internalType":"bytes32"}],"outputs":[],"stateMutability":"nonpayable"},{"type":"function","name":"disputedAssertions","inputs":[{"name":"","type":"bytes32","internalType":"bytes32"}],"outputs":[{"name":"","type":"bool","internalType":"bool"}],"stateMutability":"view"},{"type":"function","name":"disputerOf","inputs":[{"name":"","type":"bytes32","internalType":"bytes32"}],"outputs":[{"name":"","type":"address","internalType":"address"}],"stateMutability":"view"},{"type":"function","name":"factory","inputs":[],"outputs":[{"name":"","type":"address","internalType":"contract TokenFactory"}],"stateMutability":"view"},{"type":"function","name":"finder","inputs":[],"outputs":[{"name":"","type":"address","internalType":"address"}],"stateMutability":"view"},{"type":"function","name":"getAllMarkets","inputs":[],"outputs":[{"name":"","type":"bytes32[]","internalType":"bytes32[]"}],"stateMutability":"view"},{"type":"function","name":"getAssertionData","inputs":[{"name":"marketId","type":"bytes32","internalType":"bytes32"}],"outputs":[{"name":"assertionId","type":"bytes32","internalType":"bytes32"},{"name":"settled","type":"bool","internalType":"bool"},{"name":"disputed","type":"bool","internalType":"bool"},{"name":"expirationTime","type":"uint256","internalType":"uint256"}],"stateMutability":"view"},{"type":"function","name":"getAssertionForMarket","inputs":[{"name":"marketId","type":"bytes32","internalType":"bytes32"}],"outputs":[{"name":"","type":"bytes32","internalType":"bytes32"}],"stateMutability":"view"},{"type":"function","name":"getMarket","inputs":[{"name":"id","type":"bytes32","internalType":"bytes32"}],"outputs":[{"name":"","type":"tuple","internalType":"struct MyPredictionMarket.Market","components":[{"name":"resolved","type":"bool","internalType":"bool"},{"name":"assertedOutcomeId","type":"bytes32","internalType":"bytes32"},{"name":"finalOutcomeId","type":"bytes32","internalType":"bytes32"},{"name":"outcome1Token","type":"address","internalType":"contract ExpandedERC20"},{"name":"outcome2Token","type":"address","internalType":"contract ExpandedERC20"},{"name":"reward","type":"uint256","internalType":"uint256"},{"name":"requiredBond","type":"uint256","internalType":"uint256"},{"name":"expirationTime","type":"uint256","internalType":"uint256"},{"name":"outcome1","type":"bytes","internalType":"bytes"},{"name":"outcome2","type":"bytes","internalType":"bytes"},{"name":"description","type":"bytes","internalType":"bytes"},{"name":"winningOutcome","type":"string","internalType":"string"}]}],"stateMutability":"view"},{"type":"function","name":"getMarketAssertions","inputs":[{"name":"id","type":"bytes32","internalType":"bytes32"}],"outputs":[{"name":"","type":"bytes32[]","internalType":"bytes32[]"}],"stateMutability":"view"},{"type":"function","name":"getMarketDetails","inputs":[{"name":"id","type":"bytes32","internalType":"bytes32"}],"outputs":[{"name":"outcome1","type":"string","internalType":"string"},{"name":"outcome2","type":"string","internalType":"string"},{"name":"description","type":"string","internalType":"string"},{"name":"reward","type":"uint256","internalType":"uint256"},{"name":"requiredBond","type":"uint256","internalType":"uint256"},{"name":"outcome1Token","type":"address","internalType":"address"},{"name":"outcome2Token","type":"address","internalType":"address"},{"name":"resolved","type":"bool","internalType":"bool"}],"stateMutability":"view"},{"type":"function","name":"getWinningOutcome","inputs":[{"name":"id","type":"bytes32","internalType":"bytes32"}],"outputs":[{"name":"","type":"string","internalType":"string"}],"stateMutability":"view"},{"type":"function","name":"initializeMarket","inputs":[{"name":"o1","type":"string","internalType":"string"},{"name":"o2","type":"string","internalType":"string"},{"name":"d","type":"string","internalType":"string"},{"name":"reward","type":"uint256","internalType":"uint256"},{"name":"bond","type":"uint256","internalType":"uint256"},{"name":"duration","type":"uint256","internalType":"uint256"}],"outputs":[{"name":"id","type":"bytes32","internalType":"bytes32"}],"stateMutability":"nonpayable"},{"type":"function","name":"isResolved","inputs":[{"name":"id","type":"bytes32","internalType":"bytes32"}],"outputs":[{"name":"","type":"bool","internalType":"bool"}],"stateMutability":"view"},{"type":"function","name":"marketAssertions","inputs":[{"name":"","type":"bytes32","internalType":"bytes32"},{"name":"","type":"uint256","internalType":"uint256"}],"outputs":[{"name":"","type":"bytes32","internalType":"bytes32"}],"stateMutability":"view"},{"type":"function","name":"marketIds","inputs":[{"name":"","type":"uint256","internalType":"uint256"}],"outputs":[{"name":"","type":"bytes32","internalType":"bytes32"}],"stateMutability":"view"},{"type":"function","name":"marketToAssertion","inputs":[{"name":"","type":"bytes32","internalType":"bytes32"}],"outputs":[{"name":"","type":"bytes32","internalType":"bytes32"}],"stateMutability":"view"},{"type":"function","name":"markets","inputs":[{"name":"","type":"bytes32","internalType":"bytes32"}],"outputs":[{"name":"resolved","type":"bool","internalType":"bool"},{"name":"assertedOutcomeId","type":"bytes32","internalType":"bytes32"},{"name":"finalOutcomeId","type":"bytes32","internalType":"bytes32"},{"name":"outcome1Token","type":"address","internalType":"contract ExpandedERC20"},{"name":"outcome2Token","type":"address","internalType":"contract ExpandedERC20"},{"name":"reward","type":"uint256","internalType":"uint256"},{"name":"requiredBond","type":"uint256","internalType":"uint256"},{"name":"expirationTime","type":"uint256","internalType":"uint256"},{"name":"outcome1","type":"bytes","internalType":"bytes"},{"name":"outcome2","type":"bytes","internalType":"bytes"},{"name":"description","type":"bytes","internalType":"bytes"},{"name":"winningOutcome","type":"string","internalType":"string"}],"stateMutability":"view"},{"type":"function","name":"oo","inputs":[],"outputs":[{"name":"","type":"address","internalType":"contract IOOV3Extended"}],"stateMutability":"view"},{"type":"function","name":"pause","inputs":[],"outputs":[],"stateMutability":"nonpayable"},{"type":"function","name":"paused","inputs":[],"outputs":[{"name":"","type":"bool","internalType":"bool"}],"stateMutability":"view"},{"type":"function","name":"redeemOutcomeTokens","inputs":[{"name":"id","type":"bytes32","internalType":"bytes32"},{"name":"amt","type":"uint256","internalType":"uint256"}],"outputs":[],"stateMutability":"nonpayable"},{"type":"function","name":"settleMarket","inputs":[{"name":"marketId","type":"bytes32","internalType":"bytes32"}],"outputs":[],"stateMutability":"nonpayable"},{"type":"function","name":"settleOutcomeTokens","inputs":[{"name":"id","type":"bytes32","internalType":"bytes32"}],"outputs":[{"name":"out","type":"uint256","internalType":"uint256"}],"stateMutability":"nonpayable"},{"type":"function","name":"treasury","inputs":[],"outputs":[{"name":"","type":"address","internalType":"address"}],"stateMutability":"view"},{"type":"function","name":"unpause","inputs":[],"outputs":[],"stateMutability":"nonpayable"},{"type":"function","name":"unresolvable","inputs":[],"outputs":[{"name":"","type":"bytes","internalType":"bytes"}],"stateMutability":"view"},{"type":"event","name":"AssertionRejected","inputs":[{"name":"marketId","type":"bytes32","indexed":true,"internalType":"bytes32"},{"name":"assertionId","type":"bytes32","indexed":true,"internalType":"bytes32"}],"anonymous":false},{"type":"event","name":"AssertionSubmitted","inputs":[{"name":"marketId","type":"bytes32","indexed":true,"internalType":"bytes32"},{"name":"assertionId","type":"bytes32","indexed":true,"internalType":"bytes32"},{"name":"asserter","type":"address","indexed":true,"internalType":"address"},{"name":"outcome","type":"string","indexed":false,"internalType":"string"}],"anonymous":false},{"type":"event","name":"MarketInitialized","inputs":[{"name":"id","type":"bytes32","indexed":false,"internalType":"bytes32"}],"anonymous":false},{"type":"event","name":"MarketResolved","inputs":[{"name":"id","type":"bytes32","indexed":false,"internalType":"bytes32"}],"anonymous":false},{"type":"event","name":"OutcomeTokensCreated","inputs":[{"name":"marketId","type":"bytes32","indexed":true,"internalType":"bytes32"},{"name":"user","type":"address","indexed":true,"internalType":"address"},{"name":"amount","type":"uint256","indexed":false,"internalType":"uint256"}],"anonymous":false},{"type":"event","name":"OutcomeTokensRedeemed","inputs":[{"name":"marketId","type":"bytes32","indexed":true,"internalType":"bytes32"},{"name":"user","type":"address","indexed":true,"internalType":"address"},{"name":"amount","type":"uint256","indexed":false,"internalType":"uint256"}],"anonymous":false}],"bytecode":{"object":"0x610120604081815234620002b55760608262005f888038038091620000258285620002ba565b833981010312620002b5576200003b82620002f4565b91602092620000598362000051868501620002f4565b9301620002f4565b60016000908155926001600160a01b03908382161562000280578116918215620002495716918215620002145760805260a05260c0819052825163d509b01760e01b8152908490829060049082905afa9384156200020a578294620001d0575b5050610100928352815161224d808201906001600160401b03821183831017620001bc5790829162003d3b8339039082f0908115620001b1575060e052600180546001600160a01b0319163317905551613a3191826200030a833960805182610d86015260a051828181610371015281816105a7015281816109bb0152818161102d015281816112780152818161154501528181611ed10152612693015260c0518281816101ef01528181610633015281816108e9015281816109f101528181611628015281816126700152613976015260e051828181610b2101528181611a6e0152611b3b0152518181816108a701526128890152f35b8251903d90823e3d90fd5b634e487b7160e01b84526041600452602484fd5b9080929450813d831162000202575b620001eb8183620002ba565b81010312620001fe5751913880620000b9565b8280fd5b503d620001df565b83513d84823e3d90fd5b845162461bcd60e51b815260048101879052600e60248201526d496e76616c6964206f7261636c6560901b6044820152606490fd5b855162461bcd60e51b815260048101889052601060248201526f496e76616c69642063757272656e637960801b6044820152606490fd5b855162461bcd60e51b815260048101889052600e60248201526d24b73b30b634b2103334b73232b960911b6044820152606490fd5b600080fd5b601f909101601f19168101906001600160401b03821190821017620002de57604052565b634e487b7160e01b600052604160045260246000fd5b51906001600160a01b0382168203620002b55756fe6080604052600436101561001257600080fd5b6000803560e01c80630880c65a14612bac5780632765689014612b825780632cc5244514612b065780633f4ba83a14612b3057806356038b0514612b06578063565429a81461256e578063599807e7146125335780635c975abb1461250d57806361d027b3146124e657806368585b4b146124835780637564912b1461233e578063779a9683146122ee578063782b8b46146118765780638456cb591461180d57806387573d4c146117e3578063881268cb1461164c5780638921a614146116085780639d2edf46146114385780639d5bacfd1461120a578063aad232f4146111ca578063acd98e2914610e8e578063b0772d0b14610e18578063b40b784114610dfa578063b4280e7514610dc7578063b75d4e2414610daa578063b9a3c84c14610d66578063c3c95c7b14610b45578063c45a015514610b01578063cb91dd721461096b578063d41076451461092e578063d448a4ec146108ca578063d509b0171461088f578063ddfc322814610860578063de61ece114610831578063e039c00e146105cb578063e5a6b10f14610587578063ee394f3a146105125763f1b156b2146101bf57600080fd5b3461050f57604060031936011261050f5760043590602435801515810361050b576001600160a01b0392610216847f000000000000000000000000000000000000000000000000000000000000000016331461358d565b80835260209160058352604084209060016040519261023484612bc8565b87815416845201549184810192808452156104c7578251865260048552604086209115610478578386526009855260408620548015610434579186809860019385600b9a9660028601556008850160405161029a816102938185612d71565b0382612c2b565b8051908c012082036103a0576102b391508b86016135d8565b600584019182549081610369575b50505050508160ff1982541617815501557fe9146184308c5e4b8f243047cc6f81dce88e004d7980502e123b02f887ab5144838251604051908152a15b51845260068252836040812055835260058152600060016040852085815501556009815260006040842055600881526040832060ff198154169055600a81526040832073ffffffffffffffffffffffffffffffffffffffff1981541690555260006040822055604051f35b6103959251167f00000000000000000000000000000000000000000000000000000000000000006136b6565b5582388080806102c1565b5060098501906040516103b7816102938186612d71565b8051908c0120036103d3576103ce908b86016135d8565b6102b3565b508984016103e18154612d37565b601f8111610413575b507f556e7265736f6c7661626c65000000000000000000000000000000000000001890556102b3565b61042e9082600052601f8c600020910160051c810190612f6e565b386103ea565b6064866040519062461bcd60e51b82526004820152600f60248201527f4d697373696e67206f7574636f6d6500000000000000000000000000000000006044820152fd5b50849550600b81819660016000940155876002820155016104998154612d37565b601f81116104a9575b50556102fe565b8183528583206104c191601f0160051c810190612f6e565b386104a2565b6064856040519062461bcd60e51b82526004820152601160248201527f496e76616c696420617373657274696f6e0000000000000000000000000000006044820152fd5b5080fd5b80fd5b503461050f5760208060031936011261050b5760043582526007815260408220916040518092808554928381520194835280832092905b8282106105705761056c8561056081890382612c2b565b60405191829182612e4c565b0390f35b835486529485019460019384019390910190610549565b503461050f578060031936011261050f5760206040516001600160a01b037f0000000000000000000000000000000000000000000000000000000000000000168152f35b503461050f576020908160031936011261050f576004356105f460ff60015460a01c1615612ed2565b6106016001835414613708565b600282558082526004835260ff6040832054166107ed57815260068252604081205480156107a9576001600160a01b037f000000000000000000000000000000000000000000000000000000000000000016906040517f88302884000000000000000000000000000000000000000000000000000000008152816004820152610200908181602481875afa91821561079e579160a09167ffffffffffffffff938792610771575b5050015116421061072d57829350813b156107295782916024839260405194859384927f4124beef00000000000000000000000000000000000000000000000000000000845260048401525af1801561071e5761070a575b5060019055604051f35b61071390612c17565b61050f578038610700565b6040513d84823e3d90fd5b5050fd5b6064846040519062461bcd60e51b82526004820152601160248201527f5374696c6c20696e206c6976656e6573730000000000000000000000000000006044820152fd5b6107909250803d10610797575b6107888183612c2b565b8101906137c7565b38806106a8565b503d61077e565b6040513d87823e3d90fd5b6064836040519062461bcd60e51b82526004820152600c60248201527f4e6f20617373657274696f6e00000000000000000000000000000000000000006044820152fd5b6064836040519062461bcd60e51b82526004820152601760248201527f4d61726b657420616c7265616479207265736f6c7665640000000000000000006044820152fd5b503461050f57602060031936011261050f5760ff60406020926004358152600484522054166040519015158152f35b503461050f57602060031936011261050f5760ff60406020926004358152600884522054166040519015158152f35b503461050f578060031936011261050f5760206040517f00000000000000000000000000000000000000000000000000000000000000008152f35b503461050f57602060031936011261050f576109106001600160a01b037f000000000000000000000000000000000000000000000000000000000000000016331461358d565b6004358152600860205260408120600160ff19825416179055604051f35b503461050f57602060031936011261050f5760408091600435815260056020522060016001600160a01b0382541691015482519182526020820152f35b503461050f576020908160031936011261050f5761099160ff60015460a01c1615612ed2565b60043581526006825260408120548015610abd578192818352600b81526008604084205491610a227f0000000000000000000000000000000000000000000000000000000000000000936109e781303388612fcc565b6001600160a01b037f00000000000000000000000000000000000000000000000000000000000000001685610a1d828098613298565b613300565b838552600a8152604085203373ffffffffffffffffffffffffffffffffffffffff198254161790555260408320600160ff19825416179055803b15610729576044839260405194859384927fa6a22b4300000000000000000000000000000000000000000000000000000000845260048401523360248401525af1801561071e57610aae575b50604051f35b610ab790612c17565b38610aa8565b6064836040519062461bcd60e51b82526004820152601360248201527f4e6f2061637469766520617373657274696f6e000000000000000000000000006044820152fd5b503461050f578060031936011261050f5760206040516001600160a01b037f0000000000000000000000000000000000000000000000000000000000000000168152f35b503461050f57602060031936011261050f57604061056c9160606101608351610b6d81612bfa565b838152836020820152838582015283838201528360808201528360a08201528360c08201528360e082015282610100820152826101208201528261014082015201526004358152600460205220600b610c8b60405192610bcc84612bfa565b60ff8154161515845260018101546020850152600281015460408501526001600160a01b0360038201541660608501526001600160a01b036004820154166080850152600581015460a0850152600681015460c0850152600781015460e0850152604051610c41816102938160088601612d71565b610100850152604051610c5b816102938160098601612d71565b610120850152604051610c758161029381600a8601612d71565b6101408501526102936040518094819301612d71565b6101608201526040519182916020835280511515602084015260208101516040840152604081015160608401526001600160a01b0360608201511660808401526001600160a01b0360808201511660a084015260a081015160c084015260c081015160e084015260e0810151610100840152610100810151610d1c61018091826101208701526101a0860190612cc6565b90610160610d55610d4161012086015194601f1995868a8303016101408b0152612cc6565b6101408601518589830301848a0152612cc6565b930151918584030190850152612cc6565b503461050f578060031936011261050f5760206040516001600160a01b037f0000000000000000000000000000000000000000000000000000000000000000168152f35b503461050f578060031936011261050f576020604051611c208152f35b503461050f57602060031936011261050f576001600160a01b0360406020926004358152600a8452205416604051908152f35b503461050f578060031936011261050f5760206040516202a3008152f35b503461050f578060031936011261050f57604051600380548083529083526020808301937fc2575a0e9e593c00f959f8c92f12db2869c3395a3b0502d05e2516446f71f85b92915b828210610e775761056c8561056081890382612c2b565b835486529485019460019384019390910190610e60565b503461050f576020908160031936011261050f57610eb460ff60015460a01c1615612ed2565b610ec16001825414613708565b600281556004358152600482526040812090610ee060ff835416613753565b6001600160a01b0380600384015416906040517f70a0823100000000000000000000000000000000000000000000000000000000918282523360048301528682602481875afa91821561079e578592611197575b50600486019587828854169460246040518097819382523360048301525afa9384156110d5578694611168575b50821580159061115f575b1561111b57600281015490604051610f8b816102938160088601612d71565b8051908a012082036110e057505081955b6040517f79cc6790000000000000000000000000000000000000000000000000000000008082523360048301526024820194909452948890869060449082908a905af180156110d557908894939291611091575b546040519283523360048401526024830193909352909350839116818581604481015b03925af1801561071e5761105a575b5060019061105183337f00000000000000000000000000000000000000000000000000000000000000006136b6565b55604051908152f35b8381813d831161108a575b61106f8183612c2b565b8101031261050b579061108360019261303b565b5090611022565b503d611065565b91938581969294963d83116110ce575b6110ab8183612c2b565b810103126110ca57918793916110c4611013969461303b565b50610ff0565b8580fd5b503d6110a1565b6040513d88823e3d90fd5b6110f66009916102936040518094819301612d71565b80519089012003611108578295610f9c565b6111128383612f61565b60011c95610f9c565b6064886040519062461bcd60e51b82526004820152600960248201527f4e6f20746f6b656e7300000000000000000000000000000000000000000000006044820152fd5b50831515610f6c565b9093508781813d8311611190575b6111808183612c2b565b810103126110ca57519238610f61565b503d611176565b9091508681813d83116111c3575b6111af8183612c2b565b810103126111bf57519038610f34565b8480fd5b503d6111a5565b503461050f576111d936612e36565b9190815260076020526040812090815483101561050f5760206111fc8484612e08565b90546040519160031b1c8152f35b503461050f5761121936612e36565b9061122c60ff60015460a01c1615612ed2565b808352602060048152604084209060038201916001600160a01b0392611256848254161515613202565b60ff8254166113f45783906112706007840154421061324d565b61129c8730337f0000000000000000000000000000000000000000000000000000000000000000612fcc565b546040517f40c10f190000000000000000000000000000000000000000000000000000000080825233600483015260248201899052959093909290918591859160449183918d91165af19283156113e95784936113ac575b50600490810154604051958652339186019190915260248501879052849160449183918a91165af1801561079e57611358575b7f73944cdc199be3cfe9345b1156df88f1faef28fd3d7be956cf72213ce7d106e891506040519384523393a3604051f35b8082813d83116113a5575b61136d8183612c2b565b810103126111bf5761139f7f73944cdc199be3cfe9345b1156df88f1faef28fd3d7be956cf72213ce7d106e89261303b565b50611327565b503d611363565b909281813d83116113e2575b6113c28183612c2b565b810103126113de5783926113d760049261303b565b50906112f4565b8780fd5b503d6113b8565b6040513d8a823e3d90fd5b6064836040519062461bcd60e51b82526004820152600f60248201527f4d61726b6574207265736f6c76656400000000000000000000000000000000006044820152fd5b503461050f5761144736612e36565b9061145a60ff60015460a01c1615612ed2565b6114676001845414613708565b6002835580835260206004815260408420906001600160a01b03918260038201541692611495841515613202565b6040517f79cc67900000000000000000000000000000000000000000000000000000000080825233600483015260248201889052949092908490849060449082908c905af19283156113e95784936115cf575b50600490810154604051958652339186019190915260248501879052849160449183918a91165af1801561079e5761157b575b7f7e1b7457326b2c44aea851868b9a49ffe4ae9527ae543136dea731204b99a84d915061156984337f00000000000000000000000000000000000000000000000000000000000000006136b6565b6040519384523393a360018155604051f35b8082813d83116115c8575b6115908183612c2b565b810103126111bf576115c27f7e1b7457326b2c44aea851868b9a49ffe4ae9527ae543136dea731204b99a84d9261303b565b5061151b565b503d611586565b909281813d8311611601575b6115e58183612c2b565b810103126113de5783926115fa60049261303b565b50906114e8565b503d6115db565b503461050f578060031936011261050f5760206040516001600160a01b037f0000000000000000000000000000000000000000000000000000000000000000168152f35b503461050f57602060031936011261050f5760043581526004602052604090206040519061167982612bfa565b805460ff161515825260018101546020830152600281015460408301526001600160a01b039081600382015416906060840191825282600482015416936080810194855260058201549460a0820195865260068301549360c08301948552600784015460e084015260405196878060088701906116f591612d71565b036117009089612c2b565b6101009687850198895280604051998a8060098a019061171f91612d71565b0361172a908c612c2b565b61012087019a8b52604051978861174481600a8401612d71565b0361174f908a612c2b565b610140880198895260405180600b8193019061176a91612d71565b036117759082612c2b565b610160880152519951965192519751935116935116935115159460405198888a998a5289016117a391612cc6565b88810360208a01526117b491612cc6565b87810360408901526117c591612cc6565b946060870152608086015260a085015260c084015260e08301520390f35b503461050f57602060031936011261050f5760406020916004358152600983522054604051908152f35b503461050f578060031936011261050f57740100000000000000000000000000000000000000007fffffffffffffffffffffff00ffffffffffffffffffffffffffffffffffffffff60015461186c6001600160a01b0382163314612e87565b1617600155604051f35b503461050f5760c060031936011261050f5760043567ffffffffffffffff811161050b576118a8903690600401612ceb565b9060243567ffffffffffffffff811161050b576118c9903690600401612ceb565b60443567ffffffffffffffff81116122ea576118e9903690600401612ceb565b6118fb60ff60015460a01c1615612ed2565b8351156122a6578151156122625780511561221e576201518060a435106121da57835160208501208251602084012014612196576002549161197c6040516020810190338252608060408201526119738161195960a0820188612cc6565b42606083015288608083015203601f198101835282612c2b565b51902093612f1d565b60025582845260046020526001600160a01b0360036040862001541661215257611a2b9460206040516119f160268285516119bc81878401888a01612ca3565b81017f20546f6b656e000000000000000000000000000000000000000000000000000086820152036006810184520182612c2b565b604080519889927f198e2b8a0000000000000000000000000000000000000000000000000000000084528260048501526044840190612cc6565b7f4f310000000000000000000000000000000000000000000000000000000000008484830392600319840160248701526002815201520181886001600160a01b037f0000000000000000000000000000000000000000000000000000000000000000165af195861561079e578596612131575b50611af86020604051611abe60268287516119bc81878401888c01612ca3565b604080519384927f198e2b8a0000000000000000000000000000000000000000000000000000000084528260048501526044840190612cc6565b7f4f320000000000000000000000000000000000000000000000000000000000008484830392600319840160248701526002815201520181896001600160a01b037f0000000000000000000000000000000000000000000000000000000000000000165af19081156110d5578691612102575b506001600160a01b03611b8060a43542612f61565b918160405199611b8f8b612bfa565b898b528960208c01528960408c01521660608a015216608088015260643560a088015260843560c088015260e087015261010086015261012085015261014084015260405180602081011067ffffffffffffffff602083011117611eb357602081016040528281526101608401528082526004602052604082208351151560ff60ff1983541691161781556020840151600182015560408401516002820155600381016001600160a01b036060860151169073ffffffffffffffffffffffffffffffffffffffff19918282541617905560048201906001600160a01b036080870151169082541617905560a0840151600582015560c0840151600682015560e0840151600782015561010084015180519067ffffffffffffffff8211611ffa578190611ccb82611cc26008870154612d37565b60088701612f85565b602090601f8311600114612093578692612088575b50506000198260011b9260031b1c19161760088201555b61012084015180519067ffffffffffffffff8211611ffa578190611d2b82611d226009870154612d37565b60098701612f85565b602090601f831160011461201957869261200e575b50506000198260011b9260031b1c19161760098201555b61014084015180519067ffffffffffffffff8211611ffa57611d8982611d80600a860154612d37565b600a8601612f85565b602090601f8311600114611f875791806101609492600b948892611f7c575b50506000198260011b9260031b1c191617600a8201555b0193015192835167ffffffffffffffff8111611f6857611de981611de38454612d37565b84612f85565b602094601f8211600114611f05579484958293949592611efa575b50506000198260011b9260031b1c19161790555b606435611ec7575b60035468010000000000000000811015611eb3576001810180600355811015611e9f5781906003602094527fc2575a0e9e593c00f959f8c92f12db2869c3395a3b0502d05e2516446f71f85b01557fc369e3f4eecc036653b32f05ee73787d1736a262de799f2ef755eeff29cbadaa82604051838152a1604051908152f35b602483634e487b7160e01b81526032600452fd5b602483634e487b7160e01b81526041600452fd5b611ef560643530337f0000000000000000000000000000000000000000000000000000000000000000612fcc565b611e20565b015190503880611e04565b601f198216958386526020862091865b888110611f5057508360019596979810611f37575b505050811b019055611e18565b015160001960f88460031b161c19169055388080611f2a565b91926020600181928685015181550194019201611f15565b602484634e487b7160e01b81526041600452fd5b015190503880611da8565b90600a840186526020862091865b601f1985168110611fe25750926101609492600192600b9583601f19811610611fc9575b505050811b01600a820155611dbf565b015160001960f88460031b161c19169055388080611fb9565b91926020600181928685015181550194019201611f95565b602485634e487b7160e01b81526041600452fd5b015190503880611d40565b9250600984018652602086209086935b601f198416851061206d576001945083601f19811610612054575b505050811b016009820155611d57565b015160001960f88460031b161c19169055388080612044565b81810151835560209485019460019093019290910190612029565b015190503880611ce0565b9250600884018652602086209086935b601f19841685106120e7576001945083601f198116106120ce575b505050811b016008820155611cf7565b015160001960f88460031b161c191690553880806120be565b818101518355602094850194600190930192909101906120a3565b612124915060203d60201161212a575b61211c8183612c2b565b810190612f42565b38611b6b565b503d612112565b61214b91965060203d60201161212a5761211c8183612c2b565b9438611a9e565b606460405162461bcd60e51b815260206004820152601560248201527f4d61726b657420616c72656164792065786973747300000000000000000000006044820152fd5b606460405162461bcd60e51b815260206004820152601560248201527f4f7574636f6d657320617265207468652073616d6500000000000000000000006044820152fd5b606460405162461bcd60e51b815260206004820152600960248201527f546f6f2073686f727400000000000000000000000000000000000000000000006044820152fd5b606460405162461bcd60e51b815260206004820152601160248201527f456d707479206465736372697074696f6e0000000000000000000000000000006044820152fd5b606460405162461bcd60e51b815260206004820152601460248201527f456d707479207365636f6e64206f7574636f6d650000000000000000000000006044820152fd5b606460405162461bcd60e51b815260206004820152601360248201527f456d707479206669727374206f7574636f6d65000000000000000000000000006044820152fd5b8280fd5b503461050f57602060031936011261050f5760043560035481101561050b576003602092527fc2575a0e9e593c00f959f8c92f12db2869c3395a3b0502d05e2516446f71f85b0154604051908152f35b503461050f57602060031936011261050f576004358152600460205260409020805460ff1660018201549160028101546001600160a01b0380600384015416906004840154166005840154600685015460078601549160405193848060088a01906123a891612d71565b036123b39086612c2b565b60405195866123c58160098c01612d71565b036123d09088612c2b565b60405197886123e281600a8d01612d71565b036123ed908a612c2b565b60405180600b819c019061240091612d71565b0361240b908b612c2b565b6040519b8c9b15158c5260208c015260408b015260608a0152608089015260a088015260c087015260e086015261018080610100870152850161244d91612cc6565b84810361012086015261245f91612cc6565b83810361014085015261247191612cc6565b82810361016084015261056c91612cc6565b503461050f57602060031936011261050f576102936124d2600b604061056c9460043580825260046020526124bd60ff8484205416613753565b81526004602052200160405192838092612d71565b604051918291602083526020830190612cc6565b503461050f578060031936011261050f5760206001600160a01b0360015416604051908152f35b503461050f578060031936011261050f57602060ff60015460a01c166040519015158152f35b503461050f57602060031936011261050f576080612552600435613920565b9160405193845215156020840152151560408301526060820152f35b503461050f57604060031936011261050f57602490600435823567ffffffffffffffff81116122ea576125a5903690600401612ceb565b906125b860ff60015460a01c1615612ed2565b8083526020936004855260408420936001600160a01b03916125e1836003880154161515613202565b6125f06007870154421061324d565b60ff8654161580612afa575b15612ab7578451958786019687209060405161261f816102938160088601612d71565b898151910120604051612639816102938160098701612d71565b8a815191012090612648612c6a565b8b8151910120908414918215612aad575b508115612aa3575b5015612a6057816001820155847f000000000000000000000000000000000000000000000000000000000000000016907f0000000000000000000000000000000000000000000000000000000000000000868116996040517f4360af3d0000000000000000000000000000000000000000000000000000000081528b60048201528c818881885afa9081156113e957888e959493928d928291612a23575b5096809461280c604089600a61278e98612822988c986127489f60066128629f01549150808211600014612a1957509e8f995b61274187518096819301612d71565b0384612c2b565b6127c461275442613477565b86519c867f4173206f662000000000000000000000000000000000000000000000000000008f98890152825192839160268a019101612ca3565b8501917f2c206f7574636f6d653a2000000000000000000000000000000000000000000060268401525180936031840190612ca3565b017f2e204465736372697074696f6e3a20000000000000000000000000000000000060318201526127fe8d83519384918785019101612ca3565b01038a810188520186612c2b565b61281883303384612fcc565b610a1d8282613298565b87604051809d819582947f6457c9790000000000000000000000000000000000000000000000000000000084526101206004850152610124840190612cc6565b90338b840152306044840152836064840152611c20608484015260a48301528760c48301527f000000000000000000000000000000000000000000000000000000000000000060e48301528261010483015203925af1978815612a0e5784986129db575b50878452600b89526040842055600988526040832055600887526040822060ff198154169055838252600687528560408320556007875260408220805491680100000000000000008310156129c95750918661292c838297969560018096018155612e08565b819291549060031b600019811b9283911b169119161790556040519261295184612bc8565b33845260408985019286845287815260058b522093511673ffffffffffffffffffffffffffffffffffffffff19845416178355519101557fe6042ad6af7c8b385a8ebb34de859ffaac8545064d60dc9ba2d44d120d654dc8604051868152806129be339689830190612cc6565b0390a4604051908152f35b83634e487b7160e01b81526041600452fd5b9097508881813d8311612a07575b6129f38183612c2b565b81010312612a03575196386128c6565b8380fd5b503d6129e9565b6040513d86823e3d90fd5b90509e8f99612732565b939495969250505081813d8311612a59575b612a3f8183612c2b565b810103126113de57518c939291908b9089906127486126ff565b503d612a35565b606489600f856040519262461bcd60e51b845260048401528201527f496e76616c6964206f7574636f6d6500000000000000000000000000000000006044820152fd5b9050821438612661565b8414915038612659565b86601c6064926040519262461bcd60e51b845260048401528201527f417373657274696f6e20616374697665206f72207265736f6c766564000000006044820152fd5b506001860154156125fc565b503461050f57602060031936011261050f5760406020916004358152600683522054604051908152f35b503461050f578060031936011261050f577fffffffffffffffffffffff00ffffffffffffffffffffffffffffffffffffffff600154612b796001600160a01b0382163314612e87565b16600155604051f35b503461050f57602060031936011261050f5760406020916004358152600b83522054604051908152f35b503461050f578060031936011261050f5761056c6124d2612c6a565b6040810190811067ffffffffffffffff821117612be457604052565b634e487b7160e01b600052604160045260246000fd5b610180810190811067ffffffffffffffff821117612be457604052565b67ffffffffffffffff8111612be457604052565b90601f601f19910116810190811067ffffffffffffffff821117612be457604052565b67ffffffffffffffff8111612be457601f01601f191660200190565b60405190612c7782612bc8565b600c82527f556e7265736f6c7661626c6500000000000000000000000000000000000000006020830152565b60005b838110612cb65750506000910152565b8181015183820152602001612ca6565b90601f19601f602093612ce481518092818752878088019101612ca3565b0116010190565b81601f82011215612d3257803590612d0282612c4e565b92612d106040519485612c2b565b82845260208383010111612d3257816000926020809301838601378301015290565b600080fd5b90600182811c92168015612d67575b6020831014612d5157565b634e487b7160e01b600052602260045260246000fd5b91607f1691612d46565b9060009291805491612d8283612d37565b918282526001938481169081600014612de45750600114612da4575b50505050565b90919394506000526020928360002092846000945b838610612dd0575050505001019038808080612d9e565b805485870183015294019385908201612db9565b915050602094955060ff199193501683830152151560051b01019038808080612d9e565b8054821015612e205760005260206000200190600090565b634e487b7160e01b600052603260045260246000fd5b6003196040910112612d32576004359060243590565b6020908160408183019282815285518094520193019160005b828110612e73575050505090565b835185529381019392810192600101612e65565b15612e8e57565b606460405162461bcd60e51b815260206004820152600c60248201527f4e6f7420747265617375727900000000000000000000000000000000000000006044820152fd5b15612ed957565b606460405162461bcd60e51b815260206004820152600660248201527f50617573656400000000000000000000000000000000000000000000000000006044820152fd5b6000198114612f2c5760010190565b634e487b7160e01b600052601160045260246000fd5b90816020910312612d3257516001600160a01b0381168103612d325790565b91908201809211612f2c57565b818110612f79575050565b60008155600101612f6e565b9190601f8111612f9457505050565b612fc0926000526020600020906020601f840160051c83019310612fc2575b601f0160051c0190612f6e565b565b9091508190612fb3565b9290604051927f23b872dd0000000000000000000000000000000000000000000000000000000060208501526001600160a01b03809216602485015216604483015260648201526064815260a081019181831067ffffffffffffffff841117612be457612fc092604052613048565b51908115158203612d3257565b6001600160a01b0316906130c660405161306181612bc8565b6020938482527f5361666545524332303a206c6f772d6c6576656c2063616c6c206661696c6564858301526000808587829751910182855af13d15613162573d916130ab83612c4e565b926130b96040519485612c2b565b83523d868885013e613166565b908151806130d45750505050565b8284918101031261050f5750816130eb910161303b565b156130f857808080612d9e565b6084906040519062461bcd60e51b82526004820152602a60248201527f5361666545524332303a204552433230206f7065726174696f6e20646964206e60448201527f6f742073756363656564000000000000000000000000000000000000000000006064820152fd5b6060915b919290156131c7575081511561317a575090565b3b156131835790565b606460405162461bcd60e51b815260206004820152601d60248201527f416464726573733a2063616c6c20746f206e6f6e2d636f6e74726163740000006044820152fd5b8251909150156131da5750805190602001fd5b6131fe9060405191829162461bcd60e51b8352602060048401526024830190612cc6565b0390fd5b1561320957565b606460405162461bcd60e51b815260206004820152601560248201527f4d61726b657420646f6573206e6f7420657869737400000000000000000000006044820152fd5b1561325457565b606460405162461bcd60e51b815260206004820152600e60248201527f4d61726b657420657870697265640000000000000000000000000000000000006044820152fd5b906001600160a01b03604051917f095ea7b30000000000000000000000000000000000000000000000000000000060208401521660248201526000604482015260448152608081019181831067ffffffffffffffff841117612be457612fc092604052613048565b919091811580156133dd575b15613373576040517f095ea7b30000000000000000000000000000000000000000000000000000000060208201526001600160a01b0390931660248401526044830191909152612fc0919061336e82606481015b03601f198101845283612c2b565b613048565b608460405162461bcd60e51b815260206004820152603660248201527f5361666545524332303a20617070726f76652066726f6d206e6f6e2d7a65726f60448201527f20746f206e6f6e2d7a65726f20616c6c6f77616e6365000000000000000000006064820152fd5b506040517fdd62ed3e0000000000000000000000000000000000000000000000000000000081523060048201526020816044816001600160a01b03808916602483015286165afa90811561346b5760009161343a575b501561330c565b906020823d8211613463575b8161345360209383612c2b565b8101031261050f57505138613433565b3d9150613446565b6040513d6000823e3d90fd5b80156135535780816000925b61353f575061349182612c4e565b9161349f6040519384612c2b565b80835281601f196134af83612c4e565b01916020923684870137905b6134c55750505090565b60001990818101908111612f2c578093600a808204809404811184151516612f2c5783028103908111612f2c5760ff809116603001908111612f2c578551821015612e205760f81b7fff000000000000000000000000000000000000000000000000000000000000001660001a90850183015391826134bb565b9161354b600a91612f1d565b920480613483565b5060405161356081612bc8565b600181527f3000000000000000000000000000000000000000000000000000000000000000602082015290565b1561359457565b606460405162461bcd60e51b815260206004820152600a60248201527f4e6f74206f7261636c65000000000000000000000000000000000000000000006044820152fd5b908082146136b2576135ea8154612d37565b9067ffffffffffffffff8211612be45781906136108261360a8654612d37565b86612f85565b600090601f83116001146136465760009261363b575b50506000198260011b9260031b1c1916179055565b015490503880613626565b91601f1916918152602091828220908583528383209383905b828210613699575050908460019594939210613680575b505050811b019055565b015460001960f88460031b161c19169055388080613676565b849581929585015481556001809101960194019061365f565b5050565b6040517fa9059cbb0000000000000000000000000000000000000000000000000000000060208201526001600160a01b0390921660248301526044820192909252612fc09161336e8260648101613360565b1561370f57565b606460405162461bcd60e51b815260206004820152600a60248201527f5265656e7472616e6379000000000000000000000000000000000000000000006044820152fd5b1561375a57565b606460405162461bcd60e51b815260206004820152601360248201527f4d61726b6574206e6f74207265736f6c766564000000000000000000000000006044820152fd5b51906001600160a01b0382168203612d3257565b519067ffffffffffffffff82168203612d3257565b61020091819003828112612d325760405192610180928385019267ffffffffffffffff9086851082861117612be45760a013612d3257610220860190811184821017612be4576040526138198161303b565b83526138276020820161303b565b926101a0938487015261383c6040830161303b565b906101c091828801526138516060840161379e565b936101e094858901526138666080850161379e565b90880152865261387860a0830161379e565b602087015261388960c083016137b2565b604087015261389a60e0830161303b565b60608701526101009081830151906001600160a01b0382168203612d32576139199561390f9260808a0152610120906138d48287016137b2565b60a08b0152610140946138e886880161303b565b60c08c0152610160998a88015160e08d0152870151908b015285015190890152830161379e565b908601520161379e565b9082015290565b6000908152600660205260408120549182156139f057604051917f883028840000000000000000000000000000000000000000000000000000000083528360048401526102009283816024816001600160a01b037f0000000000000000000000000000000000000000000000000000000000000000165afa93841561071e5782946139d1575b505060ff604067ffffffffffffffff60a0606087015115159601511692868152600860205220541691565b6139e8929450803d10610797576107888183612c2b565b9138806139a6565b90809250918091819056fea2646970667358221220da5d199bc0c9a02fac62fad47f49370fcd82d5045858b577100b7656119fb33364736f6c634300081000336080806040523461001657612231908161001c8239f35b600080fdfe6040608081526004803610156200001557600080fd5b600091823560e01c63198e2b8a146200002d57600080fd5b34620001bc57807ffffffffffffffffffffffffffffffffffffffffffffffffffffffffffffffffc360112620001bc5767ffffffffffffffff823581811162000228576200007f903690850162000270565b9060243581811162000224576200009a903690860162000270565b835192611edd80850193841185851017620001f857620000e3859493620000d460129489946200031f8939606087526060870190620002dc565b908582036020870152620002dc565b920152039084f08015620001ee5773ffffffffffffffffffffffffffffffffffffffff1691823b15620001ca5781517f983b2d560000000000000000000000000000000000000000000000000000000081523382820152848160248183885af18015620001e457620001ce575b50823b15620001ca578151907ff44637ba0000000000000000000000000000000000000000000000000000000082523390820152838160248183875af18015620001c057620001a4575b6020838351908152f35b620001b084916200022c565b620001bc57826200019a565b8280fd5b82513d86823e3d90fd5b8380fd5b620001dc909491946200022c565b923862000150565b83513d87823e3d90fd5b81513d85823e3d90fd5b6024886041897f4e487b7100000000000000000000000000000000000000000000000000000000835252fd5b8580fd5b8480fd5b67ffffffffffffffff81116200024157604052565b7f4e487b7100000000000000000000000000000000000000000000000000000000600052604160045260246000fd5b81601f82011215620002d75780359067ffffffffffffffff92838311620002415760405193601f19603f81601f870116011685019085821090821117620002415760405282845260208383010111620002d757816000926020809301838601378301015290565b600080fd5b919082519283825260005b84811062000309575050601f19601f8460006020809697860101520116010190565b602081830181015184830182015201620002e756fe604060808152346200074f5762001edd803803806200001e8162000774565b92833981016060828203126200074f5781516001600160401b03908181116200074f57826200004f9185016200079a565b602092838501518381116200074f5786916200006d9187016200079a565b9401519160ff928381168091036200074f578251918083116200064f576003908154936001958686811c9616801562000744575b898710146200072e578190601f96878111620006d8575b508990878311600114620006715760009262000665575b505060001982851b1c191690861b1782555b87519081116200064f5760049788548681811c9116801562000644575b898210146200062f57908186849311620005d9575b508890868311600114620005725760009262000566575b505060001982841b1c191690851b1787555b60ff1991826006541617600655600080526005928387526200017286868b6000200154166200016b816200080c565b156200082d565b60008052838752600289600020868101878682541617905560008155013315620005175780546001600160a01b0319163317905560008080528488528990208501548616620001c1816200080c565b15620004bf57620001d162000754565b6000815285600052848852620001f487878c6000200154166200016b816200080c565b85600052848852828a600020878101600287825416179055600081550190866000905b6200041b575b5050506000805283875285858a6000200154166200023b816200080c565b15620003c3576200024b62000754565b916000835260026000528488526200027087878c6000200154166200016b816200080c565b600260005284885289600020868101600286825416179055600081550191856000905b62000320575b505050505060008052835284600020015416620002b6816200080c565b15620002cb57825161164290816200087b8239f35b608492519162461bcd60e51b83528201526038602482015260008051602062001ebd83398151915260448201527f20746f206d616e61676520612073686172656420726f6c6500000000000000006064820152fd5b8151811015620003bd5780861b82018901516001600160a01b031680156200037c576000528389528a60002087868254161790556000198114620003675786018662000293565b60118a634e487b7160e01b6000525260246000fd5b60648b858c8f519262461bcd60e51b845283015260248201527f43616e6e6f74206164642030783020746f20612073686172656420726f6c65006044820152fd5b62000299565b885162461bcd60e51b81528089018890526038602482015260008051602062001ebd83398151915260448201527f20746f206d616e61676520612073686172656420726f6c6500000000000000006064820152608490fd5b8151811015620004b95780871b82018a01516001600160a01b031680156200047757600052828a528b60002088878254161790556000198114620004625787018762000217565b60118b634e487b7160e01b6000525260246000fd5b5060648b858c8f519262461bcd60e51b845283015260248201527f43616e6e6f74206164642030783020746f20612073686172656420726f6c65006044820152fd5b6200021d565b885162461bcd60e51b8152808901889052603c602482015260008051602062001ebd83398151915260448201527f20746f206d616e61676520616e206578636c757369766520726f6c65000000006064820152608490fd5b895162461bcd60e51b8152808a01899052602360248201527f43616e6e6f742073657420616e206578636c757369766520726f6c6520746f2060448201526203078360ec1b6064820152608490fd5b0151905038806200012a565b90879350601f198316918b6000528a6000209260005b8c828210620005c25750508411620005a9575b505050811b0187556200013c565b015160001983861b60f8161c191690553880806200059b565b8385015186558b9790950194938401930162000588565b90915089600052886000208680850160051c8201928b861062000625575b918991869594930160051c01915b8281106200061557505062000113565b6000815585945089910162000605565b92508192620005f7565b60228a634e487b7160e01b6000525260246000fd5b90607f1690620000fe565b634e487b7160e01b600052604160045260246000fd5b015190503880620000cf565b90889350601f19831691866000528b6000209260005b8d828210620006c15750508411620006a8575b505050811b018255620000e1565b015160001983871b60f8161c191690553880806200069a565b8385015186558c9790950194938401930162000687565b90915084600052896000208780850160051c8201928c861062000724575b918a91869594930160051c01915b82811062000714575050620000b8565b600081558594508a910162000704565b92508192620006f6565b634e487b7160e01b600052602260045260246000fd5b95607f1695620000a1565b600080fd5b60405190602082016001600160401b038111838210176200064f57604052565b6040519190601f01601f191682016001600160401b038111838210176200064f57604052565b919080601f840112156200074f5782516001600160401b0381116200064f57602090620007d0601f8201601f1916830162000774565b928184528282870101116200074f5760005b818110620007f857508260009394955001015290565b8581018301518482018401528201620007e2565b600311156200081757565b634e487b7160e01b600052602160045260246000fd5b156200083557565b60405162461bcd60e51b815260206004820152601e60248201527f43616e6e6f74207573652061207072652d6578697374696e6720726f6c6500006044820152606490fdfe608060408181526004908136101561001657600080fd5b600092833560e01c90816306fdde0314610d2057508063095ea7b314610cf657806318160ddd14610cd757806323b872dd14610bee578063313ce56714610bcc5780633950935114610b7d57806340c10f1914610aad57806342966c6814610a805780636be7658b146109c557806370a082311461098f57806373cc802a146108ca57806374d0a676146107d457806379cc67901461079f5780637cdc1cb91461076e57806395d89b411461063f578063983b2d5614610590578063a457c2d7146104d0578063a9059cbb1461049f578063aaa14ca3146103fb578063ab3545e5146103a9578063d97c05be14610274578063dd62ed3e146102275763f44637ba1461012157600080fd5b346102235760208060031936011261021f5761013b610e4d565b906002855260058152610162600260ff600186892001541661015c81611189565b1461159b565b600285526005815261018061017b84872054339061149c565b61152b565b60028552600581526001600160a01b0360038487200192169384156101de575083855252808320600160ff198254161790555190339060027f63502af7324ff6db91ab38f8236a648727d9385ea6c782073dd4882d8a61a48f8585a4f35b60649184519162461bcd60e51b8352820152601f60248201527f43616e6e6f74206164642030783020746f20612073686172656420726f6c65006044820152fd5b8380fd5b8280fd5b83823461027057806003193601126102705780602092610245610e4d565b61024d610e68565b6001600160a01b0391821683526001865283832091168252845220549051908152f35b5080fd5b5034610223578060031936011261022357813590610290610e68565b82855260056020526102b5600160ff818589200154166102af81611189565b146114ba565b82855260056020526102ce61017b83872054339061149c565b82855260056020526001600160a01b0360028387200191169384156103405750837fffffffffffffffffffffffff0000000000000000000000000000000000000000825416179055519133917f3b855c56b409b671c7112789d022675eb639d0bcb8896f1b6197c132f799e7468585a4f35b608490602084519162461bcd60e51b8352820152602360248201527f43616e6e6f742073657420616e206578636c757369766520726f6c6520746f2060448201527f30783000000000000000000000000000000000000000000000000000000000006064820152fd5b509034610223576020600319360112610223576002826020946001600160a01b039335808252600587526103ea600160ff818686200154166102af81611189565b815260058652200154169051908152f35b5090346102235760206003193601126102235735908183526005602052610430600260ff600184872001541661015c81611189565b61044261043d338461149c565b6111a9565b818352600560205261047333600383862001906001600160a01b0316600052602052604060002060ff198154169055565b5190339033907feb3e33034c392e69263b04ec0fa376dc12784a41b6676c7f31b936cbc0fbb5af8585a4f35b8382346102705780600319360112610270576020906104c96104bf610e4d565b6024359033610ea1565b5160018152f35b50913461058d578260031936011261058d576104ea610e4d565b91836024359233815260016020528181206001600160a01b0386168252602052205490828210610524576020856104c98585038733611055565b608490602086519162461bcd60e51b8352820152602560248201527f45524332303a2064656372656173656420616c6c6f77616e63652062656c6f7760448201527f207a65726f0000000000000000000000000000000000000000000000000000006064820152fd5b80fd5b5034610223576020908160031936011261021f576105ac610e4d565b600192838652600581526105cd600260ff86868a2001541661015c81611189565b838652600581526105e561017b84882054339061149c565b838652600581526001600160a01b0360038488200192169485156101de5750848652528084208260ff19825416179055519133917f63502af7324ff6db91ab38f8236a648727d9385ea6c782073dd4882d8a61a48f8585a4f35b50829034610270578160031936011261027057805190828454600181811c90808316928315610764575b602093848410811461075157838852879594939291811561073257506001146106d4575b50505003601f01601f191682019267ffffffffffffffff8411838510176106c157508291826106bd925282610e05565b0390f35b80604186634e487b7160e01b6024945252fd5b8888529193925086917f8a35acfbc15ff81a39ae7d344fd709f28e8600b4aa8c65c6b64bfe7fe36bd19b5b82841061071c5750505090601f1992601f9282010191819361068d565b80548885018701528794509285019281016106ff565b60ff1916848701525050151560051b830101905081601f601f1961068d565b60248960228c634e487b7160e01b835252fd5b91607f1691610669565b50823461058d578160031936011261058d575061079660209261078f610e68565b903561149c565b90519015158152f35b8382346102705780600319360112610270576020906104c96107bf610e4d565b6107cb61043d33611442565b6024359061121a565b50346102235780600319360112610223578135906107f0610e68565b8285526005602052610810600260ff600185892001541661015c81611189565b828552600560205261082961017b83872054339061149c565b82855260056020526001600160a01b0360038387200191169384156108875750838552602052808420600160ff19825416179055519133917f63502af7324ff6db91ab38f8236a648727d9385ea6c782073dd4882d8a61a48f8585a4f35b606490602084519162461bcd60e51b8352820152601f60248201527f43616e6e6f74206164642030783020746f20612073686172656420726f6c65006044820152fd5b5034610223576020600319360112610223576108e4610e4d565b8380526005602052610903600160ff818588200154166102af81611189565b838052600560205261091c61017b83862054339061149c565b83805260056020526001600160a01b0360028386200191169283156103405750827fffffffffffffffffffffffff000000000000000000000000000000000000000082541617905551903390837f3b855c56b409b671c7112789d022675eb639d0bcb8896f1b6197c132f799e7468185a4f35b83823461027057602060031936011261027057806020926001600160a01b036109b6610e4d565b16815280845220549051908152f35b50903461022357816003193601126102235735906109e1610e68565b908284526005602052610a02600260ff600184882001541661015c81611189565b8284526005602052610a1b61017b82862054339061149c565b8284526005602052610a4c82600383872001906001600160a01b0316600052602052604060002060ff198154169055565b51916001600160a01b03339216907feb3e33034c392e69263b04ec0fa376dc12784a41b6676c7f31b936cbc0fbb5af8585a4f35b50903461022357602060031936011261022357610aaa90610aa361043d33611442565b353361121a565b51f35b50823461058d578160031936011261058d57610ac7610e4d565b906001600160a01b0360243592610ae061043d33611356565b16918215610b3a57602080955081610b1b7fddf252ad1be2c89b69c2b068fc378daa952ba7f163c4a11628f55a4df523b3ef93600254610e7e565b6002558484528382528584208181540190558551908152a35160018152f35b606485602086519162461bcd60e51b8352820152601f60248201527f45524332303a206d696e7420746f20746865207a65726f2061646472657373006044820152fd5b8382346102705780600319360112610270576104c9602092610bc5610ba0610e4d565b91338152600186528481206001600160a01b0384168252865284602435912054610e7e565b9033611055565b83823461027057816003193601126102705760209060ff600654169051908152f35b5091903461027057606060031936011261027057610c0a610e4d565b610c12610e68565b9184604435946001600160a01b038416815260016020528181203382526020522054907fffffffffffffffffffffffffffffffffffffffffffffffffffffffffffffffff8203610c6b575b6020866104c9878787610ea1565b848210610c945750918391610c89602096956104c995033383611055565b919394819350610c5d565b606490602087519162461bcd60e51b8352820152601d60248201527f45524332303a20696e73756666696369656e7420616c6c6f77616e63650000006044820152fd5b8382346102705781600319360112610270576020906002549051908152f35b8382346102705780600319360112610270576020906104c9610d16610e4d565b6024359033611055565b905083913461022357826003193601126102235782600354600181811c90808316928315610dfb575b60209384841081146107515783885287959493929181156107325750600114610d9c5750505003601f01601f191682019267ffffffffffffffff8411838510176106c157508291826106bd925282610e05565b600388529193925086917fc2575a0e9e593c00f959f8c92f12db2869c3395a3b0502d05e2516446f71f85b5b828410610de55750505090601f1992601f9282010191819361068d565b8054888501870152879450928501928101610dc8565b91607f1691610d49565b60208082528251818301819052939260005b858110610e3957505050601f19601f8460006040809697860101520116010190565b818101830151848201604001528201610e17565b600435906001600160a01b0382168203610e6357565b600080fd5b602435906001600160a01b0382168203610e6357565b91908201809211610e8b57565b634e487b7160e01b600052601160045260246000fd5b6001600160a01b03809116918215610feb5716918215610f8157600082815280602052604081205491808310610f1757604082827fddf252ad1be2c89b69c2b068fc378daa952ba7f163c4a11628f55a4df523b3ef958760209652828652038282205586815220818154019055604051908152a3565b608460405162461bcd60e51b815260206004820152602660248201527f45524332303a207472616e7366657220616d6f756e742065786365656473206260448201527f616c616e636500000000000000000000000000000000000000000000000000006064820152fd5b608460405162461bcd60e51b815260206004820152602360248201527f45524332303a207472616e7366657220746f20746865207a65726f206164647260448201527f65737300000000000000000000000000000000000000000000000000000000006064820152fd5b608460405162461bcd60e51b815260206004820152602560248201527f45524332303a207472616e736665722066726f6d20746865207a65726f20616460448201527f64726573730000000000000000000000000000000000000000000000000000006064820152fd5b6001600160a01b0380911691821561112057169182156110b65760207f8c5be1e5ebec7d5bd14f71427d1e84f3dd0314c0f7b2291e5b200ac8c7c3b925918360005260018252604060002085600052825280604060002055604051908152a3565b608460405162461bcd60e51b815260206004820152602260248201527f45524332303a20617070726f766520746f20746865207a65726f20616464726560448201527f73730000000000000000000000000000000000000000000000000000000000006064820152fd5b608460405162461bcd60e51b8152602060048201526024808201527f45524332303a20617070726f76652066726f6d20746865207a65726f2061646460448201527f72657373000000000000000000000000000000000000000000000000000000006064820152fd5b6003111561119357565b634e487b7160e01b600052602160045260246000fd5b156111b057565b608460405162461bcd60e51b815260206004820152602260248201527f53656e64657220646f6573206e6f7420686f6c6420726571756972656420726f60448201527f6c650000000000000000000000000000000000000000000000000000000000006064820152fd5b6001600160a01b031680156112ec5760009181835282602052604083205481811061128257817fddf252ad1be2c89b69c2b068fc378daa952ba7f163c4a11628f55a4df523b3ef926020928587528684520360408620558060025403600255604051908152a3565b608460405162461bcd60e51b815260206004820152602260248201527f45524332303a206275726e20616d6f756e7420657863656564732062616c616e60448201527f63650000000000000000000000000000000000000000000000000000000000006064820152fd5b608460405162461bcd60e51b815260206004820152602160248201527f45524332303a206275726e2066726f6d20746865207a65726f2061646472657360448201527f73000000000000000000000000000000000000000000000000000000000000006064820152fd5b600160005260056020527f1471eb6eb2c5e789fc3de43f8ce62938c7d1836ec861730447e2ada8fd81017c547f1471eb6eb2c5e789fc3de43f8ce62938c7d1836ec861730447e2ada8fd81017b9060ff166113b081611189565b600181036113ce5750600201546001600160a01b0391821691161490565b806113da600292611189565b1461142357606460405162461bcd60e51b815260206004820152600e60248201527f496e76616c696420726f6c6549640000000000000000000000000000000000006044820152fd5b6001600160a01b03600392166000520160205260ff6040600020541690565b600260005260056020527f89832631fb3c3307a103ba2c84ab569c64d6182a18893dcd163f0f1c2090733b547f89832631fb3c3307a103ba2c84ab569c64d6182a18893dcd163f0f1c2090733a9060ff166113b081611189565b6000526005602052604060002060ff6001820154166113b081611189565b156114c157565b608460405162461bcd60e51b815260206004820152602f60248201527f4d7573742062652063616c6c6564206f6e20616e20696e697469616c697a656460448201527f204578636c757369766520726f6c6500000000000000000000000000000000006064820152fd5b1561153257565b608460405162461bcd60e51b8152602060048201526024808201527f43616e206f6e6c792062652063616c6c6564206279206120726f6c65206d616e60448201527f61676572000000000000000000000000000000000000000000000000000000006064820152fd5b156115a257565b608460405162461bcd60e51b815260206004820152602c60248201527f4d7573742062652063616c6c6564206f6e20616e20696e697469616c697a656460448201527f2053686172656420726f6c6500000000000000000000000000000000000000006064820152fdfea264697066735822122027091828c144b78df01495e5235e90996073b63efe248c63f7d976b80738777e64736f6c63430008100033417474656d7074656420746f2075736520616e20696e76616c696420726f6c65a26469706673582212205df0328883a04621b63c870a531ecf62d7caa821955ca6d712e1d10ea40ad3ed64736f6c63430008100033","linkReferences":{}},"methodIdentifiers":{"DISPUTE_EXTENSION()":"b40b7841","assertMarket(bytes32,string)":"565429a8","assertedMarkets(bytes32)":"d4107645","assertionBond(bytes32)":"27656890","assertionDisputedCallback(bytes32)":"d448a4ec","assertionLiveness()":"b75d4e24","assertionOutcomes(bytes32)":"87573d4c","assertionResolvedCallback(bytes32,bool)":"f1b156b2","createOutcomeTokens(bytes32,uint256)":"9d5bacfd","currency()":"e5a6b10f","defaultIdentifier()":"d509b017","disputeAssertion(bytes32)":"cb91dd72","disputedAssertions(bytes32)":"ddfc3228","disputerOf(bytes32)":"b4280e75","factory()":"c45a0155","finder()":"b9a3c84c","getAllMarkets()":"b0772d0b","getAssertionData(bytes32)":"599807e7","getAssertionForMarket(bytes32)":"56038b05","getMarket(bytes32)":"c3c95c7b","getMarketAssertions(bytes32)":"ee394f3a","getMarketDetails(bytes32)":"881268cb","getWinningOutcome(bytes32)":"68585b4b","initializeMarket(string,string,string,uint256,uint256,uint256)":"782b8b46","isResolved(bytes32)":"de61ece1","marketAssertions(bytes32,uint256)":"aad232f4","marketIds(uint256)":"779a9683","marketToAssertion(bytes32)":"2cc52445","markets(bytes32)":"7564912b","oo()":"8921a614","pause()":"8456cb59","paused()":"5c975abb","redeemOutcomeTokens(bytes32,uint256)":"9d2edf46","settleMarket(bytes32)":"e039c00e","settleOutcomeTokens(bytes32)":"acd98e29","treasury()":"61d027b3","unpause()":"3f4ba83a","unresolvable()":"0880c65a"},"id":64}